{"contracts/TaaSSeal.sol":{"TaaSSeal":{"abi":[{"anonymous":false,"inputs":[{"indexed":false,"internalType":"string","name":"gpid","type":"string"},{"indexed":false,"internalType":"bytes32","name":"seal","type":"bytes32"}],"name":"SealCreated","type":"event"},{"inputs":[{"internalType":"string","name":"gpid","type":"string"},{"internalType":"string","name":"brand","type":"string"},{"internalType":"string","name":"model","type":"string"},{"internalType":"string","name":"factory","type":"string"},{"internalType":"address","name":"issuer","type":"address"}],"name":"createSeal","outputs":[],"stateMutability":"nonpayable","type":"function"},{"inputs":[{"internalType":"string","name":"","type":"string"}],"name":"seals","outputs":[{"internalType":"bytes32","name":"","type":"bytes32"}],"stateMutability":"view","type":"function"},{"inputs":[{"internalType":"string","name":"gpid","type":"string"},{"internalType":"bytes32","name":"seal","type":"bytes32"}],"name":"verifySeal","outputs":[{"internalType":"bool","name":"","type":"bool"}],"stateMutability":"view","type":"function"}],"evm":{"bytecode":{"linkReferences":{},"object":"608060405234801561001057600080fd5b5061087f806100206000396000f3fe608060405234801561001057600080fd5b50600436106100415760003560e01c806316c6981e14610046578063462297a214610076578063caeda9d3146100a6575b600080fd5b610060600480360381019061005b9190610373565b6100c2565b60405161006d91906103d5565b60405180910390f35b610090600480360381019061008b919061041c565b6100f0565b60405161009d9190610493565b60405180910390f35b6100c060048036038101906100bb919061050c565b61011b565b005b6000818051602081018201805184825260208301602085012081835280955050505050506000915090505481565b6000816000846040516101039190610668565b90815260200160405180910390205414905092915050565b6000801b60008660405161012f9190610668565b9081526020016040518091039020541461017e576040517f08c379a0000000000000000000000000000000000000000000000000000000008152600401610175906106dc565b60405180910390fd5b60008585858585424460405160200161019d979695949392919061076f565b604051602081830303815290604052805190602001209050806000876040516101c69190610668565b9081526020016040518091039020819055507f5c0e11cce63a8c14f17da719b63d68b3f7dd691b44831a6a2dce64bdd2f34f618682604051610209929190610819565b60405180910390a1505050505050565b6000604051905090565b600080fd5b600080fd5b600080fd5b600080fd5b6000601f19601f8301169050919050565b7f4e487b7100000000000000000000000000000000000000000000000000000000600052604160045260246000fd5b61028082610237565b810181811067ffffffffffffffff8211171561029f5761029e610248565b5b80604052505050565b60006102b2610219565b90506102be8282610277565b919050565b600067ffffffffffffffff8211156102de576102dd610248565b5b6102e782610237565b9050602081019050919050565b82818337600083830152505050565b6000610316610311846102c3565b6102a8565b90508281526020810184848401111561033257610331610232565b5b61033d8482856102f4565b509392505050565b600082601f83011261035a5761035961022d565b5b813561036a848260208601610303565b91505092915050565b60006020828403121561038957610388610223565b5b600082013567ffffffffffffffff8111156103a7576103a6610228565b5b6103b384828501610345565b91505092915050565b6000819050919050565b6103cf816103bc565b82525050565b60006020820190506103ea60008301846103c6565b92915050565b6103f9816103bc565b811461040457600080fd5b50565b600081359050610416816103f0565b92915050565b6000806040838503121561043357610432610223565b5b600083013567ffffffffffffffff81111561045157610450610228565b5b61045d85828601610345565b925050602061046e85828601610407565b9150509250929050565b60008115159050919050565b61048d81610478565b82525050565b60006020820190506104a86000830184610484565b92915050565b600073ffffffffffffffffffffffffffffffffffffffff82169050919050565b60006104d9826104ae565b9050919050565b6104e9816104ce565b81146104f457600080fd5b50565b600081359050610506816104e0565b92915050565b600080600080600060a0868803121561052857610527610223565b5b600086013567ffffffffffffffff81111561054657610545610228565b5b61055288828901610345565b955050602086013567ffffffffffffffff81111561057357610572610228565b5b61057f88828901610345565b945050604086013567ffffffffffffffff8111156105a05761059f610228565b5b6105ac88828901610345565b935050606086013567ffffffffffffffff8111156105cd576105cc610228565b5b6105d988828901610345565b92505060806105ea888289016104f7565b9150509295509295909350565b600081519050919050565b600081905092915050565b60005b8381101561062b578082015181840152602081019050610610565b60008484015250505050565b6000610642826105f7565b61064c8185610602565b935061065c81856020860161060d565b80840191505092915050565b60006106748284610637565b915081905092915050565b600082825260208201905092915050565b7f5345414c5f455849535453000000000000000000000000000000000000000000600082015250565b60006106c6600b8361067f565b91506106d182610690565b602082019050919050565b600060208201905081810360008301526106f5816106b9565b9050919050565b60008160601b9050919050565b6000610714826106fc565b9050919050565b600061072682610709565b9050919050565b61073e610739826104ce565b61071b565b82525050565b6000819050919050565b6000819050919050565b61076961076482610744565b61074e565b82525050565b600061077b828a610637565b91506107878289610637565b91506107938288610637565b915061079f8287610637565b91506107ab828661072d565b6014820191506107bb8285610758565b6020820191506107cb8284610758565b60208201915081905098975050505050505050565b60006107eb826105f7565b6107f5818561067f565b935061080581856020860161060d565b61080e81610237565b840191505092915050565b6000604082019050818103600083015261083381856107e0565b905061084260208301846103c6565b939250505056fea2646970667358221220a0d3f7e70518896020c716f85aca582688f337e95536817dc407590bbb77d15264736f6c63430008180033","opcodes":"PUSH1 0x80 PUSH1 0x40 MSTORE CALLVALUE DUP1 ISZERO PUSH2 0x10 JUMPI PUSH1 0x0 DUP1 REVERT JUMPDEST POP PUSH2 0x87F DUP1 PUSH2 0x20 PUSH1 0x0 CODECOPY PUSH1 0x0 RETURN INVALID PUSH1 0x80 PUSH1 0x40 MSTORE CALLVALUE DUP1 ISZERO PUSH2 0x10 JUMPI PUSH1 0x0 DUP1 REVERT JUMPDEST POP PUSH1 0x4 CALLDATASIZE LT PUSH2 0x41 JUMPI PUSH1 0x0 CALLDATALOAD PUSH1 0xE0 SHR DUP1 PUSH4 0x16C6981E EQ PUSH2 0x46 JUMPI DUP1 PUSH4 0x462297A2 EQ PUSH2 0x76 JUMPI DUP1 PUSH4 0xCAEDA9D3 EQ PUSH2 0xA6 JUMPI JUMPDEST PUSH1 0x0 DUP1 REVERT JUMPDEST PUSH2 0x60 PUSH1 0x4 DUP1 CALLDATASIZE SUB DUP2 ADD SWAP1 PUSH2 0x5B SWAP2 SWAP1 PUSH2 0x373 JUMP JUMPDEST PUSH2 0xC2 JUMP JUMPDEST PUSH1 0x40 MLOAD PUSH2 0x6D SWAP2 SWAP1 PUSH2 0x3D5 JUMP JUMPDEST PUSH1 0x40 MLOAD DUP1 SWAP2 SUB SWAP1 RETURN JUMPDEST PUSH2 0x90 PUSH1 0x4 DUP1 CALLDATASIZE SUB DUP2 ADD SWAP1 PUSH2 0x8B SWAP2 SWAP1 PUSH2 0x41C JUMP JUMPDEST PUSH2 0xF0 JUMP JUMPDEST PUSH1 0x40 MLOAD PUSH2 0x9D SWAP2 SWAP1 PUSH2 0x493 JUMP JUMPDEST PUSH1 0x40 MLOAD DUP1 SWAP2 SUB SWAP1 RETURN JUMPDEST PUSH2 0xC0 PUSH1 0x4 DUP1 CALLDATASIZE SUB DUP2 ADD SWAP1 PUSH2 0xBB SWAP2 SWAP1 PUSH2 0x50C JUMP JUMPDEST PUSH2 0x11B JUMP JUMPDEST STOP JUMPDEST PUSH1 0x0 DUP2 DUP1 MLOAD PUSH1 0x20 DUP2 ADD DUP3 ADD DUP1 MLOAD DUP5 DUP3 MSTORE PUSH1 0x20 DUP4 ADD PUSH1 0x20 DUP6 ADD KECCAK256 DUP2 DUP4 MSTORE DUP1 SWAP6 POP POP POP POP POP POP PUSH1 0x0 SWAP2 POP SWAP1 POP SLOAD DUP2 JUMP JUMPDEST PUSH1 0x0 DUP2 PUSH1 0x0 DUP5 PUSH1 0x40 MLOAD PUSH2 0x103 SWAP2 SWAP1 PUSH2 0x668 JUMP JUMPDEST SWAP1 DUP2 MSTORE PUSH1 0x20 ADD PUSH1 0x40 MLOAD DUP1 SWAP2 SUB SWAP1 KECCAK256 SLOAD EQ SWAP1 POP SWAP3 SWAP2 POP POP JUMP JUMPDEST PUSH1 0x0 DUP1 SHL PUSH1 0x0 DUP7 PUSH1 0x40 MLOAD PUSH2 0x12F SWAP2 SWAP1 PUSH2 0x668 JUMP JUMPDEST SWAP1 DUP2 MSTORE PUSH1 0x20 ADD PUSH1 0x40 MLOAD DUP1 SWAP2 SUB SWAP1 KECCAK256 SLOAD EQ PUSH2 0x17E JUMPI PUSH1 0x40 MLOAD PUSH32 0x8C379A000000000000000000000000000000000000000000000000000000000 DUP2 MSTORE PUSH1 0x4 ADD PUSH2 0x175 SWAP1 PUSH2 0x6DC JUMP JUMPDEST PUSH1 0x40 MLOAD DUP1 SWAP2 SUB SWAP1 REVERT JUMPDEST PUSH1 0x0 DUP6 DUP6 DUP6 DUP6 DUP6 TIMESTAMP PREVRANDAO PUSH1 0x40 MLOAD PUSH1 0x20 ADD PUSH2 0x19D SWAP8 SWAP7 SWAP6 SWAP5 SWAP4 SWAP3 SWAP2 SWAP1 PUSH2 0x76F JUMP JUMPDEST PUSH1 0x40 MLOAD PUSH1 0x20 DUP2 DUP4 SUB SUB DUP2 MSTORE SWAP1 PUSH1 0x40 MSTORE DUP1 MLOAD SWAP1 PUSH1 0x20 ADD KECCAK256 SWAP1 POP DUP1 PUSH1 0x0 DUP8 PUSH1 0x40 MLOAD PUSH2 0x1C6 SWAP2 SWAP1 PUSH2 0x668 JUMP JUMPDEST SWAP1 DUP2 MSTORE PUSH1 0x20 ADD PUSH1 0x40 MLOAD DUP1 SWAP2 SUB SWAP1 KECCAK256 DUP2 SWAP1 SSTORE POP PUSH32 0x5C0E11CCE63A8C14F17DA719B63D68B3F7DD691B44831A6A2DCE64BDD2F34F61 DUP7 DUP3 PUSH1 0x40 MLOAD PUSH2 0x209 SWAP3 SWAP2 SWAP1 PUSH2 0x819 JUMP JUMPDEST PUSH1 0x40 MLOAD DUP1 SWAP2 SUB SWAP1 LOG1 POP POP POP POP POP POP JUMP JUMPDEST PUSH1 0x0 PUSH1 0x40 MLOAD SWAP1 POP SWAP1 JUMP JUMPDEST PUSH1 0x0 DUP1 REVERT JUMPDEST PUSH1 0x0 DUP1 REVERT JUMPDEST PUSH1 0x0 DUP1 REVERT JUMPDEST PUSH1 0x0 DUP1 REVERT JUMPDEST PUSH1 0x0 PUSH1 0x1F NOT PUSH1 0x1F DUP4 ADD AND SWAP1 POP SWAP2 SWAP1 POP JUMP JUMPDEST PUSH32 0x4E487B7100000000000000000000000000000000000000000000000000000000 PUSH1 0x0 MSTORE PUSH1 0x41 PUSH1 0x4 MSTORE PUSH1 0x24 PUSH1 0x0 REVERT JUMPDEST PUSH2 0x280 DUP3 PUSH2 0x237 JUMP JUMPDEST DUP2 ADD DUP2 DUP2 LT PUSH8 0xFFFFFFFFFFFFFFFF DUP3 GT OR ISZERO PUSH2 0x29F JUMPI PUSH2 0x29E PUSH2 0x248 JUMP JUMPDEST JUMPDEST DUP1 PUSH1 0x40 MSTORE POP POP POP JUMP JUMPDEST PUSH1 0x0 PUSH2 0x2B2 PUSH2 0x219 JUMP JUMPDEST SWAP1 POP PUSH2 0x2BE DUP3 DUP3 PUSH2 0x277 JUMP JUMPDEST SWAP2 SWAP1 POP JUMP JUMPDEST PUSH1 0x0 PUSH8 0xFFFFFFFFFFFFFFFF DUP3 GT ISZERO PUSH2 0x2DE JUMPI PUSH2 0x2DD PUSH2 0x248 JUMP JUMPDEST JUMPDEST PUSH2 0x2E7 DUP3 PUSH2 0x237 JUMP JUMPDEST SWAP1 POP PUSH1 0x20 DUP2 ADD SWAP1 POP SWAP2 SWAP1 POP JUMP JUMPDEST DUP3 DUP2 DUP4 CALLDATACOPY PUSH1 0x0 DUP4 DUP4 ADD MSTORE POP POP POP JUMP JUMPDEST PUSH1 0x0 PUSH2 0x316 PUSH2 0x311 DUP5 PUSH2 0x2C3 JUMP JUMPDEST PUSH2 0x2A8 JUMP JUMPDEST SWAP1 POP DUP3 DUP2 MSTORE PUSH1 0x20 DUP2 ADD DUP5 DUP5 DUP5 ADD GT ISZERO PUSH2 0x332 JUMPI PUSH2 0x331 PUSH2 0x232 JUMP JUMPDEST JUMPDEST PUSH2 0x33D DUP5 DUP3 DUP6 PUSH2 0x2F4 JUMP JUMPDEST POP SWAP4 SWAP3 POP POP POP JUMP JUMPDEST PUSH1 0x0 DUP3 PUSH1 0x1F DUP4 ADD SLT PUSH2 0x35A JUMPI PUSH2 0x359 PUSH2 0x22D JUMP JUMPDEST JUMPDEST DUP2 CALLDATALOAD PUSH2 0x36A DUP5 DUP3 PUSH1 0x20 DUP7 ADD PUSH2 0x303 JUMP JUMPDEST SWAP2 POP POP SWAP3 SWAP2 POP POP JUMP JUMPDEST PUSH1 0x0 PUSH1 0x20 DUP3 DUP5 SUB SLT ISZERO PUSH2 0x389 JUMPI PUSH2 0x388 PUSH2 0x223 JUMP JUMPDEST JUMPDEST PUSH1 0x0 DUP3 ADD CALLDATALOAD PUSH8 0xFFFFFFFFFFFFFFFF DUP2 GT ISZERO PUSH2 0x3A7 JUMPI PUSH2 0x3A6 PUSH2 0x228 JUMP JUMPDEST JUMPDEST PUSH2 0x3B3 DUP5 DUP3 DUP6 ADD PUSH2 0x345 JUMP JUMPDEST SWAP2 POP POP SWAP3 SWAP2 POP POP JUMP JUMPDEST PUSH1 0x0 DUP2 SWAP1 POP SWAP2 SWAP1 POP JUMP JUMPDEST PUSH2 0x3CF DUP2 PUSH2 0x3BC JUMP JUMPDEST DUP3 MSTORE POP POP JUMP JUMPDEST PUSH1 0x0 PUSH1 0x20 DUP3 ADD SWAP1 POP PUSH2 0x3EA PUSH1 0x0 DUP4 ADD DUP5 PUSH2 0x3C6 JUMP JUMPDEST SWAP3 SWAP2 POP POP JUMP JUMPDEST PUSH2 0x3F9 DUP2 PUSH2 0x3BC JUMP JUMPDEST DUP2 EQ PUSH2 0x404 JUMPI PUSH1 0x0 DUP1 REVERT JUMPDEST POP JUMP JUMPDEST PUSH1 0x0 DUP2 CALLDATALOAD SWAP1 POP PUSH2 0x416 DUP2 PUSH2 0x3F0 JUMP JUMPDEST SWAP3 SWAP2 POP POP JUMP JUMPDEST PUSH1 0x0 DUP1 PUSH1 0x40 DUP4 DUP6 SUB SLT ISZERO PUSH2 0x433 JUMPI PUSH2 0x432 PUSH2 0x223 JUMP JUMPDEST JUMPDEST PUSH1 0x0 DUP4 ADD CALLDATALOAD PUSH8 0xFFFFFFFFFFFFFFFF DUP2 GT ISZERO PUSH2 0x451 JUMPI PUSH2 0x450 PUSH2 0x228 JUMP JUMPDEST JUMPDEST PUSH2 0x45D DUP6 DUP3 DUP7 ADD PUSH2 0x345 JUMP JUMPDEST SWAP3 POP POP PUSH1 0x20 PUSH2 0x46E DUP6 DUP3 DUP7 ADD PUSH2 0x407 JUMP JUMPDEST SWAP2 POP POP SWAP3 POP SWAP3 SWAP1 POP JUMP JUMPDEST PUSH1 0x0 DUP2 ISZERO ISZERO SWAP1 POP SWAP2 SWAP1 POP JUMP JUMPDEST PUSH2 0x48D DUP2 PUSH2 0x478 JUMP JUMPDEST DUP3 MSTORE POP POP JUMP JUMPDEST PUSH1 0x0 PUSH1 0x20 DUP3 ADD SWAP1 POP PUSH2 0x4A8 PUSH1 0x0 DUP4 ADD DUP5 PUSH2 0x484 JUMP JUMPDEST SWAP3 SWAP2 POP POP JUMP JUMPDEST PUSH1 0x0 PUSH20 0xFFFFFFFFFFFFFFFFFFFFFFFFFFFFFFFFFFFFFFFF DUP3 AND SWAP1 POP SWAP2 SWAP1 POP JUMP JUMPDEST PUSH1 0x0 PUSH2 0x4D9 DUP3 PUSH2 0x4AE JUMP JUMPDEST SWAP1 POP SWAP2 SWAP1 POP JUMP JUMPDEST PUSH2 0x4E9 DUP2 PUSH2 0x4CE JUMP JUMPDEST DUP2 EQ PUSH2 0x4F4 JUMPI PUSH1 0x0 DUP1 REVERT JUMPDEST POP JUMP JUMPDEST PUSH1 0x0 DUP2 CALLDATALOAD SWAP1 POP PUSH2 0x506 DUP2 PUSH2 0x4E0 JUMP JUMPDEST SWAP3 SWAP2 POP POP JUMP JUMPDEST PUSH1 0x0 DUP1 PUSH1 0x0 DUP1 PUSH1 0x0 PUSH1 0xA0 DUP7 DUP9 SUB SLT ISZERO PUSH2 0x528 JUMPI PUSH2 0x527 PUSH2 0x223 JUMP JUMPDEST JUMPDEST PUSH1 0x0 DUP7 ADD CALLDATALOAD PUSH8 0xFFFFFFFFFFFFFFFF DUP2 GT ISZERO PUSH2 0x546 JUMPI PUSH2 0x545 PUSH2 0x228 JUMP JUMPDEST JUMPDEST PUSH2 0x552 DUP9 DUP3 DUP10 ADD PUSH2 0x345 JUMP JUMPDEST SWAP6 POP POP PUSH1 0x20 DUP7 ADD CALLDATALOAD PUSH8 0xFFFFFFFFFFFFFFFF DUP2 GT ISZERO PUSH2 0x573 JUMPI PUSH2 0x572 PUSH2 0x228 JUMP JUMPDEST JUMPDEST PUSH2 0x57F DUP9 DUP3 DUP10 ADD PUSH2 0x345 JUMP JUMPDEST SWAP5 POP POP PUSH1 0x40 DUP7 ADD CALLDATALOAD PUSH8 0xFFFFFFFFFFFFFFFF DUP2 GT ISZERO PUSH2 0x5A0 JUMPI PUSH2 0x59F PUSH2 0x228 JUMP JUMPDEST JUMPDEST PUSH2 0x5AC DUP9 DUP3 DUP10 ADD PUSH2 0x345 JUMP JUMPDEST SWAP4 POP POP PUSH1 0x60 DUP7 ADD CALLDATALOAD PUSH8 0xFFFFFFFFFFFFFFFF DUP2 GT ISZERO PUSH2 0x5CD JUMPI PUSH2 0x5CC PUSH2 0x228 JUMP JUMPDEST JUMPDEST PUSH2 0x5D9 DUP9 DUP3 DUP10 ADD PUSH2 0x345 JUMP JUMPDEST SWAP3 POP POP PUSH1 0x80 PUSH2 0x5EA DUP9 DUP3 DUP10 ADD PUSH2 0x4F7 JUMP JUMPDEST SWAP2 POP POP SWAP3 SWAP6 POP SWAP3 SWAP6 SWAP1 SWAP4 POP JUMP JUMPDEST PUSH1 0x0 DUP2 MLOAD SWAP1 POP SWAP2 SWAP1 POP JUMP JUMPDEST PUSH1 0x0 DUP2 SWAP1 POP SWAP3 SWAP2 POP POP JUMP JUMPDEST PUSH1 0x0 JUMPDEST DUP4 DUP2 LT ISZERO PUSH2 0x62B JUMPI DUP1 DUP3 ADD MLOAD DUP2 DUP5 ADD MSTORE PUSH1 0x20 DUP2 ADD SWAP1 POP PUSH2 0x610 JUMP JUMPDEST PUSH1 0x0 DUP5 DUP5 ADD MSTORE POP POP POP POP JUMP JUMPDEST PUSH1 0x0 PUSH2 0x642 DUP3 PUSH2 0x5F7 JUMP JUMPDEST PUSH2 0x64C DUP2 DUP6 PUSH2 0x602 JUMP JUMPDEST SWAP4 POP PUSH2 0x65C DUP2 DUP6 PUSH1 0x20 DUP7 ADD PUSH2 0x60D JUMP JUMPDEST DUP1 DUP5 ADD SWAP2 POP POP SWAP3 SWAP2 POP POP JUMP JUMPDEST PUSH1 0x0 PUSH2 0x674 DUP3 DUP5 PUSH2 0x637 JUMP JUMPDEST SWAP2 POP DUP2 SWAP1 POP SWAP3 SWAP2 POP POP JUMP JUMPDEST PUSH1 0x0 DUP3 DUP3 MSTORE PUSH1 0x20 DUP3 ADD SWAP1 POP SWAP3 SWAP2 POP POP JUMP JUMPDEST PUSH32 0x5345414C5F455849535453000000000000000000000000000000000000000000 PUSH1 0x0 DUP3 ADD MSTORE POP JUMP JUMPDEST PUSH1 0x0 PUSH2 0x6C6 PUSH1 0xB DUP4 PUSH2 0x67F JUMP JUMPDEST SWAP2 POP PUSH2 0x6D1 DUP3 PUSH2 0x690 JUMP JUMPDEST PUSH1 0x20 DUP3 ADD SWAP1 POP SWAP2 SWAP1 POP JUMP JUMPDEST PUSH1 0x0 PUSH1 0x20 DUP3 ADD SWAP1 POP DUP2 DUP2 SUB PUSH1 0x0 DUP4 ADD MSTORE PUSH2 0x6F5 DUP2 PUSH2 0x6B9 JUMP JUMPDEST SWAP1 POP SWAP2 SWAP1 POP JUMP JUMPDEST PUSH1 0x0 DUP2 PUSH1 0x60 SHL SWAP1 POP SWAP2 SWAP1 POP JUMP JUMPDEST PUSH1 0x0 PUSH2 0x714 DUP3 PUSH2 0x6FC JUMP JUMPDEST SWAP1 POP SWAP2 SWAP1 POP JUMP JUMPDEST PUSH1 0x0 PUSH2 0x726 DUP3 PUSH2 0x709 JUMP JUMPDEST SWAP1 POP SWAP2 SWAP1 POP JUMP JUMPDEST PUSH2 0x73E PUSH2 0x739 DUP3 PUSH2 0x4CE JUMP JUMPDEST PUSH2 0x71B JUMP JUMPDEST DUP3 MSTORE POP POP JUMP JUMPDEST PUSH1 0x0 DUP2 SWAP1 POP SWAP2 SWAP1 POP JUMP JUMPDEST PUSH1 0x0 DUP2 SWAP1 POP SWAP2 SWAP1 POP JUMP JUMPDEST PUSH2 0x769 PUSH2 0x764 DUP3 PUSH2 0x744 JUMP JUMPDEST PUSH2 0x74E JUMP JUMPDEST DUP3 MSTORE POP POP JUMP JUMPDEST PUSH1 0x0 PUSH2 0x77B DUP3 DUP11 PUSH2 0x637 JUMP JUMPDEST SWAP2 POP PUSH2 0x787 DUP3 DUP10 PUSH2 0x637 JUMP JUMPDEST SWAP2 POP PUSH2 0x793 DUP3 DUP9 PUSH2 0x637 JUMP JUMPDEST SWAP2 POP PUSH2 0x79F DUP3 DUP8 PUSH2 0x637 JUMP JUMPDEST SWAP2 POP PUSH2 0x7AB DUP3 DUP7 PUSH2 0x72D JUMP JUMPDEST PUSH1 0x14 DUP3 ADD SWAP2 POP PUSH2 0x7BB DUP3 DUP6 PUSH2 0x758 JUMP JUMPDEST PUSH1 0x20 DUP3 ADD SWAP2 POP PUSH2 0x7CB DUP3 DUP5 PUSH2 0x758 JUMP JUMPDEST PUSH1 0x20 DUP3 ADD SWAP2 POP DUP2 SWAP1 POP SWAP9 SWAP8 POP POP POP POP POP POP POP POP JUMP JUMPDEST PUSH1 0x0 PUSH2 0x7EB DUP3 PUSH2 0x5F7 JUMP JUMPDEST PUSH2 0x7F5 DUP2 DUP6 PUSH2 0x67F JUMP JUMPDEST SWAP4 POP PUSH2 0x805 DUP2 DUP6 PUSH1 0x20 DUP7 ADD PUSH2 0x60D JUMP JUMPDEST PUSH2 0x80E DUP2 PUSH2 0x237 JUMP JUMPDEST DUP5 ADD SWAP2 POP POP SWAP3 SWAP2 POP POP JUMP JUMPDEST PUSH1 0x0 PUSH1 0x40 DUP3 ADD SWAP1 POP DUP2 DUP2 SUB PUSH1 0x0 DUP4 ADD MSTORE PUSH2 0x833 DUP2 DUP6 PUSH2 0x7E0 JUMP JUMPDEST SWAP1 POP PUSH2 0x842 PUSH1 0x20 DUP4 ADD DUP5 PUSH2 0x3C6 JUMP JUMPDEST SWAP4 SWAP3 POP POP POP JUMP INVALID LOG2 PUSH5 0x6970667358 0x22 SLT KECCAK256 LOG0 0xD3 0xF7 0xE7 SDIV XOR DUP10 PUSH1 0x20 0xC7 AND 0xF8 GAS 0xCA PC 0x26 DUP9 RETURN CALLDATACOPY 0xE9 SSTORE CALLDATASIZE DUP2 PUSH30 0xC407590BBB77D15264736F6C634300081800330000000000000000000000 "},"methodIdentifiers":{"createSeal(string,string,string,string,address)":"caeda9d3","seals(string)":"16c6981e","verifySeal(string,bytes32)":"462297a2"}}}}}