{"contracts/TaaSShield.sol":{"TaaSShield":{"abi":[{"inputs":[{"internalType":"address","name":"_core","type":"address"}],"stateMutability":"nonpayable","type":"constructor"},{"anonymous":false,"inputs":[{"indexed":false,"internalType":"string","name":"gpid","type":"string"},{"indexed":false,"internalType":"string","name":"reason","type":"string"}],"name":"ProductFlagged","type":"event"},{"anonymous":false,"inputs":[{"indexed":false,"internalType":"string","name":"gpid","type":"string"}],"name":"ProductFrozen","type":"event"},{"anonymous":false,"inputs":[{"indexed":false,"internalType":"string","name":"gpid","type":"string"}],"name":"ProductUnfrozen","type":"event"},{"inputs":[],"name":"core","outputs":[{"internalType":"address","name":"","type":"address"}],"stateMutability":"view","type":"function"},{"inputs":[{"internalType":"string","name":"gpid","type":"string"},{"internalType":"string","name":"reason","type":"string"}],"name":"flag","outputs":[],"stateMutability":"nonpayable","type":"function"},{"inputs":[{"internalType":"string","name":"","type":"string"}],"name":"flagged","outputs":[{"internalType":"bool","name":"","type":"bool"}],"stateMutability":"view","type":"function"},{"inputs":[{"internalType":"string","name":"gpid","type":"string"}],"name":"freeze","outputs":[],"stateMutability":"nonpayable","type":"function"},{"inputs":[{"internalType":"string","name":"","type":"string"}],"name":"frozen","outputs":[{"internalType":"bool","name":"","type":"bool"}],"stateMutability":"view","type":"function"},{"inputs":[{"internalType":"string","name":"gpid","type":"string"}],"name":"status","outputs":[{"internalType":"bool","name":"isFrozen","type":"bool"},{"internalType":"bool","name":"isFlagged","type":"bool"}],"stateMutability":"view","type":"function"},{"inputs":[{"internalType":"string","name":"gpid","type":"string"}],"name":"unfreeze","outputs":[],"stateMutability":"nonpayable","type":"function"}],"evm":{"bytecode":{"linkReferences":{},"object":"60a060405234801561001057600080fd5b50604051610cde380380610cde83398101604081905261002f91610089565b6001600160a01b0381166100785760405162461bcd60e51b815260206004820152600c60248201526b494e56414c49445f434f524560a01b604482015260640160405180910390fd5b6001600160a01b03166080526100b9565b60006020828403121561009b57600080fd5b81516001600160a01b03811681146100b257600080fd5b9392505050565b608051610be06100fe6000396000818161015d015281816101b001528181610265015281816103a20152818161044e0152818161058801526106340152610be06000f3fe608060405234801561001057600080fd5b506004361061007d5760003560e01c8063dcc5833c1161005b578063dcc5833c14610108578063e6a86fb01461011b578063e8ca64f41461012e578063f2f4eb261461015857600080fd5b806350cf0ec1146100825780636b2593c914610097578063bcce1005146100da575b600080fd5b610095610090366004610861565b610197565b005b6100c56100a53660046108c5565b805160208183018101805160008252928201919093012091525460ff1681565b60405190151581526020015b60405180910390f35b6100c56100e83660046108c5565b805160208183018101805160018252928201919093012091525460ff1681565b6100956101163660046108c5565b610389565b6100956101293660046108c5565b61056f565b61014161013c3660046108c5565b610749565b6040805192151583529015156020830152016100d1565b61017f7f000000000000000000000000000000000000000000000000000000000000000081565b6040516001600160a01b0390911681526020016100d1565b604051638addc05160e01b815282906001600160a01b037f00000000000000000000000000000000000000000000000000000000000000001690638addc051906101e5908490600401610952565b602060405180830381865afa158015610202573d6000803e3d6000fd5b505050506040513d601f19601f82011682018060405250810190610226919061096c565b61024b5760405162461bcd60e51b81526004016102429061098e565b60405180910390fd5b6040516334088e6760e11b81526000906001600160a01b037f000000000000000000000000000000000000000000000000000000000000000016906368111cce9061029a908790600401610952565b600060405180830381865afa1580156102b7573d6000803e3d6000fd5b505050506040513d6000823e601f3d908101601f191682016040526102df9190810190610a1a565b50975050505050505050806001600160a01b0316336001600160a01b03161461031a5760405162461bcd60e51b815260040161024290610b3c565b6001808560405161032b9190610b60565b908152604051908190036020018120805492151560ff19909316929092179091557f0c9f030b2be596215c023740de270928a0b1ff4314c505638ca64ea7158442979061037b9086908690610b7c565b60405180910390a150505050565b604051638addc05160e01b815281906001600160a01b037f00000000000000000000000000000000000000000000000000000000000000001690638addc051906103d7908490600401610952565b602060405180830381865afa1580156103f4573d6000803e3d6000fd5b505050506040513d601f19601f82011682018060405250810190610418919061096c565b6104345760405162461bcd60e51b81526004016102429061098e565b6040516334088e6760e11b81526000906001600160a01b037f000000000000000000000000000000000000000000000000000000000000000016906368111cce90610483908690600401610952565b600060405180830381865afa1580156104a0573d6000803e3d6000fd5b505050506040513d6000823e601f3d908101601f191682016040526104c89190810190610a1a565b50975050505050505050806001600160a01b0316336001600160a01b0316146105035760405162461bcd60e51b815260040161024290610b3c565b600080846040516105149190610b60565b908152604051908190036020018120805492151560ff19909316929092179091557f88ee7dc2dbfb14acb0bc95b3c2c4413a9bf5ef31e2293a9e14fed7a27b95c9fe90610562908590610952565b60405180910390a1505050565b604051638addc05160e01b815281906001600160a01b037f00000000000000000000000000000000000000000000000000000000000000001690638addc051906105bd908490600401610952565b602060405180830381865afa1580156105da573d6000803e3d6000fd5b505050506040513d601f19601f820116820180604052508101906105fe919061096c565b61061a5760405162461bcd60e51b81526004016102429061098e565b6040516334088e6760e11b81526000906001600160a01b037f000000000000000000000000000000000000000000000000000000000000000016906368111cce90610669908690600401610952565b600060405180830381865afa158015610686573d6000803e3d6000fd5b505050506040513d6000823e601f3d908101601f191682016040526106ae9190810190610a1a565b50975050505050505050806001600160a01b0316336001600160a01b0316146106e95760405162461bcd60e51b815260040161024290610b3c565b60016000846040516106fb9190610b60565b908152604051908190036020018120805492151560ff19909316929092179091557f432996437569244cf0e89a716f6d3c5094f854475de86fe0cae2ccf77e871e5190610562908590610952565b60008060008360405161075c9190610b60565b9081526040519081900360200181205460ff169060019061077e908690610b60565b90815260405190819003602001902054909460ff9091169350915050565b634e487b7160e01b600052604160045260246000fd5b604051601f8201601f1916810167ffffffffffffffff811182821017156107db576107db61079c565b604052919050565b600067ffffffffffffffff8211156107fd576107fd61079c565b50601f01601f191660200190565b600082601f83011261081c57600080fd5b813561082f61082a826107e3565b6107b2565b81815284602083860101111561084457600080fd5b816020850160208301376000918101602001919091529392505050565b6000806040838503121561087457600080fd5b823567ffffffffffffffff8082111561088c57600080fd5b6108988683870161080b565b935060208501359150808211156108ae57600080fd5b506108bb8582860161080b565b9150509250929050565b6000602082840312156108d757600080fd5b813567ffffffffffffffff8111156108ee57600080fd5b6108fa8482850161080b565b949350505050565b60005b8381101561091d578181015183820152602001610905565b50506000910152565b6000815180845261093e816020860160208601610902565b601f01601f19169290920160200192915050565b6020815260006109656020830184610926565b9392505050565b60006020828403121561097e57600080fd5b8151801515811461096557600080fd5b602080825260119082015270141493d11550d517d393d517d193d55391607a1b604082015260600190565b600082601f8301126109ca57600080fd5b81516109d861082a826107e3565b8181528460208386010111156109ed57600080fd5b6108fa826020830160208701610902565b80516001600160a01b0381168114610a1557600080fd5b919050565b60008060008060008060008060006101208a8c031215610a3957600080fd5b895167ffffffffffffffff80821115610a5157600080fd5b610a5d8d838e016109b9565b9a5060208c0151915080821115610a7357600080fd5b610a7f8d838e016109b9565b995060408c0151915080821115610a9557600080fd5b610aa18d838e016109b9565b985060608c0151915080821115610ab757600080fd5b610ac38d838e016109b9565b975060808c0151915080821115610ad957600080fd5b610ae58d838e016109b9565b965060a08c0151915080821115610afb57600080fd5b50610b088c828d016109b9565b94505060c08a01519250610b1e60e08b016109fe565b9150610b2d6101008b016109fe565b90509295985092959850929598565b6020808252600a90820152692727aa2fa4a9a9aaa2a960b11b604082015260600190565b60008251610b72818460208701610902565b9190910192915050565b604081526000610b8f6040830185610926565b8281036020840152610ba18185610926565b9594505050505056fea26469706673582212204349898824136ef035e4dd6ec133d9092a3562beffcc2b48e901515eab3654f564736f6c63430008180033","opcodes":"PUSH1 0xA0 PUSH1 0x40 MSTORE CALLVALUE DUP1 ISZERO PUSH2 0x10 JUMPI PUSH1 0x0 DUP1 REVERT JUMPDEST POP PUSH1 0x40 MLOAD PUSH2 0xCDE CODESIZE SUB DUP1 PUSH2 0xCDE DUP4 CODECOPY DUP2 ADD PUSH1 0x40 DUP2 SWAP1 MSTORE PUSH2 0x2F SWAP2 PUSH2 0x89 JUMP JUMPDEST PUSH1 0x1 PUSH1 0x1 PUSH1 0xA0 SHL SUB DUP2 AND PUSH2 0x78 JUMPI PUSH1 0x40 MLOAD PUSH3 0x461BCD PUSH1 0xE5 SHL DUP2 MSTORE PUSH1 0x20 PUSH1 0x4 DUP3 ADD MSTORE PUSH1 0xC PUSH1 0x24 DUP3 ADD MSTORE PUSH12 0x494E56414C49445F434F5245 PUSH1 0xA0 SHL PUSH1 0x44 DUP3 ADD MSTORE PUSH1 0x64 ADD PUSH1 0x40 MLOAD DUP1 SWAP2 SUB SWAP1 REVERT JUMPDEST PUSH1 0x1 PUSH1 0x1 PUSH1 0xA0 SHL SUB AND PUSH1 0x80 MSTORE PUSH2 0xB9 JUMP JUMPDEST PUSH1 0x0 PUSH1 0x20 DUP3 DUP5 SUB SLT ISZERO PUSH2 0x9B JUMPI PUSH1 0x0 DUP1 REVERT JUMPDEST DUP2 MLOAD PUSH1 0x1 PUSH1 0x1 PUSH1 0xA0 SHL SUB DUP2 AND DUP2 EQ PUSH2 0xB2 JUMPI PUSH1 0x0 DUP1 REVERT JUMPDEST SWAP4 SWAP3 POP POP POP JUMP JUMPDEST PUSH1 0x80 MLOAD PUSH2 0xBE0 PUSH2 0xFE PUSH1 0x0 CODECOPY PUSH1 0x0 DUP2 DUP2 PUSH2 0x15D ADD MSTORE DUP2 DUP2 PUSH2 0x1B0 ADD MSTORE DUP2 DUP2 PUSH2 0x265 ADD MSTORE DUP2 DUP2 PUSH2 0x3A2 ADD MSTORE DUP2 DUP2 PUSH2 0x44E ADD MSTORE DUP2 DUP2 PUSH2 0x588 ADD MSTORE PUSH2 0x634 ADD MSTORE PUSH2 0xBE0 PUSH1 0x0 RETURN INVALID PUSH1 0x80 PUSH1 0x40 MSTORE CALLVALUE DUP1 ISZERO PUSH2 0x10 JUMPI PUSH1 0x0 DUP1 REVERT JUMPDEST POP PUSH1 0x4 CALLDATASIZE LT PUSH2 0x7D JUMPI PUSH1 0x0 CALLDATALOAD PUSH1 0xE0 SHR DUP1 PUSH4 0xDCC5833C GT PUSH2 0x5B JUMPI DUP1 PUSH4 0xDCC5833C EQ PUSH2 0x108 JUMPI DUP1 PUSH4 0xE6A86FB0 EQ PUSH2 0x11B JUMPI DUP1 PUSH4 0xE8CA64F4 EQ PUSH2 0x12E JUMPI DUP1 PUSH4 0xF2F4EB26 EQ PUSH2 0x158 JUMPI PUSH1 0x0 DUP1 REVERT JUMPDEST DUP1 PUSH4 0x50CF0EC1 EQ PUSH2 0x82 JUMPI DUP1 PUSH4 0x6B2593C9 EQ PUSH2 0x97 JUMPI DUP1 PUSH4 0xBCCE1005 EQ PUSH2 0xDA JUMPI JUMPDEST PUSH1 0x0 DUP1 REVERT JUMPDEST PUSH2 0x95 PUSH2 0x90 CALLDATASIZE PUSH1 0x4 PUSH2 0x861 JUMP JUMPDEST PUSH2 0x197 JUMP JUMPDEST STOP JUMPDEST PUSH2 0xC5 PUSH2 0xA5 CALLDATASIZE PUSH1 0x4 PUSH2 0x8C5 JUMP JUMPDEST DUP1 MLOAD PUSH1 0x20 DUP2 DUP4 ADD DUP2 ADD DUP1 MLOAD PUSH1 0x0 DUP3 MSTORE SWAP3 DUP3 ADD SWAP2 SWAP1 SWAP4 ADD KECCAK256 SWAP2 MSTORE SLOAD PUSH1 0xFF AND DUP2 JUMP JUMPDEST PUSH1 0x40 MLOAD SWAP1 ISZERO ISZERO DUP2 MSTORE PUSH1 0x20 ADD JUMPDEST PUSH1 0x40 MLOAD DUP1 SWAP2 SUB SWAP1 RETURN JUMPDEST PUSH2 0xC5 PUSH2 0xE8 CALLDATASIZE PUSH1 0x4 PUSH2 0x8C5 JUMP JUMPDEST DUP1 MLOAD PUSH1 0x20 DUP2 DUP4 ADD DUP2 ADD DUP1 MLOAD PUSH1 0x1 DUP3 MSTORE SWAP3 DUP3 ADD SWAP2 SWAP1 SWAP4 ADD KECCAK256 SWAP2 MSTORE SLOAD PUSH1 0xFF AND DUP2 JUMP JUMPDEST PUSH2 0x95 PUSH2 0x116 CALLDATASIZE PUSH1 0x4 PUSH2 0x8C5 JUMP JUMPDEST PUSH2 0x389 JUMP JUMPDEST PUSH2 0x95 PUSH2 0x129 CALLDATASIZE PUSH1 0x4 PUSH2 0x8C5 JUMP JUMPDEST PUSH2 0x56F JUMP JUMPDEST PUSH2 0x141 PUSH2 0x13C CALLDATASIZE PUSH1 0x4 PUSH2 0x8C5 JUMP JUMPDEST PUSH2 0x749 JUMP JUMPDEST PUSH1 0x40 DUP1 MLOAD SWAP3 ISZERO ISZERO DUP4 MSTORE SWAP1 ISZERO ISZERO PUSH1 0x20 DUP4 ADD MSTORE ADD PUSH2 0xD1 JUMP JUMPDEST PUSH2 0x17F PUSH32 0x0 DUP2 JUMP JUMPDEST PUSH1 0x40 MLOAD PUSH1 0x1 PUSH1 0x1 PUSH1 0xA0 SHL SUB SWAP1 SWAP2 AND DUP2 MSTORE PUSH1 0x20 ADD PUSH2 0xD1 JUMP JUMPDEST PUSH1 0x40 MLOAD PUSH4 0x8ADDC051 PUSH1 0xE0 SHL DUP2 MSTORE DUP3 SWAP1 PUSH1 0x1 PUSH1 0x1 PUSH1 0xA0 SHL SUB PUSH32 0x0 AND SWAP1 PUSH4 0x8ADDC051 SWAP1 PUSH2 0x1E5 SWAP1 DUP5 SWAP1 PUSH1 0x4 ADD PUSH2 0x952 JUMP JUMPDEST PUSH1 0x20 PUSH1 0x40 MLOAD DUP1 DUP4 SUB DUP2 DUP7 GAS STATICCALL ISZERO DUP1 ISZERO PUSH2 0x202 JUMPI RETURNDATASIZE PUSH1 0x0 DUP1 RETURNDATACOPY RETURNDATASIZE PUSH1 0x0 REVERT JUMPDEST POP POP POP POP PUSH1 0x40 MLOAD RETURNDATASIZE PUSH1 0x1F NOT PUSH1 0x1F DUP3 ADD AND DUP3 ADD DUP1 PUSH1 0x40 MSTORE POP DUP2 ADD SWAP1 PUSH2 0x226 SWAP2 SWAP1 PUSH2 0x96C JUMP JUMPDEST PUSH2 0x24B JUMPI PUSH1 0x40 MLOAD PUSH3 0x461BCD PUSH1 0xE5 SHL DUP2 MSTORE PUSH1 0x4 ADD PUSH2 0x242 SWAP1 PUSH2 0x98E JUMP JUMPDEST PUSH1 0x40 MLOAD DUP1 SWAP2 SUB SWAP1 REVERT JUMPDEST PUSH1 0x40 MLOAD PUSH4 0x34088E67 PUSH1 0xE1 SHL DUP2 MSTORE PUSH1 0x0 SWAP1 PUSH1 0x1 PUSH1 0x1 PUSH1 0xA0 SHL SUB PUSH32 0x0 AND SWAP1 PUSH4 0x68111CCE SWAP1 PUSH2 0x29A SWAP1 DUP8 SWAP1 PUSH1 0x4 ADD PUSH2 0x952 JUMP JUMPDEST PUSH1 0x0 PUSH1 0x40 MLOAD DUP1 DUP4 SUB DUP2 DUP7 GAS STATICCALL ISZERO DUP1 ISZERO PUSH2 0x2B7 JUMPI RETURNDATASIZE PUSH1 0x0 DUP1 RETURNDATACOPY RETURNDATASIZE PUSH1 0x0 REVERT JUMPDEST POP POP POP POP PUSH1 0x40 MLOAD RETURNDATASIZE PUSH1 0x0 DUP3 RETURNDATACOPY PUSH1 0x1F RETURNDATASIZE SWAP1 DUP2 ADD PUSH1 0x1F NOT AND DUP3 ADD PUSH1 0x40 MSTORE PUSH2 0x2DF SWAP2 SWAP1 DUP2 ADD SWAP1 PUSH2 0xA1A JUMP JUMPDEST POP SWAP8 POP POP POP POP POP POP POP POP DUP1 PUSH1 0x1 PUSH1 0x1 PUSH1 0xA0 SHL SUB AND CALLER PUSH1 0x1 PUSH1 0x1 PUSH1 0xA0 SHL SUB AND EQ PUSH2 0x31A JUMPI PUSH1 0x40 MLOAD PUSH3 0x461BCD PUSH1 0xE5 SHL DUP2 MSTORE PUSH1 0x4 ADD PUSH2 0x242 SWAP1 PUSH2 0xB3C JUMP JUMPDEST PUSH1 0x1 DUP1 DUP6 PUSH1 0x40 MLOAD PUSH2 0x32B SWAP2 SWAP1 PUSH2 0xB60 JUMP JUMPDEST SWAP1 DUP2 MSTORE PUSH1 0x40 MLOAD SWAP1 DUP2 SWAP1 SUB PUSH1 0x20 ADD DUP2 KECCAK256 DUP1 SLOAD SWAP3 ISZERO ISZERO PUSH1 0xFF NOT SWAP1 SWAP4 AND SWAP3 SWAP1 SWAP3 OR SWAP1 SWAP2 SSTORE PUSH32 0xC9F030B2BE596215C023740DE270928A0B1FF4314C505638CA64EA715844297 SWAP1 PUSH2 0x37B SWAP1 DUP7 SWAP1 DUP7 SWAP1 PUSH2 0xB7C JUMP JUMPDEST PUSH1 0x40 MLOAD DUP1 SWAP2 SUB SWAP1 LOG1 POP POP POP POP JUMP JUMPDEST PUSH1 0x40 MLOAD PUSH4 0x8ADDC051 PUSH1 0xE0 SHL DUP2 MSTORE DUP2 SWAP1 PUSH1 0x1 PUSH1 0x1 PUSH1 0xA0 SHL SUB PUSH32 0x0 AND SWAP1 PUSH4 0x8ADDC051 SWAP1 PUSH2 0x3D7 SWAP1 DUP5 SWAP1 PUSH1 0x4 ADD PUSH2 0x952 JUMP JUMPDEST PUSH1 0x20 PUSH1 0x40 MLOAD DUP1 DUP4 SUB DUP2 DUP7 GAS STATICCALL ISZERO DUP1 ISZERO PUSH2 0x3F4 JUMPI RETURNDATASIZE PUSH1 0x0 DUP1 RETURNDATACOPY RETURNDATASIZE PUSH1 0x0 REVERT JUMPDEST POP POP POP POP PUSH1 0x40 MLOAD RETURNDATASIZE PUSH1 0x1F NOT PUSH1 0x1F DUP3 ADD AND DUP3 ADD DUP1 PUSH1 0x40 MSTORE POP DUP2 ADD SWAP1 PUSH2 0x418 SWAP2 SWAP1 PUSH2 0x96C JUMP JUMPDEST PUSH2 0x434 JUMPI PUSH1 0x40 MLOAD PUSH3 0x461BCD PUSH1 0xE5 SHL DUP2 MSTORE PUSH1 0x4 ADD PUSH2 0x242 SWAP1 PUSH2 0x98E JUMP JUMPDEST PUSH1 0x40 MLOAD PUSH4 0x34088E67 PUSH1 0xE1 SHL DUP2 MSTORE PUSH1 0x0 SWAP1 PUSH1 0x1 PUSH1 0x1 PUSH1 0xA0 SHL SUB PUSH32 0x0 AND SWAP1 PUSH4 0x68111CCE SWAP1 PUSH2 0x483 SWAP1 DUP7 SWAP1 PUSH1 0x4 ADD PUSH2 0x952 JUMP JUMPDEST PUSH1 0x0 PUSH1 0x40 MLOAD DUP1 DUP4 SUB DUP2 DUP7 GAS STATICCALL ISZERO DUP1 ISZERO PUSH2 0x4A0 JUMPI RETURNDATASIZE PUSH1 0x0 DUP1 RETURNDATACOPY RETURNDATASIZE PUSH1 0x0 REVERT JUMPDEST POP POP POP POP PUSH1 0x40 MLOAD RETURNDATASIZE PUSH1 0x0 DUP3 RETURNDATACOPY PUSH1 0x1F RETURNDATASIZE SWAP1 DUP2 ADD PUSH1 0x1F NOT AND DUP3 ADD PUSH1 0x40 MSTORE PUSH2 0x4C8 SWAP2 SWAP1 DUP2 ADD SWAP1 PUSH2 0xA1A JUMP JUMPDEST POP SWAP8 POP POP POP POP POP POP POP POP DUP1 PUSH1 0x1 PUSH1 0x1 PUSH1 0xA0 SHL SUB AND CALLER PUSH1 0x1 PUSH1 0x1 PUSH1 0xA0 SHL SUB AND EQ PUSH2 0x503 JUMPI PUSH1 0x40 MLOAD PUSH3 0x461BCD PUSH1 0xE5 SHL DUP2 MSTORE PUSH1 0x4 ADD PUSH2 0x242 SWAP1 PUSH2 0xB3C JUMP JUMPDEST PUSH1 0x0 DUP1 DUP5 PUSH1 0x40 MLOAD PUSH2 0x514 SWAP2 SWAP1 PUSH2 0xB60 JUMP JUMPDEST SWAP1 DUP2 MSTORE PUSH1 0x40 MLOAD SWAP1 DUP2 SWAP1 SUB PUSH1 0x20 ADD DUP2 KECCAK256 DUP1 SLOAD SWAP3 ISZERO ISZERO PUSH1 0xFF NOT SWAP1 SWAP4 AND SWAP3 SWAP1 SWAP3 OR SWAP1 SWAP2 SSTORE PUSH32 0x88EE7DC2DBFB14ACB0BC95B3C2C4413A9BF5EF31E2293A9E14FED7A27B95C9FE SWAP1 PUSH2 0x562 SWAP1 DUP6 SWAP1 PUSH2 0x952 JUMP JUMPDEST PUSH1 0x40 MLOAD DUP1 SWAP2 SUB SWAP1 LOG1 POP POP POP JUMP JUMPDEST PUSH1 0x40 MLOAD PUSH4 0x8ADDC051 PUSH1 0xE0 SHL DUP2 MSTORE DUP2 SWAP1 PUSH1 0x1 PUSH1 0x1 PUSH1 0xA0 SHL SUB PUSH32 0x0 AND SWAP1 PUSH4 0x8ADDC051 SWAP1 PUSH2 0x5BD SWAP1 DUP5 SWAP1 PUSH1 0x4 ADD PUSH2 0x952 JUMP JUMPDEST PUSH1 0x20 PUSH1 0x40 MLOAD DUP1 DUP4 SUB DUP2 DUP7 GAS STATICCALL ISZERO DUP1 ISZERO PUSH2 0x5DA JUMPI RETURNDATASIZE PUSH1 0x0 DUP1 RETURNDATACOPY RETURNDATASIZE PUSH1 0x0 REVERT JUMPDEST POP POP POP POP PUSH1 0x40 MLOAD RETURNDATASIZE PUSH1 0x1F NOT PUSH1 0x1F DUP3 ADD AND DUP3 ADD DUP1 PUSH1 0x40 MSTORE POP DUP2 ADD SWAP1 PUSH2 0x5FE SWAP2 SWAP1 PUSH2 0x96C JUMP JUMPDEST PUSH2 0x61A JUMPI PUSH1 0x40 MLOAD PUSH3 0x461BCD PUSH1 0xE5 SHL DUP2 MSTORE PUSH1 0x4 ADD PUSH2 0x242 SWAP1 PUSH2 0x98E JUMP JUMPDEST PUSH1 0x40 MLOAD PUSH4 0x34088E67 PUSH1 0xE1 SHL DUP2 MSTORE PUSH1 0x0 SWAP1 PUSH1 0x1 PUSH1 0x1 PUSH1 0xA0 SHL SUB PUSH32 0x0 AND SWAP1 PUSH4 0x68111CCE SWAP1 PUSH2 0x669 SWAP1 DUP7 SWAP1 PUSH1 0x4 ADD PUSH2 0x952 JUMP JUMPDEST PUSH1 0x0 PUSH1 0x40 MLOAD DUP1 DUP4 SUB DUP2 DUP7 GAS STATICCALL ISZERO DUP1 ISZERO PUSH2 0x686 JUMPI RETURNDATASIZE PUSH1 0x0 DUP1 RETURNDATACOPY RETURNDATASIZE PUSH1 0x0 REVERT JUMPDEST POP POP POP POP PUSH1 0x40 MLOAD RETURNDATASIZE PUSH1 0x0 DUP3 RETURNDATACOPY PUSH1 0x1F RETURNDATASIZE SWAP1 DUP2 ADD PUSH1 0x1F NOT AND DUP3 ADD PUSH1 0x40 MSTORE PUSH2 0x6AE SWAP2 SWAP1 DUP2 ADD SWAP1 PUSH2 0xA1A JUMP JUMPDEST POP SWAP8 POP POP POP POP POP POP POP POP DUP1 PUSH1 0x1 PUSH1 0x1 PUSH1 0xA0 SHL SUB AND CALLER PUSH1 0x1 PUSH1 0x1 PUSH1 0xA0 SHL SUB AND EQ PUSH2 0x6E9 JUMPI PUSH1 0x40 MLOAD PUSH3 0x461BCD PUSH1 0xE5 SHL DUP2 MSTORE PUSH1 0x4 ADD PUSH2 0x242 SWAP1 PUSH2 0xB3C JUMP JUMPDEST PUSH1 0x1 PUSH1 0x0 DUP5 PUSH1 0x40 MLOAD PUSH2 0x6FB SWAP2 SWAP1 PUSH2 0xB60 JUMP JUMPDEST SWAP1 DUP2 MSTORE PUSH1 0x40 MLOAD SWAP1 DUP2 SWAP1 SUB PUSH1 0x20 ADD DUP2 KECCAK256 DUP1 SLOAD SWAP3 ISZERO ISZERO PUSH1 0xFF NOT SWAP1 SWAP4 AND SWAP3 SWAP1 SWAP3 OR SWAP1 SWAP2 SSTORE PUSH32 0x432996437569244CF0E89A716F6D3C5094F854475DE86FE0CAE2CCF77E871E51 SWAP1 PUSH2 0x562 SWAP1 DUP6 SWAP1 PUSH2 0x952 JUMP JUMPDEST PUSH1 0x0 DUP1 PUSH1 0x0 DUP4 PUSH1 0x40 MLOAD PUSH2 0x75C SWAP2 SWAP1 PUSH2 0xB60 JUMP JUMPDEST SWAP1 DUP2 MSTORE PUSH1 0x40 MLOAD SWAP1 DUP2 SWAP1 SUB PUSH1 0x20 ADD DUP2 KECCAK256 SLOAD PUSH1 0xFF AND SWAP1 PUSH1 0x1 SWAP1 PUSH2 0x77E SWAP1 DUP7 SWAP1 PUSH2 0xB60 JUMP JUMPDEST SWAP1 DUP2 MSTORE PUSH1 0x40 MLOAD SWAP1 DUP2 SWAP1 SUB PUSH1 0x20 ADD SWAP1 KECCAK256 SLOAD SWAP1 SWAP5 PUSH1 0xFF SWAP1 SWAP2 AND SWAP4 POP SWAP2 POP POP JUMP JUMPDEST PUSH4 0x4E487B71 PUSH1 0xE0 SHL PUSH1 0x0 MSTORE PUSH1 0x41 PUSH1 0x4 MSTORE PUSH1 0x24 PUSH1 0x0 REVERT JUMPDEST PUSH1 0x40 MLOAD PUSH1 0x1F DUP3 ADD PUSH1 0x1F NOT AND DUP2 ADD PUSH8 0xFFFFFFFFFFFFFFFF DUP2 GT DUP3 DUP3 LT OR ISZERO PUSH2 0x7DB JUMPI PUSH2 0x7DB PUSH2 0x79C JUMP JUMPDEST PUSH1 0x40 MSTORE SWAP2 SWAP1 POP JUMP JUMPDEST PUSH1 0x0 PUSH8 0xFFFFFFFFFFFFFFFF DUP3 GT ISZERO PUSH2 0x7FD JUMPI PUSH2 0x7FD PUSH2 0x79C JUMP JUMPDEST POP PUSH1 0x1F ADD PUSH1 0x1F NOT AND PUSH1 0x20 ADD SWAP1 JUMP JUMPDEST PUSH1 0x0 DUP3 PUSH1 0x1F DUP4 ADD SLT PUSH2 0x81C JUMPI PUSH1 0x0 DUP1 REVERT JUMPDEST DUP2 CALLDATALOAD PUSH2 0x82F PUSH2 0x82A DUP3 PUSH2 0x7E3 JUMP JUMPDEST PUSH2 0x7B2 JUMP JUMPDEST DUP2 DUP2 MSTORE DUP5 PUSH1 0x20 DUP4 DUP7 ADD ADD GT ISZERO PUSH2 0x844 JUMPI PUSH1 0x0 DUP1 REVERT JUMPDEST DUP2 PUSH1 0x20 DUP6 ADD PUSH1 0x20 DUP4 ADD CALLDATACOPY PUSH1 0x0 SWAP2 DUP2 ADD PUSH1 0x20 ADD SWAP2 SWAP1 SWAP2 MSTORE SWAP4 SWAP3 POP POP POP JUMP JUMPDEST PUSH1 0x0 DUP1 PUSH1 0x40 DUP4 DUP6 SUB SLT ISZERO PUSH2 0x874 JUMPI PUSH1 0x0 DUP1 REVERT JUMPDEST DUP3 CALLDATALOAD PUSH8 0xFFFFFFFFFFFFFFFF DUP1 DUP3 GT ISZERO PUSH2 0x88C JUMPI PUSH1 0x0 DUP1 REVERT JUMPDEST PUSH2 0x898 DUP7 DUP4 DUP8 ADD PUSH2 0x80B JUMP JUMPDEST SWAP4 POP PUSH1 0x20 DUP6 ADD CALLDATALOAD SWAP2 POP DUP1 DUP3 GT ISZERO PUSH2 0x8AE JUMPI PUSH1 0x0 DUP1 REVERT JUMPDEST POP PUSH2 0x8BB DUP6 DUP3 DUP7 ADD PUSH2 0x80B JUMP JUMPDEST SWAP2 POP POP SWAP3 POP SWAP3 SWAP1 POP JUMP JUMPDEST PUSH1 0x0 PUSH1 0x20 DUP3 DUP5 SUB SLT ISZERO PUSH2 0x8D7 JUMPI PUSH1 0x0 DUP1 REVERT JUMPDEST DUP2 CALLDATALOAD PUSH8 0xFFFFFFFFFFFFFFFF DUP2 GT ISZERO PUSH2 0x8EE JUMPI PUSH1 0x0 DUP1 REVERT JUMPDEST PUSH2 0x8FA DUP5 DUP3 DUP6 ADD PUSH2 0x80B JUMP JUMPDEST SWAP5 SWAP4 POP POP POP POP JUMP JUMPDEST PUSH1 0x0 JUMPDEST DUP4 DUP2 LT ISZERO PUSH2 0x91D JUMPI DUP2 DUP2 ADD MLOAD DUP4 DUP3 ADD MSTORE PUSH1 0x20 ADD PUSH2 0x905 JUMP JUMPDEST POP POP PUSH1 0x0 SWAP2 ADD MSTORE JUMP JUMPDEST PUSH1 0x0 DUP2 MLOAD DUP1 DUP5 MSTORE PUSH2 0x93E DUP2 PUSH1 0x20 DUP7 ADD PUSH1 0x20 DUP7 ADD PUSH2 0x902 JUMP JUMPDEST PUSH1 0x1F ADD PUSH1 0x1F NOT AND SWAP3 SWAP1 SWAP3 ADD PUSH1 0x20 ADD SWAP3 SWAP2 POP POP JUMP JUMPDEST PUSH1 0x20 DUP2 MSTORE PUSH1 0x0 PUSH2 0x965 PUSH1 0x20 DUP4 ADD DUP5 PUSH2 0x926 JUMP JUMPDEST SWAP4 SWAP3 POP POP POP JUMP JUMPDEST PUSH1 0x0 PUSH1 0x20 DUP3 DUP5 SUB SLT ISZERO PUSH2 0x97E JUMPI PUSH1 0x0 DUP1 REVERT JUMPDEST DUP2 MLOAD DUP1 ISZERO ISZERO DUP2 EQ PUSH2 0x965 JUMPI PUSH1 0x0 DUP1 REVERT JUMPDEST PUSH1 0x20 DUP1 DUP3 MSTORE PUSH1 0x11 SWAP1 DUP3 ADD MSTORE PUSH17 0x141493D11550D517D393D517D193D55391 PUSH1 0x7A SHL PUSH1 0x40 DUP3 ADD MSTORE PUSH1 0x60 ADD SWAP1 JUMP JUMPDEST PUSH1 0x0 DUP3 PUSH1 0x1F DUP4 ADD SLT PUSH2 0x9CA JUMPI PUSH1 0x0 DUP1 REVERT JUMPDEST DUP2 MLOAD PUSH2 0x9D8 PUSH2 0x82A DUP3 PUSH2 0x7E3 JUMP JUMPDEST DUP2 DUP2 MSTORE DUP5 PUSH1 0x20 DUP4 DUP7 ADD ADD GT ISZERO PUSH2 0x9ED JUMPI PUSH1 0x0 DUP1 REVERT JUMPDEST PUSH2 0x8FA DUP3 PUSH1 0x20 DUP4 ADD PUSH1 0x20 DUP8 ADD PUSH2 0x902 JUMP JUMPDEST DUP1 MLOAD PUSH1 0x1 PUSH1 0x1 PUSH1 0xA0 SHL SUB DUP2 AND DUP2 EQ PUSH2 0xA15 JUMPI PUSH1 0x0 DUP1 REVERT JUMPDEST SWAP2 SWAP1 POP JUMP JUMPDEST PUSH1 0x0 DUP1 PUSH1 0x0 DUP1 PUSH1 0x0 DUP1 PUSH1 0x0 DUP1 PUSH1 0x0 PUSH2 0x120 DUP11 DUP13 SUB SLT ISZERO PUSH2 0xA39 JUMPI PUSH1 0x0 DUP1 REVERT JUMPDEST DUP10 MLOAD PUSH8 0xFFFFFFFFFFFFFFFF DUP1 DUP3 GT ISZERO PUSH2 0xA51 JUMPI PUSH1 0x0 DUP1 REVERT JUMPDEST PUSH2 0xA5D DUP14 DUP4 DUP15 ADD PUSH2 0x9B9 JUMP JUMPDEST SWAP11 POP PUSH1 0x20 DUP13 ADD MLOAD SWAP2 POP DUP1 DUP3 GT ISZERO PUSH2 0xA73 JUMPI PUSH1 0x0 DUP1 REVERT JUMPDEST PUSH2 0xA7F DUP14 DUP4 DUP15 ADD PUSH2 0x9B9 JUMP JUMPDEST SWAP10 POP PUSH1 0x40 DUP13 ADD MLOAD SWAP2 POP DUP1 DUP3 GT ISZERO PUSH2 0xA95 JUMPI PUSH1 0x0 DUP1 REVERT JUMPDEST PUSH2 0xAA1 DUP14 DUP4 DUP15 ADD PUSH2 0x9B9 JUMP JUMPDEST SWAP9 POP PUSH1 0x60 DUP13 ADD MLOAD SWAP2 POP DUP1 DUP3 GT ISZERO PUSH2 0xAB7 JUMPI PUSH1 0x0 DUP1 REVERT JUMPDEST PUSH2 0xAC3 DUP14 DUP4 DUP15 ADD PUSH2 0x9B9 JUMP JUMPDEST SWAP8 POP PUSH1 0x80 DUP13 ADD MLOAD SWAP2 POP DUP1 DUP3 GT ISZERO PUSH2 0xAD9 JUMPI PUSH1 0x0 DUP1 REVERT JUMPDEST PUSH2 0xAE5 DUP14 DUP4 DUP15 ADD PUSH2 0x9B9 JUMP JUMPDEST SWAP7 POP PUSH1 0xA0 DUP13 ADD MLOAD SWAP2 POP DUP1 DUP3 GT ISZERO PUSH2 0xAFB JUMPI PUSH1 0x0 DUP1 REVERT JUMPDEST POP PUSH2 0xB08 DUP13 DUP3 DUP14 ADD PUSH2 0x9B9 JUMP JUMPDEST SWAP5 POP POP PUSH1 0xC0 DUP11 ADD MLOAD SWAP3 POP PUSH2 0xB1E PUSH1 0xE0 DUP12 ADD PUSH2 0x9FE JUMP JUMPDEST SWAP2 POP PUSH2 0xB2D PUSH2 0x100 DUP12 ADD PUSH2 0x9FE JUMP JUMPDEST SWAP1 POP SWAP3 SWAP6 SWAP9 POP SWAP3 SWAP6 SWAP9 POP SWAP3 SWAP6 SWAP9 JUMP JUMPDEST PUSH1 0x20 DUP1 DUP3 MSTORE PUSH1 0xA SWAP1 DUP3 ADD MSTORE PUSH10 0x2727AA2FA4A9A9AAA2A9 PUSH1 0xB1 SHL PUSH1 0x40 DUP3 ADD MSTORE PUSH1 0x60 ADD SWAP1 JUMP JUMPDEST PUSH1 0x0 DUP3 MLOAD PUSH2 0xB72 DUP2 DUP5 PUSH1 0x20 DUP8 ADD PUSH2 0x902 JUMP JUMPDEST SWAP2 SWAP1 SWAP2 ADD SWAP3 SWAP2 POP POP JUMP JUMPDEST PUSH1 0x40 DUP2 MSTORE PUSH1 0x0 PUSH2 0xB8F PUSH1 0x40 DUP4 ADD DUP6 PUSH2 0x926 JUMP JUMPDEST DUP3 DUP2 SUB PUSH1 0x20 DUP5 ADD MSTORE PUSH2 0xBA1 DUP2 DUP6 PUSH2 0x926 JUMP JUMPDEST SWAP6 SWAP5 POP POP POP POP POP JUMP INVALID LOG2 PUSH5 0x6970667358 0x22 SLT KECCAK256 NUMBER BLOBHASH DUP10 DUP9 0x24 SGT PUSH15 0xF035E4DD6EC133D9092A3562BEFFCC 0x2B BASEFEE 0xE9 ADD MLOAD MCOPY 0xAB CALLDATASIZE SLOAD CREATE2 PUSH5 0x736F6C6343 STOP ADDMOD XOR STOP CALLER "},"methodIdentifiers":{"core()":"f2f4eb26","flag(string,string)":"50cf0ec1","flagged(string)":"bcce1005","freeze(string)":"e6a86fb0","frozen(string)":"6b2593c9","status(string)":"e8ca64f4","unfreeze(string)":"dcc5833c"}}}}}