{"contracts/TaaSHierarchy.sol":{"TaaSHierarchy":{"abi":[{"inputs":[],"stateMutability":"nonpayable","type":"constructor"},{"anonymous":false,"inputs":[{"indexed":true,"internalType":"address","name":"brand","type":"address"}],"name":"BrandAdded","type":"event"},{"anonymous":false,"inputs":[{"indexed":true,"internalType":"address","name":"dealer","type":"address"}],"name":"DealerAdded","type":"event"},{"anonymous":false,"inputs":[{"indexed":true,"internalType":"address","name":"factory","type":"address"}],"name":"FactoryAdded","type":"event"},{"inputs":[{"internalType":"address","name":"brand","type":"address"}],"name":"addBrand","outputs":[],"stateMutability":"nonpayable","type":"function"},{"inputs":[{"internalType":"address","name":"dealer","type":"address"}],"name":"addDealer","outputs":[],"stateMutability":"nonpayable","type":"function"},{"inputs":[{"internalType":"address","name":"factory","type":"address"}],"name":"addFactory","outputs":[],"stateMutability":"nonpayable","type":"function"},{"inputs":[],"name":"admin","outputs":[{"internalType":"address","name":"","type":"address"}],"stateMutability":"view","type":"function"},{"inputs":[{"internalType":"address","name":"","type":"address"}],"name":"brands","outputs":[{"internalType":"bool","name":"","type":"bool"}],"stateMutability":"view","type":"function"},{"inputs":[{"internalType":"address","name":"","type":"address"}],"name":"dealers","outputs":[{"internalType":"bool","name":"","type":"bool"}],"stateMutability":"view","type":"function"},{"inputs":[{"internalType":"address","name":"","type":"address"}],"name":"factories","outputs":[{"internalType":"bool","name":"","type":"bool"}],"stateMutability":"view","type":"function"},{"inputs":[{"internalType":"address","name":"user","type":"address"}],"name":"isBrand","outputs":[{"internalType":"bool","name":"","type":"bool"}],"stateMutability":"view","type":"function"},{"inputs":[{"internalType":"address","name":"user","type":"address"}],"name":"isDealer","outputs":[{"internalType":"bool","name":"","type":"bool"}],"stateMutability":"view","type":"function"},{"inputs":[{"internalType":"address","name":"user","type":"address"}],"name":"isFactory","outputs":[{"internalType":"bool","name":"","type":"bool"}],"stateMutability":"view","type":"function"}],"evm":{"bytecode":{"linkReferences":{},"object":"608060405234801561001057600080fd5b50600080546001600160a01b0319163317905561043b806100326000396000f3fe608060405234801561001057600080fd5b506004361061009e5760003560e01c80635b7fd9b5116100665780635b7fd9b51461014b578063f62fe1d51461016e578063f851a44014610191578063fab52689146101bc578063fe2e81d4146101df57600080fd5b806305a5562d146100a357806306d6cb76146100e45780630f04ba67146100f957806329ce1ec51461012557806358aa5b2b14610138575b600080fd5b6100cf6100b13660046103d5565b6001600160a01b031660009081526001602052604090205460ff1690565b60405190151581526020015b60405180910390f35b6100f76100f23660046103d5565b61020b565b005b6100cf6101073660046103d5565b6001600160a01b031660009081526002602052604090205460ff1690565b6100f76101333660046103d5565b6102a9565b6100f76101463660046103d5565b610340565b6100cf6101593660046103d5565b60016020526000908152604090205460ff1681565b6100cf61017c3660046103d5565b60036020526000908152604090205460ff1681565b6000546101a4906001600160a01b031681565b6040516001600160a01b0390911681526020016100db565b6100cf6101ca3660046103d5565b60026020526000908152604090205460ff1681565b6100cf6101ed3660046103d5565b6001600160a01b031660009081526003602052604090205460ff1690565b3360009081526002602052604090205460ff1661025d5760405162461bcd60e51b815260206004820152600b60248201526a4e4f545f464143544f525960a81b60448201526064015b60405180910390fd5b6001600160a01b038116600081815260036020526040808220805460ff19166001179055517f98f3b9743e04ddffc992c14d8217e2d0467e51bbec660a88b2c756e6eebc4e649190a250565b3360009081526001602052604090205460ff166102f45760405162461bcd60e51b81526020600482015260096024820152681393d517d09490539160ba1b6044820152606401610254565b6001600160a01b038116600081815260026020526040808220805460ff19166001179055517f6fdc0147105e43e21da80a75b42d0fd464060d5e1a34b0cefbf0b4ccfc2e36a19190a250565b6000546001600160a01b031633146103865760405162461bcd60e51b81526020600482015260096024820152682727aa2fa0a226a4a760b91b6044820152606401610254565b6001600160a01b0381166000818152600160208190526040808320805460ff1916909217909155517ff294465ab6aaa3650993093431777d23cda2be98f0ce448bbd202694c8beafb99190a250565b6000602082840312156103e757600080fd5b81356001600160a01b03811681146103fe57600080fd5b939250505056fea26469706673582212202f859a6ad27d87ebb8a2ef35472fe33d83a5ef472ac783764c17a0f23bce397664736f6c63430008180033","opcodes":"PUSH1 0x80 PUSH1 0x40 MSTORE CALLVALUE DUP1 ISZERO PUSH2 0x10 JUMPI PUSH1 0x0 DUP1 REVERT JUMPDEST POP PUSH1 0x0 DUP1 SLOAD PUSH1 0x1 PUSH1 0x1 PUSH1 0xA0 SHL SUB NOT AND CALLER OR SWAP1 SSTORE PUSH2 0x43B DUP1 PUSH2 0x32 PUSH1 0x0 CODECOPY PUSH1 0x0 RETURN INVALID PUSH1 0x80 PUSH1 0x40 MSTORE CALLVALUE DUP1 ISZERO PUSH2 0x10 JUMPI PUSH1 0x0 DUP1 REVERT JUMPDEST POP PUSH1 0x4 CALLDATASIZE LT PUSH2 0x9E JUMPI PUSH1 0x0 CALLDATALOAD PUSH1 0xE0 SHR DUP1 PUSH4 0x5B7FD9B5 GT PUSH2 0x66 JUMPI DUP1 PUSH4 0x5B7FD9B5 EQ PUSH2 0x14B JUMPI DUP1 PUSH4 0xF62FE1D5 EQ PUSH2 0x16E JUMPI DUP1 PUSH4 0xF851A440 EQ PUSH2 0x191 JUMPI DUP1 PUSH4 0xFAB52689 EQ PUSH2 0x1BC JUMPI DUP1 PUSH4 0xFE2E81D4 EQ PUSH2 0x1DF JUMPI PUSH1 0x0 DUP1 REVERT JUMPDEST DUP1 PUSH4 0x5A5562D EQ PUSH2 0xA3 JUMPI DUP1 PUSH4 0x6D6CB76 EQ PUSH2 0xE4 JUMPI DUP1 PUSH4 0xF04BA67 EQ PUSH2 0xF9 JUMPI DUP1 PUSH4 0x29CE1EC5 EQ PUSH2 0x125 JUMPI DUP1 PUSH4 0x58AA5B2B EQ PUSH2 0x138 JUMPI JUMPDEST PUSH1 0x0 DUP1 REVERT JUMPDEST PUSH2 0xCF PUSH2 0xB1 CALLDATASIZE PUSH1 0x4 PUSH2 0x3D5 JUMP JUMPDEST PUSH1 0x1 PUSH1 0x1 PUSH1 0xA0 SHL SUB AND PUSH1 0x0 SWAP1 DUP2 MSTORE PUSH1 0x1 PUSH1 0x20 MSTORE PUSH1 0x40 SWAP1 KECCAK256 SLOAD PUSH1 0xFF AND SWAP1 JUMP JUMPDEST PUSH1 0x40 MLOAD SWAP1 ISZERO ISZERO DUP2 MSTORE PUSH1 0x20 ADD JUMPDEST PUSH1 0x40 MLOAD DUP1 SWAP2 SUB SWAP1 RETURN JUMPDEST PUSH2 0xF7 PUSH2 0xF2 CALLDATASIZE PUSH1 0x4 PUSH2 0x3D5 JUMP JUMPDEST PUSH2 0x20B JUMP JUMPDEST STOP JUMPDEST PUSH2 0xCF PUSH2 0x107 CALLDATASIZE PUSH1 0x4 PUSH2 0x3D5 JUMP JUMPDEST PUSH1 0x1 PUSH1 0x1 PUSH1 0xA0 SHL SUB AND PUSH1 0x0 SWAP1 DUP2 MSTORE PUSH1 0x2 PUSH1 0x20 MSTORE PUSH1 0x40 SWAP1 KECCAK256 SLOAD PUSH1 0xFF AND SWAP1 JUMP JUMPDEST PUSH2 0xF7 PUSH2 0x133 CALLDATASIZE PUSH1 0x4 PUSH2 0x3D5 JUMP JUMPDEST PUSH2 0x2A9 JUMP JUMPDEST PUSH2 0xF7 PUSH2 0x146 CALLDATASIZE PUSH1 0x4 PUSH2 0x3D5 JUMP JUMPDEST PUSH2 0x340 JUMP JUMPDEST PUSH2 0xCF PUSH2 0x159 CALLDATASIZE PUSH1 0x4 PUSH2 0x3D5 JUMP JUMPDEST PUSH1 0x1 PUSH1 0x20 MSTORE PUSH1 0x0 SWAP1 DUP2 MSTORE PUSH1 0x40 SWAP1 KECCAK256 SLOAD PUSH1 0xFF AND DUP2 JUMP JUMPDEST PUSH2 0xCF PUSH2 0x17C CALLDATASIZE PUSH1 0x4 PUSH2 0x3D5 JUMP JUMPDEST PUSH1 0x3 PUSH1 0x20 MSTORE PUSH1 0x0 SWAP1 DUP2 MSTORE PUSH1 0x40 SWAP1 KECCAK256 SLOAD PUSH1 0xFF AND DUP2 JUMP JUMPDEST PUSH1 0x0 SLOAD PUSH2 0x1A4 SWAP1 PUSH1 0x1 PUSH1 0x1 PUSH1 0xA0 SHL SUB AND DUP2 JUMP JUMPDEST PUSH1 0x40 MLOAD PUSH1 0x1 PUSH1 0x1 PUSH1 0xA0 SHL SUB SWAP1 SWAP2 AND DUP2 MSTORE PUSH1 0x20 ADD PUSH2 0xDB JUMP JUMPDEST PUSH2 0xCF PUSH2 0x1CA CALLDATASIZE PUSH1 0x4 PUSH2 0x3D5 JUMP JUMPDEST PUSH1 0x2 PUSH1 0x20 MSTORE PUSH1 0x0 SWAP1 DUP2 MSTORE PUSH1 0x40 SWAP1 KECCAK256 SLOAD PUSH1 0xFF AND DUP2 JUMP JUMPDEST PUSH2 0xCF PUSH2 0x1ED CALLDATASIZE PUSH1 0x4 PUSH2 0x3D5 JUMP JUMPDEST PUSH1 0x1 PUSH1 0x1 PUSH1 0xA0 SHL SUB AND PUSH1 0x0 SWAP1 DUP2 MSTORE PUSH1 0x3 PUSH1 0x20 MSTORE PUSH1 0x40 SWAP1 KECCAK256 SLOAD PUSH1 0xFF AND SWAP1 JUMP JUMPDEST CALLER PUSH1 0x0 SWAP1 DUP2 MSTORE PUSH1 0x2 PUSH1 0x20 MSTORE PUSH1 0x40 SWAP1 KECCAK256 SLOAD PUSH1 0xFF AND PUSH2 0x25D JUMPI PUSH1 0x40 MLOAD PUSH3 0x461BCD PUSH1 0xE5 SHL DUP2 MSTORE PUSH1 0x20 PUSH1 0x4 DUP3 ADD MSTORE PUSH1 0xB PUSH1 0x24 DUP3 ADD MSTORE PUSH11 0x4E4F545F464143544F5259 PUSH1 0xA8 SHL PUSH1 0x44 DUP3 ADD MSTORE PUSH1 0x64 ADD JUMPDEST PUSH1 0x40 MLOAD DUP1 SWAP2 SUB SWAP1 REVERT JUMPDEST PUSH1 0x1 PUSH1 0x1 PUSH1 0xA0 SHL SUB DUP2 AND PUSH1 0x0 DUP2 DUP2 MSTORE PUSH1 0x3 PUSH1 0x20 MSTORE PUSH1 0x40 DUP1 DUP3 KECCAK256 DUP1 SLOAD PUSH1 0xFF NOT AND PUSH1 0x1 OR SWAP1 SSTORE MLOAD PUSH32 0x98F3B9743E04DDFFC992C14D8217E2D0467E51BBEC660A88B2C756E6EEBC4E64 SWAP2 SWAP1 LOG2 POP JUMP JUMPDEST CALLER PUSH1 0x0 SWAP1 DUP2 MSTORE PUSH1 0x1 PUSH1 0x20 MSTORE PUSH1 0x40 SWAP1 KECCAK256 SLOAD PUSH1 0xFF AND PUSH2 0x2F4 JUMPI PUSH1 0x40 MLOAD PUSH3 0x461BCD PUSH1 0xE5 SHL DUP2 MSTORE PUSH1 0x20 PUSH1 0x4 DUP3 ADD MSTORE PUSH1 0x9 PUSH1 0x24 DUP3 ADD MSTORE PUSH9 0x1393D517D094905391 PUSH1 0xBA SHL PUSH1 0x44 DUP3 ADD MSTORE PUSH1 0x64 ADD PUSH2 0x254 JUMP JUMPDEST PUSH1 0x1 PUSH1 0x1 PUSH1 0xA0 SHL SUB DUP2 AND PUSH1 0x0 DUP2 DUP2 MSTORE PUSH1 0x2 PUSH1 0x20 MSTORE PUSH1 0x40 DUP1 DUP3 KECCAK256 DUP1 SLOAD PUSH1 0xFF NOT AND PUSH1 0x1 OR SWAP1 SSTORE MLOAD PUSH32 0x6FDC0147105E43E21DA80A75B42D0FD464060D5E1A34B0CEFBF0B4CCFC2E36A1 SWAP2 SWAP1 LOG2 POP JUMP JUMPDEST PUSH1 0x0 SLOAD PUSH1 0x1 PUSH1 0x1 PUSH1 0xA0 SHL SUB AND CALLER EQ PUSH2 0x386 JUMPI PUSH1 0x40 MLOAD PUSH3 0x461BCD PUSH1 0xE5 SHL DUP2 MSTORE PUSH1 0x20 PUSH1 0x4 DUP3 ADD MSTORE PUSH1 0x9 PUSH1 0x24 DUP3 ADD MSTORE PUSH9 0x2727AA2FA0A226A4A7 PUSH1 0xB9 SHL PUSH1 0x44 DUP3 ADD MSTORE PUSH1 0x64 ADD PUSH2 0x254 JUMP JUMPDEST PUSH1 0x1 PUSH1 0x1 PUSH1 0xA0 SHL SUB DUP2 AND PUSH1 0x0 DUP2 DUP2 MSTORE PUSH1 0x1 PUSH1 0x20 DUP2 SWAP1 MSTORE PUSH1 0x40 DUP1 DUP4 KECCAK256 DUP1 SLOAD PUSH1 0xFF NOT AND SWAP1 SWAP3 OR SWAP1 SWAP2 SSTORE MLOAD PUSH32 0xF294465AB6AAA3650993093431777D23CDA2BE98F0CE448BBD202694C8BEAFB9 SWAP2 SWAP1 LOG2 POP JUMP JUMPDEST PUSH1 0x0 PUSH1 0x20 DUP3 DUP5 SUB SLT ISZERO PUSH2 0x3E7 JUMPI PUSH1 0x0 DUP1 REVERT JUMPDEST DUP2 CALLDATALOAD PUSH1 0x1 PUSH1 0x1 PUSH1 0xA0 SHL SUB DUP2 AND DUP2 EQ PUSH2 0x3FE JUMPI PUSH1 0x0 DUP1 REVERT JUMPDEST SWAP4 SWAP3 POP POP POP JUMP INVALID LOG2 PUSH5 0x6970667358 0x22 SLT KECCAK256 0x2F DUP6 SWAP11 PUSH11 0xD27D87EBB8A2EF35472FE3 RETURNDATASIZE DUP4 0xA5 0xEF SELFBALANCE 0x2A 0xC7 DUP4 PUSH23 0x4C17A0F23BCE397664736F6C6343000818003300000000 "},"methodIdentifiers":{"addBrand(address)":"58aa5b2b","addDealer(address)":"06d6cb76","addFactory(address)":"29ce1ec5","admin()":"f851a440","brands(address)":"5b7fd9b5","dealers(address)":"f62fe1d5","factories(address)":"fab52689","isBrand(address)":"05a5562d","isDealer(address)":"fe2e81d4","isFactory(address)":"0f04ba67"}}}}}