{
  "_format": "hh-sol-artifact-1",
  "contractName": "TaaSOwnershipEngine",
  "sourceName": "contracts/TaaSOwnershipEngine.sol",
  "abi": [
    {
      "inputs": [
        {
          "internalType": "address",
          "name": "_core",
          "type": "address"
        },
        {
          "internalType": "address",
          "name": "_hierarchy",
          "type": "address"
        }
      ],
      "stateMutability": "nonpayable",
      "type": "constructor"
    },
    {
      "inputs": [],
      "name": "coreContract",
      "outputs": [
        {
          "internalType": "address",
          "name": "",
          "type": "address"
        }
      ],
      "stateMutability": "view",
      "type": "function"
    },
    {
      "inputs": [
        {
          "internalType": "string",
          "name": "gpid",
          "type": "string"
        },
        {
          "internalType": "address",
          "name": "buyer",
          "type": "address"
        }
      ],
      "name": "dealerTransfer",
      "outputs": [],
      "stateMutability": "nonpayable",
      "type": "function"
    },
    {
      "inputs": [
        {
          "internalType": "string",
          "name": "gpid",
          "type": "string"
        }
      ],
      "name": "getHistory",
      "outputs": [
        {
          "internalType": "address[]",
          "name": "",
          "type": "address[]"
        }
      ],
      "stateMutability": "view",
      "type": "function"
    },
    {
      "inputs": [
        {
          "internalType": "string",
          "name": "gpid",
          "type": "string"
        }
      ],
      "name": "getOwner",
      "outputs": [
        {
          "internalType": "address",
          "name": "",
          "type": "address"
        }
      ],
      "stateMutability": "view",
      "type": "function"
    },
    {
      "inputs": [
        {
          "internalType": "string",
          "name": "gpid",
          "type": "string"
        }
      ],
      "name": "getStatus",
      "outputs": [
        {
          "internalType": "enum TaaSOwnershipEngine.Status",
          "name": "",
          "type": "uint8"
        }
      ],
      "stateMutability": "view",
      "type": "function"
    },
    {
      "inputs": [],
      "name": "hierarchy",
      "outputs": [
        {
          "internalType": "contract IHierarchy",
          "name": "",
          "type": "address"
        }
      ],
      "stateMutability": "view",
      "type": "function"
    },
    {
      "inputs": [
        {
          "internalType": "string",
          "name": "gpid",
          "type": "string"
        }
      ],
      "name": "markStolen",
      "outputs": [],
      "stateMutability": "nonpayable",
      "type": "function"
    },
    {
      "inputs": [
        {
          "internalType": "string",
          "name": "gpid",
          "type": "string"
        }
      ],
      "name": "recoverItem",
      "outputs": [],
      "stateMutability": "nonpayable",
      "type": "function"
    },
    {
      "inputs": [
        {
          "internalType": "string",
          "name": "gpid",
          "type": "string"
        },
        {
          "internalType": "address",
          "name": "owner",
          "type": "address"
        }
      ],
      "name": "registerInitialOwner",
      "outputs": [],
      "stateMutability": "nonpayable",
      "type": "function"
    },
    {
      "inputs": [
        {
          "internalType": "string",
          "name": "gpid",
          "type": "string"
        },
        {
          "internalType": "address",
          "name": "newOwner",
          "type": "address"
        }
      ],
      "name": "transferOwnership",
      "outputs": [],
      "stateMutability": "nonpayable",
      "type": "function"
    }
  ],
  "bytecode": "0x608060405234801561001057600080fd5b50604051610b8e380380610b8e83398101604081905261002f91610108565b6001600160a01b0382166100755760405162461bcd60e51b81526020600482015260086024820152674241445f434f524560c01b60448201526064015b60405180910390fd5b6001600160a01b0381166100bb5760405162461bcd60e51b815260206004820152600d60248201526c4241445f48494552415243485960981b604482015260640161006c565b600280546001600160a01b039384166001600160a01b0319918216179091556001805492909316911617905561013b565b80516001600160a01b038116811461010357600080fd5b919050565b6000806040838503121561011b57600080fd5b610124836100ec565b9150610132602084016100ec565b90509250929050565b610a448061014a6000396000f3fe608060405234801561001057600080fd5b506004361061009e5760003560e01c80634aaf4a12116100665780634aaf4a121461012e578063c0e793c214610141578063e360736e14610154578063e80db5db14610174578063f62e4e631461018757600080fd5b806311d8c872146100a357806315188aa0146100d357806322b05ed2146100e857806332b3b08d1461010857806349a4a7751461011b575b600080fd5b6001546100b6906001600160a01b031681565b6040516001600160a01b0390911681526020015b60405180910390f35b6100e66100e1366004610882565b61019a565b005b6100fb6100f63660046108e5565b6102d2565b6040516100ca919061093d565b6100e6610116366004610882565b610308565b6100e66101293660046108e5565b6104c1565b6100b661013c3660046108e5565b610589565b6100e661014f366004610882565b6105bd565b6101676101623660046108e5565b6106f3565b6040516100ca9190610965565b6002546100b6906001600160a01b031681565b6100e66101953660046108e5565b610773565b6002546001600160a01b031633146101e55760405162461bcd60e51b81526020600482015260096024820152684f4e4c595f434f524560b81b60448201526064015b60405180910390fd5b60006001600160a01b0316600084846040516102029291906109b2565b908152604051908190036020019020546001600160a01b03161461025d5760405162461bcd60e51b81526020600482015260126024820152711053149150511657d49151d254d51154915160721b60448201526064016101dc565b60008084846040516102709291906109b2565b908152604051602091819003820190208054600160a01b6001600160a81b03199091166001600160a01b03959095169485171781556001908101805491820181556000908152919091200180546001600160a01b031916909217909155505050565b60008083836040516102e59291906109b2565b9081526040519081900360200190205460ff600160a01b90910416905092915050565b600154604051633f8ba07560e21b81523360048201526001600160a01b039091169063fe2e81d490602401602060405180830381865afa158015610350573d6000803e3d6000fd5b505050506040513d601f19601f8201168201806040525081019061037491906109c2565b6103b85760405162461bcd60e51b81526020600482015260156024820152742727aa2fa0aaaa2427a924ad22a22fa222a0a622a960591b60448201526064016101dc565b60008084846040516103cb9291906109b2565b90815260405190819003602001902080549091506001600160a01b0316331461042b5760405162461bcd60e51b81526020600482015260126024820152712727aa2fa82927a22aa1aa2fa427a62222a960711b60448201526064016101dc565b60018154600160a01b900460ff16600281111561044a5761044a610927565b146104805760405162461bcd60e51b81526020600482015260066024820152651313d0d2d15160d21b60448201526064016101dc565b80546001600160a01b039092166001600160a01b03199283168117825560019182018054928301815560009081526020902090910180549092161790555050565b60008083836040516104d49291906109b2565b9081526040519081900360200190208054909150336001600160a01b03909116146105115760405162461bcd60e51b81526004016101dc906109eb565b60028154600160a01b900460ff16600281111561053057610530610927565b1461056a5760405162461bcd60e51b815260206004820152600a6024820152692727aa2fa9aa27a622a760b11b60448201526064016101dc565b8054600190829060ff60a01b1916600160a01b835b0217905550505050565b600080838360405161059c9291906109b2565b908152604051908190036020019020546001600160a01b0316905092915050565b60008084846040516105d09291906109b2565b90815260405190819003602001902080549091506001600160a01b03166106255760405162461bcd60e51b81526020600482015260096024820152681393d517d1561254d560ba1b60448201526064016101dc565b60018154600160a01b900460ff16600281111561064457610644610927565b146106845760405162461bcd60e51b815260206004820152601060248201526f4e4f545f5452414e5346455241424c4560801b60448201526064016101dc565b80546001600160a01b031633146106ad5760405162461bcd60e51b81526004016101dc906109eb565b6001600160a01b0382166104805760405162461bcd60e51b815260206004820152600d60248201526c2120a22fa722abafa7aba722a960991b60448201526064016101dc565b6060600083836040516107079291906109b2565b908152604080519182900360209081018320600101805480830285018301909352828452919083018282801561076657602002820191906000526020600020905b81546001600160a01b03168152600190910190602001808311610748575b5050505050905092915050565b60008083836040516107869291906109b2565b9081526040519081900360200190208054909150336001600160a01b03909116146107c35760405162461bcd60e51b81526004016101dc906109eb565b60018154600160a01b900460ff1660028111156107e2576107e2610927565b146108205760405162461bcd60e51b815260206004820152600e60248201526d1053149150511657d313d0d2d15160921b60448201526064016101dc565b8054600290829060ff60a01b1916600160a01b8361057f565b60008083601f84011261084b57600080fd5b50813567ffffffffffffffff81111561086357600080fd5b60208301915083602082850101111561087b57600080fd5b9250929050565b60008060006040848603121561089757600080fd5b833567ffffffffffffffff8111156108ae57600080fd5b6108ba86828701610839565b90945092505060208401356001600160a01b03811681146108da57600080fd5b809150509250925092565b600080602083850312156108f857600080fd5b823567ffffffffffffffff81111561090f57600080fd5b61091b85828601610839565b90969095509350505050565b634e487b7160e01b600052602160045260246000fd5b602081016003831061095f57634e487b7160e01b600052602160045260246000fd5b91905290565b6020808252825182820181905260009190848201906040850190845b818110156109a65783516001600160a01b031683529284019291840191600101610981565b50909695505050505050565b8183823760009101908152919050565b6000602082840312156109d457600080fd5b815180151581146109e457600080fd5b9392505050565b6020808252600990820152682727aa2fa7aba722a960b91b60408201526060019056fea2646970667358221220065835c378e59fb922ca3eec35899e770d796c07a379863d1cf1f1b1f9a2c24e64736f6c63430008180033",
  "linkReferences": {},
  "deployedLinkReferences": {}
}