{
  "_format": "hh-sol-artifact-1",
  "contractName": "TaaSOwnershipEngine",
  "sourceName": "contracts/TaaSOwnershipEngine.sol",
  "abi": [
    {
      "inputs": [
        {
          "internalType": "address",
          "name": "_core",
          "type": "address"
        },
        {
          "internalType": "address",
          "name": "_hierarchy",
          "type": "address"
        }
      ],
      "stateMutability": "nonpayable",
      "type": "constructor"
    },
    {
      "inputs": [],
      "name": "coreContract",
      "outputs": [
        {
          "internalType": "address",
          "name": "",
          "type": "address"
        }
      ],
      "stateMutability": "view",
      "type": "function"
    },
    {
      "inputs": [
        {
          "internalType": "string",
          "name": "gpid",
          "type": "string"
        },
        {
          "internalType": "address",
          "name": "buyer",
          "type": "address"
        }
      ],
      "name": "dealerTransfer",
      "outputs": [],
      "stateMutability": "nonpayable",
      "type": "function"
    },
    {
      "inputs": [
        {
          "internalType": "string",
          "name": "gpid",
          "type": "string"
        }
      ],
      "name": "getHistory",
      "outputs": [
        {
          "internalType": "address[]",
          "name": "",
          "type": "address[]"
        }
      ],
      "stateMutability": "view",
      "type": "function"
    },
    {
      "inputs": [
        {
          "internalType": "string",
          "name": "gpid",
          "type": "string"
        }
      ],
      "name": "getOwner",
      "outputs": [
        {
          "internalType": "address",
          "name": "",
          "type": "address"
        }
      ],
      "stateMutability": "view",
      "type": "function"
    },
    {
      "inputs": [
        {
          "internalType": "string",
          "name": "gpid",
          "type": "string"
        }
      ],
      "name": "getStatus",
      "outputs": [
        {
          "internalType": "enum TaaSOwnershipEngine.Status",
          "name": "",
          "type": "uint8"
        }
      ],
      "stateMutability": "view",
      "type": "function"
    },
    {
      "inputs": [],
      "name": "hierarchy",
      "outputs": [
        {
          "internalType": "contract IHierarchy",
          "name": "",
          "type": "address"
        }
      ],
      "stateMutability": "view",
      "type": "function"
    },
    {
      "inputs": [
        {
          "internalType": "string",
          "name": "gpid",
          "type": "string"
        }
      ],
      "name": "markStolen",
      "outputs": [],
      "stateMutability": "nonpayable",
      "type": "function"
    },
    {
      "inputs": [
        {
          "internalType": "string",
          "name": "gpid",
          "type": "string"
        }
      ],
      "name": "recoverItem",
      "outputs": [],
      "stateMutability": "nonpayable",
      "type": "function"
    },
    {
      "inputs": [
        {
          "internalType": "string",
          "name": "gpid",
          "type": "string"
        },
        {
          "internalType": "address",
          "name": "owner",
          "type": "address"
        }
      ],
      "name": "registerInitialOwner",
      "outputs": [],
      "stateMutability": "nonpayable",
      "type": "function"
    },
    {
      "inputs": [
        {
          "internalType": "string",
          "name": "gpid",
          "type": "string"
        },
        {
          "internalType": "address",
          "name": "newOwner",
          "type": "address"
        }
      ],
      "name": "transferOwnership",
      "outputs": [],
      "stateMutability": "nonpayable",
      "type": "function"
    }
  ],
  "bytecode": "0x60806040523480156200001157600080fd5b5060405162001aa338038062001aa383398181016040528101906200003791906200020f565b600073ffffffffffffffffffffffffffffffffffffffff168273ffffffffffffffffffffffffffffffffffffffff1603620000a9576040517f08c379a0000000000000000000000000000000000000000000000000000000008152600401620000a090620002b7565b60405180910390fd5b600073ffffffffffffffffffffffffffffffffffffffff168173ffffffffffffffffffffffffffffffffffffffff16036200011b576040517f08c379a0000000000000000000000000000000000000000000000000000000008152600401620001129062000329565b60405180910390fd5b81600260006101000a81548173ffffffffffffffffffffffffffffffffffffffff021916908373ffffffffffffffffffffffffffffffffffffffff16021790555080600160006101000a81548173ffffffffffffffffffffffffffffffffffffffff021916908373ffffffffffffffffffffffffffffffffffffffff16021790555050506200034b565b600080fd5b600073ffffffffffffffffffffffffffffffffffffffff82169050919050565b6000620001d782620001aa565b9050919050565b620001e981620001ca565b8114620001f557600080fd5b50565b6000815190506200020981620001de565b92915050565b60008060408385031215620002295762000228620001a5565b5b60006200023985828601620001f8565b92505060206200024c85828601620001f8565b9150509250929050565b600082825260208201905092915050565b7f4241445f434f5245000000000000000000000000000000000000000000000000600082015250565b60006200029f60088362000256565b9150620002ac8262000267565b602082019050919050565b60006020820190508181036000830152620002d28162000290565b9050919050565b7f4241445f48494552415243485900000000000000000000000000000000000000600082015250565b600062000311600d8362000256565b91506200031e82620002d9565b602082019050919050565b60006020820190508181036000830152620003448162000302565b9050919050565b611748806200035b6000396000f3fe608060405234801561001057600080fd5b506004361061009e5760003560e01c80634aaf4a12116100665780634aaf4a1214610145578063c0e793c214610175578063e360736e14610191578063e80db5db146101c1578063f62e4e63146101df5761009e565b806311d8c872146100a357806315188aa0146100c157806322b05ed2146100dd57806332b3b08d1461010d57806349a4a77514610129575b600080fd5b6100ab6101fb565b6040516100b89190610e8f565b60405180910390f35b6100db60048036038101906100d69190610f57565b610221565b005b6100f760048036038101906100f29190610fb7565b610461565b604051610104919061107b565b60405180910390f35b61012760048036038101906101229190610f57565b61049b565b005b610143600480360381019061013e9190610fb7565b610751565b005b61015f600480360381019061015a9190610fb7565b6108af565b60405161016c91906110a5565b60405180910390f35b61018f600480360381019061018a9190610f57565b6108fc565b005b6101ab60048036038101906101a69190610fb7565b610bd9565b6040516101b8919061117e565b60405180910390f35b6101c9610c8b565b6040516101d691906110a5565b60405180910390f35b6101f960048036038101906101f49190610fb7565b610cb1565b005b600160009054906101000a900473ffffffffffffffffffffffffffffffffffffffff1681565b600260009054906101000a900473ffffffffffffffffffffffffffffffffffffffff1673ffffffffffffffffffffffffffffffffffffffff163373ffffffffffffffffffffffffffffffffffffffff16146102b1576040517f08c379a00000000000000000000000000000000000000000000000000000000081526004016102a8906111fd565b60405180910390fd5b600073ffffffffffffffffffffffffffffffffffffffff16600084846040516102db92919061125c565b908152602001604051809103902060000160009054906101000a900473ffffffffffffffffffffffffffffffffffffffff1673ffffffffffffffffffffffffffffffffffffffff1614610363576040517f08c379a000000000000000000000000000000000000000000000000000000000815260040161035a906112c1565b60405180910390fd5b600080848460405161037692919061125c565b90815260200160405180910390209050818160000160006101000a81548173ffffffffffffffffffffffffffffffffffffffff021916908373ffffffffffffffffffffffffffffffffffffffff16021790555060018160000160146101000a81548160ff021916908360028111156103f1576103f0611004565b5b021790555080600101829080600181540180825580915050600190039060005260206000200160009091909190916101000a81548173ffffffffffffffffffffffffffffffffffffffff021916908373ffffffffffffffffffffffffffffffffffffffff16021790555050505050565b600080838360405161047492919061125c565b908152602001604051809103902060000160149054906101000a900460ff16905092915050565b600160009054906101000a900473ffffffffffffffffffffffffffffffffffffffff1673ffffffffffffffffffffffffffffffffffffffff1663fe2e81d4336040518263ffffffff1660e01b81526004016104f691906110a5565b602060405180830381865afa158015610513573d6000803e3d6000fd5b505050506040513d601f19601f820116820180604052508101906105379190611319565b610576576040517f08c379a000000000000000000000000000000000000000000000000000000000815260040161056d90611392565b60405180910390fd5b600080848460405161058992919061125c565b908152602001604051809103902090503373ffffffffffffffffffffffffffffffffffffffff168160000160009054906101000a900473ffffffffffffffffffffffffffffffffffffffff1673ffffffffffffffffffffffffffffffffffffffff161461062b576040517f08c379a0000000000000000000000000000000000000000000000000000000008152600401610622906113fe565b60405180910390fd5b6001600281111561063f5761063e611004565b5b8160000160149054906101000a900460ff16600281111561066357610662611004565b5b146106a3576040517f08c379a000000000000000000000000000000000000000000000000000000000815260040161069a9061146a565b60405180910390fd5b818160000160006101000a81548173ffffffffffffffffffffffffffffffffffffffff021916908373ffffffffffffffffffffffffffffffffffffffff16021790555080600101829080600181540180825580915050600190039060005260206000200160009091909190916101000a81548173ffffffffffffffffffffffffffffffffffffffff021916908373ffffffffffffffffffffffffffffffffffffffff16021790555050505050565b600080838360405161076492919061125c565b908152602001604051809103902090508060000160009054906101000a900473ffffffffffffffffffffffffffffffffffffffff1673ffffffffffffffffffffffffffffffffffffffff163373ffffffffffffffffffffffffffffffffffffffff1614610806576040517f08c379a00000000000000000000000000000000000000000000000000000000081526004016107fd906114d6565b60405180910390fd5b60028081111561081957610818611004565b5b8160000160149054906101000a900460ff16600281111561083d5761083c611004565b5b1461087d576040517f08c379a000000000000000000000000000000000000000000000000000000000815260040161087490611542565b60405180910390fd5b60018160000160146101000a81548160ff021916908360028111156108a5576108a4611004565b5b0217905550505050565b60008083836040516108c292919061125c565b908152602001604051809103902060000160009054906101000a900473ffffffffffffffffffffffffffffffffffffffff16905092915050565b600080848460405161090f92919061125c565b90815260200160405180910390209050600073ffffffffffffffffffffffffffffffffffffffff168160000160009054906101000a900473ffffffffffffffffffffffffffffffffffffffff1673ffffffffffffffffffffffffffffffffffffffff16036109b2576040517f08c379a00000000000000000000000000000000000000000000000000000000081526004016109a9906115ae565b60405180910390fd5b600160028111156109c6576109c5611004565b5b8160000160149054906101000a900460ff1660028111156109ea576109e9611004565b5b14610a2a576040517f08c379a0000000000000000000000000000000000000000000000000000000008152600401610a219061161a565b60405180910390fd5b8060000160009054906101000a900473ffffffffffffffffffffffffffffffffffffffff1673ffffffffffffffffffffffffffffffffffffffff163373ffffffffffffffffffffffffffffffffffffffff1614610abc576040517f08c379a0000000000000000000000000000000000000000000000000000000008152600401610ab3906114d6565b60405180910390fd5b600073ffffffffffffffffffffffffffffffffffffffff168273ffffffffffffffffffffffffffffffffffffffff1603610b2b576040517f08c379a0000000000000000000000000000000000000000000000000000000008152600401610b2290611686565b60405180910390fd5b818160000160006101000a81548173ffffffffffffffffffffffffffffffffffffffff021916908373ffffffffffffffffffffffffffffffffffffffff16021790555080600101829080600181540180825580915050600190039060005260206000200160009091909190916101000a81548173ffffffffffffffffffffffffffffffffffffffff021916908373ffffffffffffffffffffffffffffffffffffffff16021790555050505050565b606060008383604051610bed92919061125c565b9081526020016040518091039020600101805480602002602001604051908101604052809291908181526020018280548015610c7e57602002820191906000526020600020905b8160009054906101000a900473ffffffffffffffffffffffffffffffffffffffff1673ffffffffffffffffffffffffffffffffffffffff1681526020019060010190808311610c34575b5050505050905092915050565b600260009054906101000a900473ffffffffffffffffffffffffffffffffffffffff1681565b6000808383604051610cc492919061125c565b908152602001604051809103902090508060000160009054906101000a900473ffffffffffffffffffffffffffffffffffffffff1673ffffffffffffffffffffffffffffffffffffffff163373ffffffffffffffffffffffffffffffffffffffff1614610d66576040517f08c379a0000000000000000000000000000000000000000000000000000000008152600401610d5d906114d6565b60405180910390fd5b60016002811115610d7a57610d79611004565b5b8160000160149054906101000a900460ff166002811115610d9e57610d9d611004565b5b14610dde576040517f08c379a0000000000000000000000000000000000000000000000000000000008152600401610dd5906116f2565b60405180910390fd5b60028160000160146101000a81548160ff02191690836002811115610e0657610e05611004565b5b0217905550505050565b600073ffffffffffffffffffffffffffffffffffffffff82169050919050565b6000819050919050565b6000610e55610e50610e4b84610e10565b610e30565b610e10565b9050919050565b6000610e6782610e3a565b9050919050565b6000610e7982610e5c565b9050919050565b610e8981610e6e565b82525050565b6000602082019050610ea46000830184610e80565b92915050565b600080fd5b600080fd5b600080fd5b600080fd5b600080fd5b60008083601f840112610ed957610ed8610eb4565b5b8235905067ffffffffffffffff811115610ef657610ef5610eb9565b5b602083019150836001820283011115610f1257610f11610ebe565b5b9250929050565b6000610f2482610e10565b9050919050565b610f3481610f19565b8114610f3f57600080fd5b50565b600081359050610f5181610f2b565b92915050565b600080600060408486031215610f7057610f6f610eaa565b5b600084013567ffffffffffffffff811115610f8e57610f8d610eaf565b5b610f9a86828701610ec3565b93509350506020610fad86828701610f42565b9150509250925092565b60008060208385031215610fce57610fcd610eaa565b5b600083013567ffffffffffffffff811115610fec57610feb610eaf565b5b610ff885828601610ec3565b92509250509250929050565b7f4e487b7100000000000000000000000000000000000000000000000000000000600052602160045260246000fd5b6003811061104457611043611004565b5b50565b600081905061105582611033565b919050565b600061106582611047565b9050919050565b6110758161105a565b82525050565b6000602082019050611090600083018461106c565b92915050565b61109f81610f19565b82525050565b60006020820190506110ba6000830184611096565b92915050565b600081519050919050565b600082825260208201905092915050565b6000819050602082019050919050565b6110f581610f19565b82525050565b600061110783836110ec565b60208301905092915050565b6000602082019050919050565b600061112b826110c0565b61113581856110cb565b9350611140836110dc565b8060005b8381101561117157815161115888826110fb565b975061116383611113565b925050600181019050611144565b5085935050505092915050565b600060208201905081810360008301526111988184611120565b905092915050565b600082825260208201905092915050565b7f4f4e4c595f434f52450000000000000000000000000000000000000000000000600082015250565b60006111e76009836111a0565b91506111f2826111b1565b602082019050919050565b60006020820190508181036000830152611216816111da565b9050919050565b600081905092915050565b82818337600083830152505050565b6000611243838561121d565b9350611250838584611228565b82840190509392505050565b6000611269828486611237565b91508190509392505050565b7f414c52454144595f524547495354455245440000000000000000000000000000600082015250565b60006112ab6012836111a0565b91506112b682611275565b602082019050919050565b600060208201905081810360008301526112da8161129e565b9050919050565b60008115159050919050565b6112f6816112e1565b811461130157600080fd5b50565b600081519050611313816112ed565b92915050565b60006020828403121561132f5761132e610eaa565b5b600061133d84828501611304565b91505092915050565b7f4e4f545f415554484f52495a45445f4445414c45520000000000000000000000600082015250565b600061137c6015836111a0565b915061138782611346565b602082019050919050565b600060208201905081810360008301526113ab8161136f565b9050919050565b7f4e4f545f50524f445543545f484f4c4445520000000000000000000000000000600082015250565b60006113e86012836111a0565b91506113f3826113b2565b602082019050919050565b60006020820190508181036000830152611417816113db565b9050919050565b7f4c4f434b45440000000000000000000000000000000000000000000000000000600082015250565b60006114546006836111a0565b915061145f8261141e565b602082019050919050565b6000602082019050818103600083015261148381611447565b9050919050565b7f4e4f545f4f574e45520000000000000000000000000000000000000000000000600082015250565b60006114c06009836111a0565b91506114cb8261148a565b602082019050919050565b600060208201905081810360008301526114ef816114b3565b9050919050565b7f4e4f545f53544f4c454e00000000000000000000000000000000000000000000600082015250565b600061152c600a836111a0565b9150611537826114f6565b602082019050919050565b6000602082019050818103600083015261155b8161151f565b9050919050565b7f4e4f545f45584953540000000000000000000000000000000000000000000000600082015250565b60006115986009836111a0565b91506115a382611562565b602082019050919050565b600060208201905081810360008301526115c78161158b565b9050919050565b7f4e4f545f5452414e5346455241424c4500000000000000000000000000000000600082015250565b60006116046010836111a0565b915061160f826115ce565b602082019050919050565b60006020820190508181036000830152611633816115f7565b9050919050565b7f4241445f4e45575f4f574e455200000000000000000000000000000000000000600082015250565b6000611670600d836111a0565b915061167b8261163a565b602082019050919050565b6000602082019050818103600083015261169f81611663565b9050919050565b7f414c52454144595f4c4f434b4544000000000000000000000000000000000000600082015250565b60006116dc600e836111a0565b91506116e7826116a6565b602082019050919050565b6000602082019050818103600083015261170b816116cf565b905091905056fea2646970667358221220c390bd838f817e3677ef7c2f60716c4e15c3b49349fbabc58fd1986a16f19df164736f6c63430008180033",
  "linkReferences": {},
  "deployedLinkReferences": {}
}