{
  "_format": "hh-sol-artifact-1",
  "contractName": "TaaSShield",
  "sourceName": "contracts/TaaSShield.sol",
  "abi": [
    {
      "inputs": [
        {
          "internalType": "address",
          "name": "_core",
          "type": "address"
        }
      ],
      "stateMutability": "nonpayable",
      "type": "constructor"
    },
    {
      "anonymous": false,
      "inputs": [
        {
          "indexed": false,
          "internalType": "string",
          "name": "gpid",
          "type": "string"
        },
        {
          "indexed": false,
          "internalType": "string",
          "name": "reason",
          "type": "string"
        }
      ],
      "name": "ProductFlagged",
      "type": "event"
    },
    {
      "anonymous": false,
      "inputs": [
        {
          "indexed": false,
          "internalType": "string",
          "name": "gpid",
          "type": "string"
        }
      ],
      "name": "ProductFrozen",
      "type": "event"
    },
    {
      "anonymous": false,
      "inputs": [
        {
          "indexed": false,
          "internalType": "string",
          "name": "gpid",
          "type": "string"
        }
      ],
      "name": "ProductUnfrozen",
      "type": "event"
    },
    {
      "inputs": [],
      "name": "core",
      "outputs": [
        {
          "internalType": "address",
          "name": "",
          "type": "address"
        }
      ],
      "stateMutability": "view",
      "type": "function"
    },
    {
      "inputs": [
        {
          "internalType": "string",
          "name": "gpid",
          "type": "string"
        },
        {
          "internalType": "string",
          "name": "reason",
          "type": "string"
        }
      ],
      "name": "flag",
      "outputs": [],
      "stateMutability": "nonpayable",
      "type": "function"
    },
    {
      "inputs": [
        {
          "internalType": "string",
          "name": "",
          "type": "string"
        }
      ],
      "name": "flagged",
      "outputs": [
        {
          "internalType": "bool",
          "name": "",
          "type": "bool"
        }
      ],
      "stateMutability": "view",
      "type": "function"
    },
    {
      "inputs": [
        {
          "internalType": "string",
          "name": "gpid",
          "type": "string"
        }
      ],
      "name": "freeze",
      "outputs": [],
      "stateMutability": "nonpayable",
      "type": "function"
    },
    {
      "inputs": [
        {
          "internalType": "string",
          "name": "",
          "type": "string"
        }
      ],
      "name": "frozen",
      "outputs": [
        {
          "internalType": "bool",
          "name": "",
          "type": "bool"
        }
      ],
      "stateMutability": "view",
      "type": "function"
    },
    {
      "inputs": [
        {
          "internalType": "string",
          "name": "gpid",
          "type": "string"
        }
      ],
      "name": "status",
      "outputs": [
        {
          "internalType": "bool",
          "name": "isFrozen",
          "type": "bool"
        },
        {
          "internalType": "bool",
          "name": "isFlagged",
          "type": "bool"
        }
      ],
      "stateMutability": "view",
      "type": "function"
    },
    {
      "inputs": [
        {
          "internalType": "string",
          "name": "gpid",
          "type": "string"
        }
      ],
      "name": "unfreeze",
      "outputs": [],
      "stateMutability": "nonpayable",
      "type": "function"
    }
  ],
  "bytecode": "0x60a060405234801561001057600080fd5b50604051610cde380380610cde83398101604081905261002f91610089565b6001600160a01b0381166100785760405162461bcd60e51b815260206004820152600c60248201526b494e56414c49445f434f524560a01b604482015260640160405180910390fd5b6001600160a01b03166080526100b9565b60006020828403121561009b57600080fd5b81516001600160a01b03811681146100b257600080fd5b9392505050565b608051610be06100fe6000396000818161015d015281816101b001528181610265015281816103a20152818161044e0152818161058801526106340152610be06000f3fe608060405234801561001057600080fd5b506004361061007d5760003560e01c8063dcc5833c1161005b578063dcc5833c14610108578063e6a86fb01461011b578063e8ca64f41461012e578063f2f4eb261461015857600080fd5b806350cf0ec1146100825780636b2593c914610097578063bcce1005146100da575b600080fd5b610095610090366004610861565b610197565b005b6100c56100a53660046108c5565b805160208183018101805160008252928201919093012091525460ff1681565b60405190151581526020015b60405180910390f35b6100c56100e83660046108c5565b805160208183018101805160018252928201919093012091525460ff1681565b6100956101163660046108c5565b610389565b6100956101293660046108c5565b61056f565b61014161013c3660046108c5565b610749565b6040805192151583529015156020830152016100d1565b61017f7f000000000000000000000000000000000000000000000000000000000000000081565b6040516001600160a01b0390911681526020016100d1565b604051638addc05160e01b815282906001600160a01b037f00000000000000000000000000000000000000000000000000000000000000001690638addc051906101e5908490600401610952565b602060405180830381865afa158015610202573d6000803e3d6000fd5b505050506040513d601f19601f82011682018060405250810190610226919061096c565b61024b5760405162461bcd60e51b81526004016102429061098e565b60405180910390fd5b6040516334088e6760e11b81526000906001600160a01b037f000000000000000000000000000000000000000000000000000000000000000016906368111cce9061029a908790600401610952565b600060405180830381865afa1580156102b7573d6000803e3d6000fd5b505050506040513d6000823e601f3d908101601f191682016040526102df9190810190610a1a565b50975050505050505050806001600160a01b0316336001600160a01b03161461031a5760405162461bcd60e51b815260040161024290610b3c565b6001808560405161032b9190610b60565b908152604051908190036020018120805492151560ff19909316929092179091557f0c9f030b2be596215c023740de270928a0b1ff4314c505638ca64ea7158442979061037b9086908690610b7c565b60405180910390a150505050565b604051638addc05160e01b815281906001600160a01b037f00000000000000000000000000000000000000000000000000000000000000001690638addc051906103d7908490600401610952565b602060405180830381865afa1580156103f4573d6000803e3d6000fd5b505050506040513d601f19601f82011682018060405250810190610418919061096c565b6104345760405162461bcd60e51b81526004016102429061098e565b6040516334088e6760e11b81526000906001600160a01b037f000000000000000000000000000000000000000000000000000000000000000016906368111cce90610483908690600401610952565b600060405180830381865afa1580156104a0573d6000803e3d6000fd5b505050506040513d6000823e601f3d908101601f191682016040526104c89190810190610a1a565b50975050505050505050806001600160a01b0316336001600160a01b0316146105035760405162461bcd60e51b815260040161024290610b3c565b600080846040516105149190610b60565b908152604051908190036020018120805492151560ff19909316929092179091557f88ee7dc2dbfb14acb0bc95b3c2c4413a9bf5ef31e2293a9e14fed7a27b95c9fe90610562908590610952565b60405180910390a1505050565b604051638addc05160e01b815281906001600160a01b037f00000000000000000000000000000000000000000000000000000000000000001690638addc051906105bd908490600401610952565b602060405180830381865afa1580156105da573d6000803e3d6000fd5b505050506040513d601f19601f820116820180604052508101906105fe919061096c565b61061a5760405162461bcd60e51b81526004016102429061098e565b6040516334088e6760e11b81526000906001600160a01b037f000000000000000000000000000000000000000000000000000000000000000016906368111cce90610669908690600401610952565b600060405180830381865afa158015610686573d6000803e3d6000fd5b505050506040513d6000823e601f3d908101601f191682016040526106ae9190810190610a1a565b50975050505050505050806001600160a01b0316336001600160a01b0316146106e95760405162461bcd60e51b815260040161024290610b3c565b60016000846040516106fb9190610b60565b908152604051908190036020018120805492151560ff19909316929092179091557f432996437569244cf0e89a716f6d3c5094f854475de86fe0cae2ccf77e871e5190610562908590610952565b60008060008360405161075c9190610b60565b9081526040519081900360200181205460ff169060019061077e908690610b60565b90815260405190819003602001902054909460ff9091169350915050565b634e487b7160e01b600052604160045260246000fd5b604051601f8201601f1916810167ffffffffffffffff811182821017156107db576107db61079c565b604052919050565b600067ffffffffffffffff8211156107fd576107fd61079c565b50601f01601f191660200190565b600082601f83011261081c57600080fd5b813561082f61082a826107e3565b6107b2565b81815284602083860101111561084457600080fd5b816020850160208301376000918101602001919091529392505050565b6000806040838503121561087457600080fd5b823567ffffffffffffffff8082111561088c57600080fd5b6108988683870161080b565b935060208501359150808211156108ae57600080fd5b506108bb8582860161080b565b9150509250929050565b6000602082840312156108d757600080fd5b813567ffffffffffffffff8111156108ee57600080fd5b6108fa8482850161080b565b949350505050565b60005b8381101561091d578181015183820152602001610905565b50506000910152565b6000815180845261093e816020860160208601610902565b601f01601f19169290920160200192915050565b6020815260006109656020830184610926565b9392505050565b60006020828403121561097e57600080fd5b8151801515811461096557600080fd5b602080825260119082015270141493d11550d517d393d517d193d55391607a1b604082015260600190565b600082601f8301126109ca57600080fd5b81516109d861082a826107e3565b8181528460208386010111156109ed57600080fd5b6108fa826020830160208701610902565b80516001600160a01b0381168114610a1557600080fd5b919050565b60008060008060008060008060006101208a8c031215610a3957600080fd5b895167ffffffffffffffff80821115610a5157600080fd5b610a5d8d838e016109b9565b9a5060208c0151915080821115610a7357600080fd5b610a7f8d838e016109b9565b995060408c0151915080821115610a9557600080fd5b610aa18d838e016109b9565b985060608c0151915080821115610ab757600080fd5b610ac38d838e016109b9565b975060808c0151915080821115610ad957600080fd5b610ae58d838e016109b9565b965060a08c0151915080821115610afb57600080fd5b50610b088c828d016109b9565b94505060c08a01519250610b1e60e08b016109fe565b9150610b2d6101008b016109fe565b90509295985092959850929598565b6020808252600a90820152692727aa2fa4a9a9aaa2a960b11b604082015260600190565b60008251610b72818460208701610902565b9190910192915050565b604081526000610b8f6040830185610926565b8281036020840152610ba18185610926565b9594505050505056fea26469706673582212204349898824136ef035e4dd6ec133d9092a3562beffcc2b48e901515eab3654f564736f6c63430008180033",
  "linkReferences": {},
  "deployedLinkReferences": {}
}