{
  "_format": "hh-sol-artifact-1",
  "contractName": "TaaSShield",
  "sourceName": "contracts/TaaSShield.sol",
  "abi": [
    {
      "inputs": [
        {
          "internalType": "address",
          "name": "_core",
          "type": "address"
        }
      ],
      "stateMutability": "nonpayable",
      "type": "constructor"
    },
    {
      "anonymous": false,
      "inputs": [
        {
          "indexed": false,
          "internalType": "string",
          "name": "gpid",
          "type": "string"
        },
        {
          "indexed": false,
          "internalType": "string",
          "name": "reason",
          "type": "string"
        }
      ],
      "name": "ProductFlagged",
      "type": "event"
    },
    {
      "anonymous": false,
      "inputs": [
        {
          "indexed": false,
          "internalType": "string",
          "name": "gpid",
          "type": "string"
        }
      ],
      "name": "ProductFrozen",
      "type": "event"
    },
    {
      "anonymous": false,
      "inputs": [
        {
          "indexed": false,
          "internalType": "string",
          "name": "gpid",
          "type": "string"
        }
      ],
      "name": "ProductUnfrozen",
      "type": "event"
    },
    {
      "inputs": [],
      "name": "core",
      "outputs": [
        {
          "internalType": "address",
          "name": "",
          "type": "address"
        }
      ],
      "stateMutability": "view",
      "type": "function"
    },
    {
      "inputs": [
        {
          "internalType": "string",
          "name": "gpid",
          "type": "string"
        },
        {
          "internalType": "string",
          "name": "reason",
          "type": "string"
        }
      ],
      "name": "flag",
      "outputs": [],
      "stateMutability": "nonpayable",
      "type": "function"
    },
    {
      "inputs": [
        {
          "internalType": "string",
          "name": "",
          "type": "string"
        }
      ],
      "name": "flagged",
      "outputs": [
        {
          "internalType": "bool",
          "name": "",
          "type": "bool"
        }
      ],
      "stateMutability": "view",
      "type": "function"
    },
    {
      "inputs": [
        {
          "internalType": "string",
          "name": "gpid",
          "type": "string"
        }
      ],
      "name": "freeze",
      "outputs": [],
      "stateMutability": "nonpayable",
      "type": "function"
    },
    {
      "inputs": [
        {
          "internalType": "string",
          "name": "",
          "type": "string"
        }
      ],
      "name": "frozen",
      "outputs": [
        {
          "internalType": "bool",
          "name": "",
          "type": "bool"
        }
      ],
      "stateMutability": "view",
      "type": "function"
    },
    {
      "inputs": [
        {
          "internalType": "string",
          "name": "gpid",
          "type": "string"
        }
      ],
      "name": "status",
      "outputs": [
        {
          "internalType": "bool",
          "name": "isFrozen",
          "type": "bool"
        },
        {
          "internalType": "bool",
          "name": "isFlagged",
          "type": "bool"
        }
      ],
      "stateMutability": "view",
      "type": "function"
    },
    {
      "inputs": [
        {
          "internalType": "string",
          "name": "gpid",
          "type": "string"
        }
      ],
      "name": "unfreeze",
      "outputs": [],
      "stateMutability": "nonpayable",
      "type": "function"
    }
  ],
  "bytecode": "0x60a06040523480156200001157600080fd5b50604051620013a1380380620013a183398181016040528101906200003791906200014e565b600073ffffffffffffffffffffffffffffffffffffffff168173ffffffffffffffffffffffffffffffffffffffff1603620000a9576040517f08c379a0000000000000000000000000000000000000000000000000000000008152600401620000a090620001e1565b60405180910390fd5b8073ffffffffffffffffffffffffffffffffffffffff1660808173ffffffffffffffffffffffffffffffffffffffff16815250505062000203565b600080fd5b600073ffffffffffffffffffffffffffffffffffffffff82169050919050565b60006200011682620000e9565b9050919050565b620001288162000109565b81146200013457600080fd5b50565b60008151905062000148816200011d565b92915050565b600060208284031215620001675762000166620000e4565b5b6000620001778482850162000137565b91505092915050565b600082825260208201905092915050565b7f494e56414c49445f434f52450000000000000000000000000000000000000000600082015250565b6000620001c9600c8362000180565b9150620001d68262000191565b602082019050919050565b60006020820190508181036000830152620001fc81620001ba565b9050919050565b6080516111586200024960003960008181610188015281816102630152818161045c01528181610537015281816106c10152818161079c015261098a01526111586000f3fe608060405234801561001057600080fd5b506004361061007d5760003560e01c8063dcc5833c1161005b578063dcc5833c146100fe578063e6a86fb01461011a578063e8ca64f414610136578063f2f4eb26146101675761007d565b806350cf0ec1146100825780636b2593c91461009e578063bcce1005146100ce575b600080fd5b61009c60048036038101906100979190610b06565b610185565b005b6100b860048036038101906100b39190610b7e565b6103ed565b6040516100c59190610be2565b60405180910390f35b6100e860048036038101906100e39190610b7e565b610423565b6040516100f59190610be2565b60405180910390f35b61011860048036038101906101139190610b7e565b610459565b005b610134600480360381019061012f9190610b7e565b6106be565b005b610150600480360381019061014b9190610b7e565b610924565b60405161015e929190610bfd565b60405180910390f35b61016f610988565b60405161017c9190610c67565b60405180910390f35b817f000000000000000000000000000000000000000000000000000000000000000073ffffffffffffffffffffffffffffffffffffffff16638addc051826040518263ffffffff1660e01b81526004016101df9190610d01565b602060405180830381865afa1580156101fc573d6000803e3d6000fd5b505050506040513d601f19601f820116820180604052508101906102209190610d4f565b61025f576040517f08c379a000000000000000000000000000000000000000000000000000000000815260040161025690610dc8565b60405180910390fd5b60007f000000000000000000000000000000000000000000000000000000000000000073ffffffffffffffffffffffffffffffffffffffff166368111cce856040518263ffffffff1660e01b81526004016102ba9190610d01565b600060405180830381865afa1580156102d7573d6000803e3d6000fd5b505050506040513d6000823e3d601f19601f820116820180604052508101906103009190610eba565b509750505050505050508073ffffffffffffffffffffffffffffffffffffffff163373ffffffffffffffffffffffffffffffffffffffff1614610378576040517f08c379a000000000000000000000000000000000000000000000000000000000815260040161036f90611078565b60405180910390fd5b6001808560405161038991906110d4565b908152602001604051809103902060006101000a81548160ff0219169083151502179055507f0c9f030b2be596215c023740de270928a0b1ff4314c505638ca64ea71584429784846040516103df9291906110eb565b60405180910390a150505050565b6000818051602081018201805184825260208301602085012081835280955050505050506000915054906101000a900460ff1681565b6001818051602081018201805184825260208301602085012081835280955050505050506000915054906101000a900460ff1681565b807f000000000000000000000000000000000000000000000000000000000000000073ffffffffffffffffffffffffffffffffffffffff16638addc051826040518263ffffffff1660e01b81526004016104b39190610d01565b602060405180830381865afa1580156104d0573d6000803e3d6000fd5b505050506040513d601f19601f820116820180604052508101906104f49190610d4f565b610533576040517f08c379a000000000000000000000000000000000000000000000000000000000815260040161052a90610dc8565b60405180910390fd5b60007f000000000000000000000000000000000000000000000000000000000000000073ffffffffffffffffffffffffffffffffffffffff166368111cce846040518263ffffffff1660e01b815260040161058e9190610d01565b600060405180830381865afa1580156105ab573d6000803e3d6000fd5b505050506040513d6000823e3d601f19601f820116820180604052508101906105d49190610eba565b509750505050505050508073ffffffffffffffffffffffffffffffffffffffff163373ffffffffffffffffffffffffffffffffffffffff161461064c576040517f08c379a000000000000000000000000000000000000000000000000000000000815260040161064390611078565b60405180910390fd5b6000808460405161065d91906110d4565b908152602001604051809103902060006101000a81548160ff0219169083151502179055507f88ee7dc2dbfb14acb0bc95b3c2c4413a9bf5ef31e2293a9e14fed7a27b95c9fe836040516106b19190610d01565b60405180910390a1505050565b807f000000000000000000000000000000000000000000000000000000000000000073ffffffffffffffffffffffffffffffffffffffff16638addc051826040518263ffffffff1660e01b81526004016107189190610d01565b602060405180830381865afa158015610735573d6000803e3d6000fd5b505050506040513d601f19601f820116820180604052508101906107599190610d4f565b610798576040517f08c379a000000000000000000000000000000000000000000000000000000000815260040161078f90610dc8565b60405180910390fd5b60007f000000000000000000000000000000000000000000000000000000000000000073ffffffffffffffffffffffffffffffffffffffff166368111cce846040518263ffffffff1660e01b81526004016107f39190610d01565b600060405180830381865afa158015610810573d6000803e3d6000fd5b505050506040513d6000823e3d601f19601f820116820180604052508101906108399190610eba565b509750505050505050508073ffffffffffffffffffffffffffffffffffffffff163373ffffffffffffffffffffffffffffffffffffffff16146108b1576040517f08c379a00000000000000000000000000000000000000000000000000000000081526004016108a890611078565b60405180910390fd5b60016000846040516108c391906110d4565b908152602001604051809103902060006101000a81548160ff0219169083151502179055507f432996437569244cf0e89a716f6d3c5094f854475de86fe0cae2ccf77e871e51836040516109179190610d01565b60405180910390a1505050565b60008060008360405161093791906110d4565b908152602001604051809103902060009054906101000a900460ff1660018460405161096391906110d4565b908152602001604051809103902060009054906101000a900460ff1691509150915091565b7f000000000000000000000000000000000000000000000000000000000000000081565b6000604051905090565b600080fd5b600080fd5b600080fd5b600080fd5b6000601f19601f8301169050919050565b7f4e487b7100000000000000000000000000000000000000000000000000000000600052604160045260246000fd5b610a13826109ca565b810181811067ffffffffffffffff82111715610a3257610a316109db565b5b80604052505050565b6000610a456109ac565b9050610a518282610a0a565b919050565b600067ffffffffffffffff821115610a7157610a706109db565b5b610a7a826109ca565b9050602081019050919050565b82818337600083830152505050565b6000610aa9610aa484610a56565b610a3b565b905082815260208101848484011115610ac557610ac46109c5565b5b610ad0848285610a87565b509392505050565b600082601f830112610aed57610aec6109c0565b5b8135610afd848260208601610a96565b91505092915050565b60008060408385031215610b1d57610b1c6109b6565b5b600083013567ffffffffffffffff811115610b3b57610b3a6109bb565b5b610b4785828601610ad8565b925050602083013567ffffffffffffffff811115610b6857610b676109bb565b5b610b7485828601610ad8565b9150509250929050565b600060208284031215610b9457610b936109b6565b5b600082013567ffffffffffffffff811115610bb257610bb16109bb565b5b610bbe84828501610ad8565b91505092915050565b60008115159050919050565b610bdc81610bc7565b82525050565b6000602082019050610bf76000830184610bd3565b92915050565b6000604082019050610c126000830185610bd3565b610c1f6020830184610bd3565b9392505050565b600073ffffffffffffffffffffffffffffffffffffffff82169050919050565b6000610c5182610c26565b9050919050565b610c6181610c46565b82525050565b6000602082019050610c7c6000830184610c58565b92915050565b600081519050919050565b600082825260208201905092915050565b60005b83811015610cbc578082015181840152602081019050610ca1565b60008484015250505050565b6000610cd382610c82565b610cdd8185610c8d565b9350610ced818560208601610c9e565b610cf6816109ca565b840191505092915050565b60006020820190508181036000830152610d1b8184610cc8565b905092915050565b610d2c81610bc7565b8114610d3757600080fd5b50565b600081519050610d4981610d23565b92915050565b600060208284031215610d6557610d646109b6565b5b6000610d7384828501610d3a565b91505092915050565b7f50524f445543545f4e4f545f464f554e44000000000000000000000000000000600082015250565b6000610db2601183610c8d565b9150610dbd82610d7c565b602082019050919050565b60006020820190508181036000830152610de181610da5565b9050919050565b6000610dfb610df684610a56565b610a3b565b905082815260208101848484011115610e1757610e166109c5565b5b610e22848285610c9e565b509392505050565b600082601f830112610e3f57610e3e6109c0565b5b8151610e4f848260208601610de8565b91505092915050565b6000819050919050565b610e6b81610e58565b8114610e7657600080fd5b50565b600081519050610e8881610e62565b92915050565b610e9781610c46565b8114610ea257600080fd5b50565b600081519050610eb481610e8e565b92915050565b60008060008060008060008060006101208a8c031215610edd57610edc6109b6565b5b60008a015167ffffffffffffffff811115610efb57610efa6109bb565b5b610f078c828d01610e2a565b99505060208a015167ffffffffffffffff811115610f2857610f276109bb565b5b610f348c828d01610e2a565b98505060408a015167ffffffffffffffff811115610f5557610f546109bb565b5b610f618c828d01610e2a565b97505060608a015167ffffffffffffffff811115610f8257610f816109bb565b5b610f8e8c828d01610e2a565b96505060808a015167ffffffffffffffff811115610faf57610fae6109bb565b5b610fbb8c828d01610e2a565b95505060a08a015167ffffffffffffffff811115610fdc57610fdb6109bb565b5b610fe88c828d01610e2a565b94505060c0610ff98c828d01610e79565b93505060e061100a8c828d01610ea5565b92505061010061101c8c828d01610ea5565b9150509295985092959850929598565b7f4e4f545f49535355455200000000000000000000000000000000000000000000600082015250565b6000611062600a83610c8d565b915061106d8261102c565b602082019050919050565b6000602082019050818103600083015261109181611055565b9050919050565b600081905092915050565b60006110ae82610c82565b6110b88185611098565b93506110c8818560208601610c9e565b80840191505092915050565b60006110e082846110a3565b915081905092915050565b600060408201905081810360008301526111058185610cc8565b905081810360208301526111198184610cc8565b9050939250505056fea2646970667358221220cf9671b1c094e7f1c37dac9878d040492c6303dfff068c5ccfe8bbdd93077a6964736f6c63430008180033",
  "linkReferences": {},
  "deployedLinkReferences": {}
}