{
  "_format": "hh-sol-artifact-1",
  "contractName": "TaaSAuthorityRegistry",
  "sourceName": "contracts/TaaSAuthorityRegistry.sol",
  "abi": [
    {
      "inputs": [],
      "stateMutability": "nonpayable",
      "type": "constructor"
    },
    {
      "inputs": [
        {
          "internalType": "address",
          "name": "user",
          "type": "address"
        }
      ],
      "name": "addAuthority",
      "outputs": [],
      "stateMutability": "nonpayable",
      "type": "function"
    },
    {
      "inputs": [
        {
          "internalType": "address",
          "name": "",
          "type": "address"
        }
      ],
      "name": "authorities",
      "outputs": [
        {
          "internalType": "bool",
          "name": "",
          "type": "bool"
        }
      ],
      "stateMutability": "view",
      "type": "function"
    },
    {
      "inputs": [
        {
          "internalType": "address",
          "name": "user",
          "type": "address"
        }
      ],
      "name": "isAuthority",
      "outputs": [
        {
          "internalType": "bool",
          "name": "",
          "type": "bool"
        }
      ],
      "stateMutability": "view",
      "type": "function"
    },
    {
      "inputs": [],
      "name": "owner",
      "outputs": [
        {
          "internalType": "address",
          "name": "",
          "type": "address"
        }
      ],
      "stateMutability": "view",
      "type": "function"
    },
    {
      "inputs": [
        {
          "internalType": "address",
          "name": "user",
          "type": "address"
        }
      ],
      "name": "removeAuthority",
      "outputs": [],
      "stateMutability": "nonpayable",
      "type": "function"
    }
  ],
  "bytecode": "0x608060405234801561001057600080fd5b50600080546001600160a01b0319163390811782558152600160208190526040909120805460ff191690911790556102528061004d6000396000f3fe608060405234801561001057600080fd5b50600436106100575760003560e01c80632330f2471461005c57806326defa731461009d5780638da5cb5b146100b257806391223d69146100dd578063d544e01014610100575b600080fd5b61008861006a3660046101ec565b6001600160a01b031660009081526001602052604090205460ff1690565b60405190151581526020015b60405180910390f35b6100b06100ab3660046101ec565b610113565b005b6000546100c5906001600160a01b031681565b6040516001600160a01b039091168152602001610094565b6100886100eb3660046101ec565b60016020526000908152604090205460ff1681565b6100b061010e3660046101ec565b610185565b6000546001600160a01b0316331461015e5760405162461bcd60e51b81526020600482015260096024820152682727aa2fa7aba722a960b91b60448201526064015b60405180910390fd5b6001600160a01b03166000908152600160208190526040909120805460ff19169091179055565b6000546001600160a01b031633146101cb5760405162461bcd60e51b81526020600482015260096024820152682727aa2fa7aba722a960b91b6044820152606401610155565b6001600160a01b03166000908152600160205260409020805460ff19169055565b6000602082840312156101fe57600080fd5b81356001600160a01b038116811461021557600080fd5b939250505056fea26469706673582212201ec016cc6f7495fbcd93cd562d39d5cb3a4859f9b10d4fef4adddf5ba453780a64736f6c63430008180033",
  "linkReferences": {},
  "deployedLinkReferences": {}
}