{
  "_format": "hh-sol-artifact-1",
  "contractName": "TaaSRootControl",
  "sourceName": "contracts/TaaSRootControl.sol",
  "abi": [
    {
      "inputs": [],
      "stateMutability": "nonpayable",
      "type": "constructor"
    },
    {
      "anonymous": false,
      "inputs": [
        {
          "indexed": true,
          "internalType": "address",
          "name": "authority",
          "type": "address"
        }
      ],
      "name": "AuthorityAdded",
      "type": "event"
    },
    {
      "anonymous": false,
      "inputs": [
        {
          "indexed": true,
          "internalType": "address",
          "name": "target",
          "type": "address"
        }
      ],
      "name": "Blacklisted",
      "type": "event"
    },
    {
      "anonymous": false,
      "inputs": [
        {
          "indexed": true,
          "internalType": "address",
          "name": "brand",
          "type": "address"
        }
      ],
      "name": "BrandAdded",
      "type": "event"
    },
    {
      "anonymous": false,
      "inputs": [
        {
          "indexed": true,
          "internalType": "address",
          "name": "dealer",
          "type": "address"
        }
      ],
      "name": "DealerAdded",
      "type": "event"
    },
    {
      "anonymous": false,
      "inputs": [
        {
          "indexed": true,
          "internalType": "address",
          "name": "factory",
          "type": "address"
        }
      ],
      "name": "FactoryAdded",
      "type": "event"
    },
    {
      "anonymous": false,
      "inputs": [
        {
          "indexed": true,
          "internalType": "address",
          "name": "target",
          "type": "address"
        }
      ],
      "name": "Revoked",
      "type": "event"
    },
    {
      "inputs": [
        {
          "internalType": "address",
          "name": "a",
          "type": "address"
        }
      ],
      "name": "addAuthority",
      "outputs": [],
      "stateMutability": "nonpayable",
      "type": "function"
    },
    {
      "inputs": [
        {
          "internalType": "address",
          "name": "a",
          "type": "address"
        }
      ],
      "name": "addBrand",
      "outputs": [],
      "stateMutability": "nonpayable",
      "type": "function"
    },
    {
      "inputs": [
        {
          "internalType": "address",
          "name": "a",
          "type": "address"
        }
      ],
      "name": "addDealer",
      "outputs": [],
      "stateMutability": "nonpayable",
      "type": "function"
    },
    {
      "inputs": [
        {
          "internalType": "address",
          "name": "a",
          "type": "address"
        }
      ],
      "name": "addFactory",
      "outputs": [],
      "stateMutability": "nonpayable",
      "type": "function"
    },
    {
      "inputs": [
        {
          "internalType": "address",
          "name": "",
          "type": "address"
        }
      ],
      "name": "authorities",
      "outputs": [
        {
          "internalType": "bool",
          "name": "",
          "type": "bool"
        }
      ],
      "stateMutability": "view",
      "type": "function"
    },
    {
      "inputs": [
        {
          "internalType": "address",
          "name": "a",
          "type": "address"
        }
      ],
      "name": "blacklist",
      "outputs": [],
      "stateMutability": "nonpayable",
      "type": "function"
    },
    {
      "inputs": [
        {
          "internalType": "address",
          "name": "",
          "type": "address"
        }
      ],
      "name": "blacklisted",
      "outputs": [
        {
          "internalType": "bool",
          "name": "",
          "type": "bool"
        }
      ],
      "stateMutability": "view",
      "type": "function"
    },
    {
      "inputs": [
        {
          "internalType": "address",
          "name": "",
          "type": "address"
        }
      ],
      "name": "brands",
      "outputs": [
        {
          "internalType": "bool",
          "name": "",
          "type": "bool"
        }
      ],
      "stateMutability": "view",
      "type": "function"
    },
    {
      "inputs": [
        {
          "internalType": "address",
          "name": "",
          "type": "address"
        }
      ],
      "name": "dealers",
      "outputs": [
        {
          "internalType": "bool",
          "name": "",
          "type": "bool"
        }
      ],
      "stateMutability": "view",
      "type": "function"
    },
    {
      "inputs": [
        {
          "internalType": "address",
          "name": "",
          "type": "address"
        }
      ],
      "name": "factories",
      "outputs": [
        {
          "internalType": "bool",
          "name": "",
          "type": "bool"
        }
      ],
      "stateMutability": "view",
      "type": "function"
    },
    {
      "inputs": [
        {
          "internalType": "address",
          "name": "a",
          "type": "address"
        }
      ],
      "name": "isAuthority",
      "outputs": [
        {
          "internalType": "bool",
          "name": "",
          "type": "bool"
        }
      ],
      "stateMutability": "view",
      "type": "function"
    },
    {
      "inputs": [
        {
          "internalType": "address",
          "name": "a",
          "type": "address"
        }
      ],
      "name": "isBlacklisted",
      "outputs": [
        {
          "internalType": "bool",
          "name": "",
          "type": "bool"
        }
      ],
      "stateMutability": "view",
      "type": "function"
    },
    {
      "inputs": [
        {
          "internalType": "address",
          "name": "a",
          "type": "address"
        }
      ],
      "name": "isBrand",
      "outputs": [
        {
          "internalType": "bool",
          "name": "",
          "type": "bool"
        }
      ],
      "stateMutability": "view",
      "type": "function"
    },
    {
      "inputs": [
        {
          "internalType": "address",
          "name": "a",
          "type": "address"
        }
      ],
      "name": "isDealer",
      "outputs": [
        {
          "internalType": "bool",
          "name": "",
          "type": "bool"
        }
      ],
      "stateMutability": "view",
      "type": "function"
    },
    {
      "inputs": [
        {
          "internalType": "address",
          "name": "a",
          "type": "address"
        }
      ],
      "name": "isFactory",
      "outputs": [
        {
          "internalType": "bool",
          "name": "",
          "type": "bool"
        }
      ],
      "stateMutability": "view",
      "type": "function"
    },
    {
      "inputs": [],
      "name": "owner",
      "outputs": [
        {
          "internalType": "address",
          "name": "",
          "type": "address"
        }
      ],
      "stateMutability": "view",
      "type": "function"
    },
    {
      "inputs": [
        {
          "internalType": "address",
          "name": "a",
          "type": "address"
        }
      ],
      "name": "removeAuthority",
      "outputs": [],
      "stateMutability": "nonpayable",
      "type": "function"
    },
    {
      "inputs": [
        {
          "internalType": "address",
          "name": "a",
          "type": "address"
        }
      ],
      "name": "revoke",
      "outputs": [],
      "stateMutability": "nonpayable",
      "type": "function"
    }
  ],
  "bytecode": "0x608060405234801561001057600080fd5b50600080546001600160a01b0319163390811782558152600160208190526040909120805460ff191690911790556107ad8061004d6000396000f3fe608060405234801561001057600080fd5b50600436106101165760003560e01c80638da5cb5b116100a2578063f62fe1d511610071578063f62fe1d5146102bc578063f9f92be4146102df578063fab52689146102f2578063fe2e81d414610315578063fe575a871461034157600080fd5b80638da5cb5b1461023857806391223d6914610263578063d544e01014610286578063dbac26e91461029957600080fd5b806326defa73116100e957806326defa73146101c957806329ce1ec5146101dc57806358aa5b2b146101ef5780635b7fd9b51461020257806374a8f1031461022557600080fd5b806305a5562d1461011b57806306d6cb761461015c5780630f04ba67146101715780632330f2471461019d575b600080fd5b610147610129366004610720565b6001600160a01b031660009081526002602052604090205460ff1690565b60405190151581526020015b60405180910390f35b61016f61016a366004610720565b61036d565b005b61014761017f366004610720565b6001600160a01b031660009081526003602052604090205460ff1690565b6101476101ab366004610720565b6001600160a01b031660009081526001602052604090205460ff1690565b61016f6101d7366004610720565b6103f1565b61016f6101ea366004610720565b610486565b61016f6101fd366004610720565b610501565b610147610210366004610720565b60026020526000908152604090205460ff1681565b61016f610233366004610720565b61057c565b60005461024b906001600160a01b031681565b6040516001600160a01b039091168152602001610153565b610147610271366004610720565b60016020526000908152604090205460ff1681565b61016f610294366004610720565b610616565b6101476102a7366004610720565b60056020526000908152604090205460ff1681565b6101476102ca366004610720565b60046020526000908152604090205460ff1681565b61016f6102ed366004610720565b6106a5565b610147610300366004610720565b60036020526000908152604090205460ff1681565b610147610323366004610720565b6001600160a01b031660009081526004602052604090205460ff1690565b61014761034f366004610720565b6001600160a01b031660009081526005602052604090205460ff1690565b3360009081526001602052604090205460ff166103a55760405162461bcd60e51b815260040161039c90610750565b60405180910390fd5b6001600160a01b038116600081815260046020526040808220805460ff19166001179055517f98f3b9743e04ddffc992c14d8217e2d0467e51bbec660a88b2c756e6eebc4e649190a250565b6000546001600160a01b031633146104375760405162461bcd60e51b81526020600482015260096024820152682727aa2fa7aba722a960b91b604482015260640161039c565b6001600160a01b0381166000818152600160208190526040808320805460ff1916909217909155517f550a8ae64ec9d6640b6f168a26d3e6364b90defe8110c92135aa775b279e54ea9190a250565b3360009081526001602052604090205460ff166104b55760405162461bcd60e51b815260040161039c90610750565b6001600160a01b038116600081815260036020526040808220805460ff19166001179055517f6fdc0147105e43e21da80a75b42d0fd464060d5e1a34b0cefbf0b4ccfc2e36a19190a250565b3360009081526001602052604090205460ff166105305760405162461bcd60e51b815260040161039c90610750565b6001600160a01b038116600081815260026020526040808220805460ff19166001179055517ff294465ab6aaa3650993093431777d23cda2be98f0ce448bbd202694c8beafb99190a250565b3360009081526001602052604090205460ff166105ab5760405162461bcd60e51b815260040161039c90610750565b6001600160a01b0381166000818152600260209081526040808320805460ff199081169091556003835281842080548216905560049092528083208054909216909155517fb6fa8b8bd5eab60f292eca876e3ef90722275b785309d84b1de113ce0b8c4e749190a250565b6000546001600160a01b0316331461065c5760405162461bcd60e51b81526020600482015260096024820152682727aa2fa7aba722a960b91b604482015260640161039c565b6001600160a01b038116600081815260016020526040808220805460ff19169055517fb6fa8b8bd5eab60f292eca876e3ef90722275b785309d84b1de113ce0b8c4e749190a250565b3360009081526001602052604090205460ff166106d45760405162461bcd60e51b815260040161039c90610750565b6001600160a01b038116600081815260056020526040808220805460ff19166001179055517fffa4e6181777692565cf28528fc88fd1516ea86b56da075235fa575af6a4b8559190a250565b60006020828403121561073257600080fd5b81356001600160a01b038116811461074957600080fd5b9392505050565b6020808252600d908201526c4e4f545f415554484f5249545960981b60408201526060019056fea264697066735822122072180a6781f31994580c596ce0972820171f956af8231652714311d9610933a464736f6c63430008180033",
  "linkReferences": {},
  "deployedLinkReferences": {}
}