{
  "_format": "hh-sol-artifact-1",
  "contractName": "TaaSOwnershipHistory",
  "sourceName": "contracts/TaaSOwnershipHistory.sol",
  "abi": [
    {
      "inputs": [
        {
          "internalType": "address",
          "name": "coreAddress",
          "type": "address"
        }
      ],
      "stateMutability": "nonpayable",
      "type": "constructor"
    },
    {
      "inputs": [],
      "name": "core",
      "outputs": [
        {
          "internalType": "address",
          "name": "",
          "type": "address"
        }
      ],
      "stateMutability": "view",
      "type": "function"
    },
    {
      "inputs": [
        {
          "internalType": "string",
          "name": "gpid",
          "type": "string"
        }
      ],
      "name": "getHistory",
      "outputs": [
        {
          "components": [
            {
              "internalType": "address",
              "name": "from",
              "type": "address"
            },
            {
              "internalType": "address",
              "name": "to",
              "type": "address"
            },
            {
              "internalType": "uint256",
              "name": "time",
              "type": "uint256"
            }
          ],
          "internalType": "struct TaaSOwnershipHistory.Transfer[]",
          "name": "",
          "type": "tuple[]"
        }
      ],
      "stateMutability": "view",
      "type": "function"
    },
    {
      "inputs": [
        {
          "internalType": "string",
          "name": "gpid",
          "type": "string"
        },
        {
          "internalType": "address",
          "name": "from",
          "type": "address"
        },
        {
          "internalType": "address",
          "name": "to",
          "type": "address"
        }
      ],
      "name": "recordTransfer",
      "outputs": [],
      "stateMutability": "nonpayable",
      "type": "function"
    }
  ],
  "bytecode": "0x608060405234801561001057600080fd5b50604051610cf4380380610cf4833981810160405281019061003291906100db565b806000806101000a81548173ffffffffffffffffffffffffffffffffffffffff021916908373ffffffffffffffffffffffffffffffffffffffff16021790555050610108565b600080fd5b600073ffffffffffffffffffffffffffffffffffffffff82169050919050565b60006100a88261007d565b9050919050565b6100b88161009d565b81146100c357600080fd5b50565b6000815190506100d5816100af565b92915050565b6000602082840312156100f1576100f0610078565b5b60006100ff848285016100c6565b91505092915050565b610bdd806101176000396000f3fe608060405234801561001057600080fd5b50600436106100415760003560e01c8063b78567a314610046578063e360736e14610062578063f2f4eb2614610092575b600080fd5b610060600480360381019061005b9190610607565b6100b0565b005b61007c60048036038101906100779190610676565b6102f8565b60405161008991906107d8565b60405180910390f35b61009a61042b565b6040516100a79190610809565b60405180910390f35b60008060009054906101000a900473ffffffffffffffffffffffffffffffffffffffff1673ffffffffffffffffffffffffffffffffffffffff166368111cce856040518263ffffffff1660e01b815260040161010c91906108a3565b600060405180830381865afa158015610129573d6000803e3d6000fd5b505050506040513d6000823e3d601f19601f820116820180604052508101906101529190610976565b985050505050505050508273ffffffffffffffffffffffffffffffffffffffff168173ffffffffffffffffffffffffffffffffffffffff16146101ca576040517f08c379a00000000000000000000000000000000000000000000000000000000081526004016101c190610b34565b60405180910390fd5b6001846040516101da9190610b90565b908152602001604051809103902060405180606001604052808573ffffffffffffffffffffffffffffffffffffffff1681526020018473ffffffffffffffffffffffffffffffffffffffff16815260200142815250908060018154018082558091505060019003906000526020600020906003020160009091909190915060008201518160000160006101000a81548173ffffffffffffffffffffffffffffffffffffffff021916908373ffffffffffffffffffffffffffffffffffffffff16021790555060208201518160010160006101000a81548173ffffffffffffffffffffffffffffffffffffffff021916908373ffffffffffffffffffffffffffffffffffffffff16021790555060408201518160020155505050505050565b606060018260405161030a9190610b90565b9081526020016040518091039020805480602002602001604051908101604052809291908181526020016000905b8282101561042057838290600052602060002090600302016040518060600160405290816000820160009054906101000a900473ffffffffffffffffffffffffffffffffffffffff1673ffffffffffffffffffffffffffffffffffffffff1673ffffffffffffffffffffffffffffffffffffffff1681526020016001820160009054906101000a900473ffffffffffffffffffffffffffffffffffffffff1673ffffffffffffffffffffffffffffffffffffffff1673ffffffffffffffffffffffffffffffffffffffff16815260200160028201548152505081526020019060010190610338565b505050509050919050565b60008054906101000a900473ffffffffffffffffffffffffffffffffffffffff1681565b6000604051905090565b600080fd5b600080fd5b600080fd5b600080fd5b6000601f19601f8301169050919050565b7f4e487b7100000000000000000000000000000000000000000000000000000000600052604160045260246000fd5b6104b68261046d565b810181811067ffffffffffffffff821117156104d5576104d461047e565b5b80604052505050565b60006104e861044f565b90506104f482826104ad565b919050565b600067ffffffffffffffff8211156105145761051361047e565b5b61051d8261046d565b9050602081019050919050565b82818337600083830152505050565b600061054c610547846104f9565b6104de565b90508281526020810184848401111561056857610567610468565b5b61057384828561052a565b509392505050565b600082601f8301126105905761058f610463565b5b81356105a0848260208601610539565b91505092915050565b600073ffffffffffffffffffffffffffffffffffffffff82169050919050565b60006105d4826105a9565b9050919050565b6105e4816105c9565b81146105ef57600080fd5b50565b600081359050610601816105db565b92915050565b6000806000606084860312156106205761061f610459565b5b600084013567ffffffffffffffff81111561063e5761063d61045e565b5b61064a8682870161057b565b935050602061065b868287016105f2565b925050604061066c868287016105f2565b9150509250925092565b60006020828403121561068c5761068b610459565b5b600082013567ffffffffffffffff8111156106aa576106a961045e565b5b6106b68482850161057b565b91505092915050565b600081519050919050565b600082825260208201905092915050565b6000819050602082019050919050565b6106f4816105c9565b82525050565b6000819050919050565b61070d816106fa565b82525050565b60608201600082015161072960008501826106eb565b50602082015161073c60208501826106eb565b50604082015161074f6040850182610704565b50505050565b60006107618383610713565b60608301905092915050565b6000602082019050919050565b6000610785826106bf565b61078f81856106ca565b935061079a836106db565b8060005b838110156107cb5781516107b28882610755565b97506107bd8361076d565b92505060018101905061079e565b5085935050505092915050565b600060208201905081810360008301526107f2818461077a565b905092915050565b610803816105c9565b82525050565b600060208201905061081e60008301846107fa565b92915050565b600081519050919050565b600082825260208201905092915050565b60005b8381101561085e578082015181840152602081019050610843565b60008484015250505050565b600061087582610824565b61087f818561082f565b935061088f818560208601610840565b6108988161046d565b840191505092915050565b600060208201905081810360008301526108bd818461086a565b905092915050565b60006108d86108d3846104f9565b6104de565b9050828152602081018484840111156108f4576108f3610468565b5b6108ff848285610840565b509392505050565b600082601f83011261091c5761091b610463565b5b815161092c8482602086016108c5565b91505092915050565b61093e816106fa565b811461094957600080fd5b50565b60008151905061095b81610935565b92915050565b600081519050610970816105db565b92915050565b60008060008060008060008060006101208a8c03121561099957610998610459565b5b60008a015167ffffffffffffffff8111156109b7576109b661045e565b5b6109c38c828d01610907565b99505060208a015167ffffffffffffffff8111156109e4576109e361045e565b5b6109f08c828d01610907565b98505060408a015167ffffffffffffffff811115610a1157610a1061045e565b5b610a1d8c828d01610907565b97505060608a015167ffffffffffffffff811115610a3e57610a3d61045e565b5b610a4a8c828d01610907565b96505060808a015167ffffffffffffffff811115610a6b57610a6a61045e565b5b610a778c828d01610907565b95505060a08a015167ffffffffffffffff811115610a9857610a9761045e565b5b610aa48c828d01610907565b94505060c0610ab58c828d0161094c565b93505060e0610ac68c828d01610961565b925050610100610ad88c828d01610961565b9150509295985092959850929598565b7f4e4f545f4f574e45520000000000000000000000000000000000000000000000600082015250565b6000610b1e60098361082f565b9150610b2982610ae8565b602082019050919050565b60006020820190508181036000830152610b4d81610b11565b9050919050565b600081905092915050565b6000610b6a82610824565b610b748185610b54565b9350610b84818560208601610840565b80840191505092915050565b6000610b9c8284610b5f565b91508190509291505056fea2646970667358221220e9dc8a80963c3ea3f41a7f49003670da86faa86003b60d5bc788d74093e691af64736f6c63430008140033",
  "linkReferences": {},
  "deployedLinkReferences": {}
}