{
  "_format": "hh-sol-artifact-1",
  "contractName": "TaaSOwnershipHistory",
  "sourceName": "contracts/TaaSOwnershipHistory.sol",
  "abi": [
    {
      "inputs": [
        {
          "internalType": "address",
          "name": "coreAddress",
          "type": "address"
        }
      ],
      "stateMutability": "nonpayable",
      "type": "constructor"
    },
    {
      "inputs": [],
      "name": "core",
      "outputs": [
        {
          "internalType": "address",
          "name": "",
          "type": "address"
        }
      ],
      "stateMutability": "view",
      "type": "function"
    },
    {
      "inputs": [
        {
          "internalType": "string",
          "name": "gpid",
          "type": "string"
        }
      ],
      "name": "getHistory",
      "outputs": [
        {
          "components": [
            {
              "internalType": "address",
              "name": "from",
              "type": "address"
            },
            {
              "internalType": "address",
              "name": "to",
              "type": "address"
            },
            {
              "internalType": "uint256",
              "name": "time",
              "type": "uint256"
            }
          ],
          "internalType": "struct TaaSOwnershipHistory.Transfer[]",
          "name": "",
          "type": "tuple[]"
        }
      ],
      "stateMutability": "view",
      "type": "function"
    },
    {
      "inputs": [
        {
          "internalType": "string",
          "name": "gpid",
          "type": "string"
        },
        {
          "internalType": "address",
          "name": "from",
          "type": "address"
        },
        {
          "internalType": "address",
          "name": "to",
          "type": "address"
        }
      ],
      "name": "recordTransfer",
      "outputs": [],
      "stateMutability": "nonpayable",
      "type": "function"
    }
  ],
  "bytecode": "0x608060405234801561001057600080fd5b5060405161074f38038061074f83398101604081905261002f91610054565b600080546001600160a01b0319166001600160a01b0392909216919091179055610084565b60006020828403121561006657600080fd5b81516001600160a01b038116811461007d57600080fd5b9392505050565b6106bc806100936000396000f3fe608060405234801561001057600080fd5b50600436106100415760003560e01c8063b78567a314610046578063e360736e1461005b578063f2f4eb2614610084575b600080fd5b610059610054366004610396565b6100af565b005b61006e6100693660046103fa565b610214565b60405161007b9190610437565b60405180910390f35b600054610097906001600160a01b031681565b6040516001600160a01b03909116815260200161007b565b600080546040516334088e6760e11b81526001600160a01b03909116906368111cce906100e09087906004016104c0565b600060405180830381865afa1580156100fd573d6000803e3d6000fd5b505050506040513d6000823e601f3d908101601f191682016040526101259190810190610548565b98505050505050505050826001600160a01b0316816001600160a01b0316146101805760405162461bcd60e51b81526020600482015260096024820152682727aa2fa7aba722a960b91b604482015260640160405180910390fd5b600184604051610190919061066a565b9081526040805191829003602090810183206060840183526001600160a01b039687168452948616838201908152429284019283528554600181810188556000978852929096209351600390960290930180549587166001600160a01b03199687161781559251908301805491909616941693909317909355505160029091015550565b6060600182604051610226919061066a565b9081526020016040518091039020805480602002602001604051908101604052809291908181526020016000905b828210156102ae576000848152602090819020604080516060810182526003860290920180546001600160a01b03908116845260018083015490911684860152600290910154918301919091529083529092019101610254565b505050509050919050565b634e487b7160e01b600052604160045260246000fd5b604051601f8201601f1916810167ffffffffffffffff811182821017156102f8576102f86102b9565b604052919050565b600067ffffffffffffffff82111561031a5761031a6102b9565b50601f01601f191660200190565b600082601f83011261033957600080fd5b813561034c61034782610300565b6102cf565b81815284602083860101111561036157600080fd5b816020850160208301376000918101602001919091529392505050565b6001600160a01b038116811461039357600080fd5b50565b6000806000606084860312156103ab57600080fd5b833567ffffffffffffffff8111156103c257600080fd5b6103ce86828701610328565b93505060208401356103df8161037e565b915060408401356103ef8161037e565b809150509250925092565b60006020828403121561040c57600080fd5b813567ffffffffffffffff81111561042357600080fd5b61042f84828501610328565b949350505050565b602080825282518282018190526000919060409081850190868401855b8281101561048f57815180516001600160a01b0390811686528782015116878601528501518585015260609093019290850190600101610454565b5091979650505050505050565b60005b838110156104b757818101518382015260200161049f565b50506000910152565b60208152600082518060208401526104df81604085016020870161049c565b601f01601f19169190910160400192915050565b600082601f83011261050457600080fd5b815161051261034782610300565b81815284602083860101111561052757600080fd5b61042f82602083016020870161049c565b80516105438161037e565b919050565b60008060008060008060008060006101208a8c03121561056757600080fd5b895167ffffffffffffffff8082111561057f57600080fd5b61058b8d838e016104f3565b9a5060208c01519150808211156105a157600080fd5b6105ad8d838e016104f3565b995060408c01519150808211156105c357600080fd5b6105cf8d838e016104f3565b985060608c01519150808211156105e557600080fd5b6105f18d838e016104f3565b975060808c015191508082111561060757600080fd5b6106138d838e016104f3565b965060a08c015191508082111561062957600080fd5b506106368c828d016104f3565b94505060c08a0151925061064c60e08b01610538565b915061065b6101008b01610538565b90509295985092959850929598565b6000825161067c81846020870161049c565b919091019291505056fea264697066735822122071cad29a5308c60fdab20803455bdda27dea85fd1e4ff6bac897075d063ae77164736f6c63430008180033",
  "linkReferences": {},
  "deployedLinkReferences": {}
}