{
  "_format": "hh-sol-artifact-1",
  "contractName": "TaaSProductSecure",
  "sourceName": "contracts/TaaSProductSecure.sol",
  "abi": [
    {
      "inputs": [
        {
          "internalType": "address",
          "name": "authorityAddress",
          "type": "address"
        }
      ],
      "stateMutability": "nonpayable",
      "type": "constructor"
    },
    {
      "anonymous": false,
      "inputs": [
        {
          "indexed": false,
          "internalType": "string",
          "name": "gpid",
          "type": "string"
        },
        {
          "indexed": false,
          "internalType": "address",
          "name": "creator",
          "type": "address"
        },
        {
          "indexed": false,
          "internalType": "uint256",
          "name": "timestamp",
          "type": "uint256"
        }
      ],
      "name": "ProductCreated",
      "type": "event"
    },
    {
      "inputs": [],
      "name": "authority",
      "outputs": [
        {
          "internalType": "contract IAuthority",
          "name": "",
          "type": "address"
        }
      ],
      "stateMutability": "view",
      "type": "function"
    },
    {
      "inputs": [
        {
          "internalType": "string",
          "name": "gpid",
          "type": "string"
        },
        {
          "internalType": "string",
          "name": "brand",
          "type": "string"
        },
        {
          "internalType": "string",
          "name": "model",
          "type": "string"
        },
        {
          "internalType": "string",
          "name": "category",
          "type": "string"
        },
        {
          "internalType": "string",
          "name": "factory",
          "type": "string"
        },
        {
          "internalType": "string",
          "name": "batch",
          "type": "string"
        }
      ],
      "name": "createProduct",
      "outputs": [],
      "stateMutability": "nonpayable",
      "type": "function"
    },
    {
      "inputs": [
        {
          "internalType": "string",
          "name": "gpid",
          "type": "string"
        }
      ],
      "name": "existsProduct",
      "outputs": [
        {
          "internalType": "bool",
          "name": "",
          "type": "bool"
        }
      ],
      "stateMutability": "view",
      "type": "function"
    },
    {
      "inputs": [
        {
          "internalType": "string",
          "name": "gpid",
          "type": "string"
        }
      ],
      "name": "getProduct",
      "outputs": [
        {
          "internalType": "string",
          "name": "",
          "type": "string"
        },
        {
          "internalType": "string",
          "name": "",
          "type": "string"
        },
        {
          "internalType": "string",
          "name": "",
          "type": "string"
        },
        {
          "internalType": "string",
          "name": "",
          "type": "string"
        },
        {
          "internalType": "string",
          "name": "",
          "type": "string"
        },
        {
          "internalType": "string",
          "name": "",
          "type": "string"
        },
        {
          "internalType": "uint256",
          "name": "",
          "type": "uint256"
        },
        {
          "internalType": "address",
          "name": "",
          "type": "address"
        },
        {
          "internalType": "address",
          "name": "",
          "type": "address"
        }
      ],
      "stateMutability": "view",
      "type": "function"
    }
  ],
  "bytecode": "0x608060405234801561001057600080fd5b50604051610e1b380380610e1b83398101604081905261002f91610054565b600080546001600160a01b0319166001600160a01b0392909216919091179055610084565b60006020828403121561006657600080fd5b81516001600160a01b038116811461007d57600080fd5b9392505050565b610d88806100936000396000f3fe608060405234801561001057600080fd5b506004361061004c5760003560e01c806355a53f061461005157806368111cce14610066578063bf7e214f14610097578063c6abbcd9146100c2575b600080fd5b61006461005f36600461096d565b6100e5565b005b610079610074366004610a62565b6103de565b60405161008e99989796959493929190610aef565b60405180910390f35b6000546100aa906001600160a01b031681565b6040516001600160a01b03909116815260200161008e565b6100d56100d0366004610a62565b61089f565b604051901515815260200161008e565b600054604051630f04ba6760e01b81523360048201526001600160a01b0390911690630f04ba6790602401602060405180830381865afa15801561012d573d6000803e3d6000fd5b505050506040513d601f19601f820116820180604052508101906101519190610b94565b61019b5760405162461bcd60e51b81526020600482015260166024820152754e4f545f415554484f52495a45445f464143544f525960501b60448201526064015b60405180910390fd5b6002866040516101ab9190610bbd565b9081526040519081900360200190205460ff16156101f95760405162461bcd60e51b815260206004820152600b60248201526a475049445f45584953545360a81b6044820152606401610192565b60008651116102395760405162461bcd60e51b815260206004820152600c60248201526b1253959053125117d1d4125160a21b6044820152606401610192565b604051806101200160405280878152602001868152602001858152602001848152602001838152602001828152602001428152602001336001600160a01b03168152602001336001600160a01b031681525060018760405161029b9190610bbd565b908152604051908190036020019020815181906102b89082610c64565b50602082015160018201906102cd9082610c64565b50604082015160028201906102e29082610c64565b50606082015160038201906102f79082610c64565b506080820151600482019061030c9082610c64565b5060a082015160058201906103219082610c64565b5060c0820151600682015560e08201516007820180546001600160a01b03199081166001600160a01b03938416179091556101009093015160089092018054909316911617905560405160019060029061037c908990610bbd565b908152604051908190036020018120805492151560ff19909316929092179091557f7b5c0c72a2883a60df078fd0cc4baf490fd781d10900c5e6bba68f454ff95a6e906103ce90889033904290610d24565b60405180910390a1505050505050565b606080606080606080600080600060028a6040516103fc9190610bbd565b9081526040519081900360200190205460ff1661044f5760405162461bcd60e51b8152602060048201526011602482015270141493d11550d517d393d517d193d55391607a1b6044820152606401610192565b600060018b6040516104619190610bbd565b90815260200160405180910390206040518061012001604052908160008201805461048b90610bd9565b80601f01602080910402602001604051908101604052809291908181526020018280546104b790610bd9565b80156105045780601f106104d957610100808354040283529160200191610504565b820191906000526020600020905b8154815290600101906020018083116104e757829003601f168201915b5050505050815260200160018201805461051d90610bd9565b80601f016020809104026020016040519081016040528092919081815260200182805461054990610bd9565b80156105965780601f1061056b57610100808354040283529160200191610596565b820191906000526020600020905b81548152906001019060200180831161057957829003601f168201915b505050505081526020016002820180546105af90610bd9565b80601f01602080910402602001604051908101604052809291908181526020018280546105db90610bd9565b80156106285780601f106105fd57610100808354040283529160200191610628565b820191906000526020600020905b81548152906001019060200180831161060b57829003601f168201915b5050505050815260200160038201805461064190610bd9565b80601f016020809104026020016040519081016040528092919081815260200182805461066d90610bd9565b80156106ba5780601f1061068f576101008083540402835291602001916106ba565b820191906000526020600020905b81548152906001019060200180831161069d57829003601f168201915b505050505081526020016004820180546106d390610bd9565b80601f01602080910402602001604051908101604052809291908181526020018280546106ff90610bd9565b801561074c5780601f106107215761010080835404028352916020019161074c565b820191906000526020600020905b81548152906001019060200180831161072f57829003601f168201915b5050505050815260200160058201805461076590610bd9565b80601f016020809104026020016040519081016040528092919081815260200182805461079190610bd9565b80156107de5780601f106107b3576101008083540402835291602001916107de565b820191906000526020600020905b8154815290600101906020018083116107c157829003601f168201915b50505050508152602001600682015481526020016007820160009054906101000a90046001600160a01b03166001600160a01b03166001600160a01b031681526020016008820160009054906101000a90046001600160a01b03166001600160a01b03166001600160a01b0316815250509050806000015181602001518260400151836060015184608001518560a001518660c001518760e00151886101000151995099509950995099509950995099509950509193959799909294969850565b60006002826040516108b19190610bbd565b9081526040519081900360200190205460ff1692915050565b634e487b7160e01b600052604160045260246000fd5b600082601f8301126108f157600080fd5b813567ffffffffffffffff8082111561090c5761090c6108ca565b604051601f8301601f19908116603f01168101908282118183101715610934576109346108ca565b8160405283815286602085880101111561094d57600080fd5b836020870160208301376000602085830101528094505050505092915050565b60008060008060008060c0878903121561098657600080fd5b863567ffffffffffffffff8082111561099e57600080fd5b6109aa8a838b016108e0565b975060208901359150808211156109c057600080fd5b6109cc8a838b016108e0565b965060408901359150808211156109e257600080fd5b6109ee8a838b016108e0565b95506060890135915080821115610a0457600080fd5b610a108a838b016108e0565b94506080890135915080821115610a2657600080fd5b610a328a838b016108e0565b935060a0890135915080821115610a4857600080fd5b50610a5589828a016108e0565b9150509295509295509295565b600060208284031215610a7457600080fd5b813567ffffffffffffffff811115610a8b57600080fd5b610a97848285016108e0565b949350505050565b60005b83811015610aba578181015183820152602001610aa2565b50506000910152565b60008151808452610adb816020860160208601610a9f565b601f01601f19169290920160200192915050565b6000610120808352610b038184018d610ac3565b90508281036020840152610b17818c610ac3565b90508281036040840152610b2b818b610ac3565b90508281036060840152610b3f818a610ac3565b90508281036080840152610b538189610ac3565b905082810360a0840152610b678188610ac3565b60c084019690965250506001600160a01b0392831660e08201529116610100909101529695505050505050565b600060208284031215610ba657600080fd5b81518015158114610bb657600080fd5b9392505050565b60008251610bcf818460208701610a9f565b9190910192915050565b600181811c90821680610bed57607f821691505b602082108103610c0d57634e487b7160e01b600052602260045260246000fd5b50919050565b601f821115610c5f576000816000526020600020601f850160051c81016020861015610c3c5750805b601f850160051c820191505b81811015610c5b57828155600101610c48565b5050505b505050565b815167ffffffffffffffff811115610c7e57610c7e6108ca565b610c9281610c8c8454610bd9565b84610c13565b602080601f831160018114610cc75760008415610caf5750858301515b600019600386901b1c1916600185901b178555610c5b565b600085815260208120601f198616915b82811015610cf657888601518255948401946001909101908401610cd7565b5085821015610d145787850151600019600388901b60f8161c191681555b5050505050600190811b01905550565b606081526000610d376060830186610ac3565b6001600160a01b03949094166020830152506040015291905056fea26469706673582212205b3f00e929698c40b5bb1c8fe098f1ac6046d0602ece5221a30f03c953ec27b064736f6c63430008180033",
  "linkReferences": {},
  "deployedLinkReferences": {}
}