{
  "_format": "hh-sol-artifact-1",
  "contractName": "TaaSProductSecure",
  "sourceName": "contracts/TaaSProductSecure.sol",
  "abi": [
    {
      "inputs": [
        {
          "internalType": "address",
          "name": "authorityAddress",
          "type": "address"
        }
      ],
      "stateMutability": "nonpayable",
      "type": "constructor"
    },
    {
      "anonymous": false,
      "inputs": [
        {
          "indexed": false,
          "internalType": "string",
          "name": "gpid",
          "type": "string"
        },
        {
          "indexed": false,
          "internalType": "address",
          "name": "creator",
          "type": "address"
        },
        {
          "indexed": false,
          "internalType": "uint256",
          "name": "timestamp",
          "type": "uint256"
        }
      ],
      "name": "ProductCreated",
      "type": "event"
    },
    {
      "inputs": [],
      "name": "authority",
      "outputs": [
        {
          "internalType": "contract IAuthority",
          "name": "",
          "type": "address"
        }
      ],
      "stateMutability": "view",
      "type": "function"
    },
    {
      "inputs": [
        {
          "internalType": "string",
          "name": "gpid",
          "type": "string"
        },
        {
          "internalType": "string",
          "name": "brand",
          "type": "string"
        },
        {
          "internalType": "string",
          "name": "model",
          "type": "string"
        },
        {
          "internalType": "string",
          "name": "category",
          "type": "string"
        },
        {
          "internalType": "string",
          "name": "factory",
          "type": "string"
        },
        {
          "internalType": "string",
          "name": "batch",
          "type": "string"
        }
      ],
      "name": "createProduct",
      "outputs": [],
      "stateMutability": "nonpayable",
      "type": "function"
    },
    {
      "inputs": [
        {
          "internalType": "string",
          "name": "gpid",
          "type": "string"
        }
      ],
      "name": "existsProduct",
      "outputs": [
        {
          "internalType": "bool",
          "name": "",
          "type": "bool"
        }
      ],
      "stateMutability": "view",
      "type": "function"
    },
    {
      "inputs": [
        {
          "internalType": "string",
          "name": "gpid",
          "type": "string"
        }
      ],
      "name": "getProduct",
      "outputs": [
        {
          "internalType": "string",
          "name": "",
          "type": "string"
        },
        {
          "internalType": "string",
          "name": "",
          "type": "string"
        },
        {
          "internalType": "string",
          "name": "",
          "type": "string"
        },
        {
          "internalType": "string",
          "name": "",
          "type": "string"
        },
        {
          "internalType": "string",
          "name": "",
          "type": "string"
        },
        {
          "internalType": "string",
          "name": "",
          "type": "string"
        },
        {
          "internalType": "uint256",
          "name": "",
          "type": "uint256"
        },
        {
          "internalType": "address",
          "name": "",
          "type": "address"
        },
        {
          "internalType": "address",
          "name": "",
          "type": "address"
        }
      ],
      "stateMutability": "view",
      "type": "function"
    }
  ],
  "bytecode": "0x60806040523480156200001157600080fd5b5060405162001611380380620016118339818101604052810190620000379190620000e8565b806000806101000a81548173ffffffffffffffffffffffffffffffffffffffff021916908373ffffffffffffffffffffffffffffffffffffffff160217905550506200011a565b600080fd5b600073ffffffffffffffffffffffffffffffffffffffff82169050919050565b6000620000b08262000083565b9050919050565b620000c281620000a3565b8114620000ce57600080fd5b50565b600081519050620000e281620000b7565b92915050565b6000602082840312156200010157620001006200007e565b5b60006200011184828501620000d1565b91505092915050565b6114e7806200012a6000396000f3fe608060405234801561001057600080fd5b506004361061004c5760003560e01c806355a53f061461005157806368111cce1461006d578063bf7e214f146100a5578063c6abbcd9146100c3575b600080fd5b61006b60048036038101906100669190610b6a565b6100f3565b005b61008760048036038101906100829190610c9f565b6104a0565b60405161009c99989796959493929190610dc1565b60405180910390f35b6100ad6109b7565b6040516100ba9190610ed7565b60405180910390f35b6100dd60048036038101906100d89190610c9f565b6109db565b6040516100ea9190610f0d565b60405180910390f35b60008054906101000a900473ffffffffffffffffffffffffffffffffffffffff1673ffffffffffffffffffffffffffffffffffffffff16630f04ba67336040518263ffffffff1660e01b815260040161014c9190610f28565b602060405180830381865afa158015610169573d6000803e3d6000fd5b505050506040513d601f19601f8201168201806040525081019061018d9190610f6f565b6101cc576040517f08c379a00000000000000000000000000000000000000000000000000000000081526004016101c390610fe8565b60405180910390fd5b6002866040516101dc9190611044565b908152602001604051809103902060009054906101000a900460ff1615610238576040517f08c379a000000000000000000000000000000000000000000000000000000000815260040161022f906110a7565b60405180910390fd5b600086511161027c576040517f08c379a000000000000000000000000000000000000000000000000000000000815260040161027390611113565b60405180910390fd5b6040518061012001604052808781526020018681526020018581526020018481526020018381526020018281526020014281526020013373ffffffffffffffffffffffffffffffffffffffff1681526020013373ffffffffffffffffffffffffffffffffffffffff168152506001876040516102f89190611044565b9081526020016040518091039020600082015181600001908161031b9190611335565b5060208201518160010190816103319190611335565b5060408201518160020190816103479190611335565b50606082015181600301908161035d9190611335565b5060808201518160040190816103739190611335565b5060a08201518160050190816103899190611335565b5060c0820151816006015560e08201518160070160006101000a81548173ffffffffffffffffffffffffffffffffffffffff021916908373ffffffffffffffffffffffffffffffffffffffff1602179055506101008201518160080160006101000a81548173ffffffffffffffffffffffffffffffffffffffff021916908373ffffffffffffffffffffffffffffffffffffffff16021790555090505060016002876040516104389190611044565b908152602001604051809103902060006101000a81548160ff0219169083151502179055507f7b5c0c72a2883a60df078fd0cc4baf490fd781d10900c5e6bba68f454ff95a6e86334260405161049093929190611407565b60405180910390a1505050505050565b606080606080606080600080600060028a6040516104be9190611044565b908152602001604051809103902060009054906101000a900460ff16610519576040517f08c379a000000000000000000000000000000000000000000000000000000000815260040161051090611491565b60405180910390fd5b600060018b60405161052b9190611044565b90815260200160405180910390206040518061012001604052908160008201805461055590611162565b80601f016020809104026020016040519081016040528092919081815260200182805461058190611162565b80156105ce5780601f106105a3576101008083540402835291602001916105ce565b820191906000526020600020905b8154815290600101906020018083116105b157829003601f168201915b505050505081526020016001820180546105e790611162565b80601f016020809104026020016040519081016040528092919081815260200182805461061390611162565b80156106605780601f1061063557610100808354040283529160200191610660565b820191906000526020600020905b81548152906001019060200180831161064357829003601f168201915b5050505050815260200160028201805461067990611162565b80601f01602080910402602001604051908101604052809291908181526020018280546106a590611162565b80156106f25780601f106106c7576101008083540402835291602001916106f2565b820191906000526020600020905b8154815290600101906020018083116106d557829003601f168201915b5050505050815260200160038201805461070b90611162565b80601f016020809104026020016040519081016040528092919081815260200182805461073790611162565b80156107845780601f1061075957610100808354040283529160200191610784565b820191906000526020600020905b81548152906001019060200180831161076757829003601f168201915b5050505050815260200160048201805461079d90611162565b80601f01602080910402602001604051908101604052809291908181526020018280546107c990611162565b80156108165780601f106107eb57610100808354040283529160200191610816565b820191906000526020600020905b8154815290600101906020018083116107f957829003601f168201915b5050505050815260200160058201805461082f90611162565b80601f016020809104026020016040519081016040528092919081815260200182805461085b90611162565b80156108a85780601f1061087d576101008083540402835291602001916108a8565b820191906000526020600020905b81548152906001019060200180831161088b57829003601f168201915b50505050508152602001600682015481526020016007820160009054906101000a900473ffffffffffffffffffffffffffffffffffffffff1673ffffffffffffffffffffffffffffffffffffffff1673ffffffffffffffffffffffffffffffffffffffff1681526020016008820160009054906101000a900473ffffffffffffffffffffffffffffffffffffffff1673ffffffffffffffffffffffffffffffffffffffff1673ffffffffffffffffffffffffffffffffffffffff16815250509050806000015181602001518260400151836060015184608001518560a001518660c001518760e00151886101000151995099509950995099509950995099509950509193959799909294969850565b60008054906101000a900473ffffffffffffffffffffffffffffffffffffffff1681565b60006002826040516109ed9190611044565b908152602001604051809103902060009054906101000a900460ff169050919050565b6000604051905090565b600080fd5b600080fd5b600080fd5b600080fd5b6000601f19601f8301169050919050565b7f4e487b7100000000000000000000000000000000000000000000000000000000600052604160045260246000fd5b610a7782610a2e565b810181811067ffffffffffffffff82111715610a9657610a95610a3f565b5b80604052505050565b6000610aa9610a10565b9050610ab58282610a6e565b919050565b600067ffffffffffffffff821115610ad557610ad4610a3f565b5b610ade82610a2e565b9050602081019050919050565b82818337600083830152505050565b6000610b0d610b0884610aba565b610a9f565b905082815260208101848484011115610b2957610b28610a29565b5b610b34848285610aeb565b509392505050565b600082601f830112610b5157610b50610a24565b5b8135610b61848260208601610afa565b91505092915050565b60008060008060008060c08789031215610b8757610b86610a1a565b5b600087013567ffffffffffffffff811115610ba557610ba4610a1f565b5b610bb189828a01610b3c565b965050602087013567ffffffffffffffff811115610bd257610bd1610a1f565b5b610bde89828a01610b3c565b955050604087013567ffffffffffffffff811115610bff57610bfe610a1f565b5b610c0b89828a01610b3c565b945050606087013567ffffffffffffffff811115610c2c57610c2b610a1f565b5b610c3889828a01610b3c565b935050608087013567ffffffffffffffff811115610c5957610c58610a1f565b5b610c6589828a01610b3c565b92505060a087013567ffffffffffffffff811115610c8657610c85610a1f565b5b610c9289828a01610b3c565b9150509295509295509295565b600060208284031215610cb557610cb4610a1a565b5b600082013567ffffffffffffffff811115610cd357610cd2610a1f565b5b610cdf84828501610b3c565b91505092915050565b600081519050919050565b600082825260208201905092915050565b60005b83811015610d22578082015181840152602081019050610d07565b60008484015250505050565b6000610d3982610ce8565b610d438185610cf3565b9350610d53818560208601610d04565b610d5c81610a2e565b840191505092915050565b6000819050919050565b610d7a81610d67565b82525050565b600073ffffffffffffffffffffffffffffffffffffffff82169050919050565b6000610dab82610d80565b9050919050565b610dbb81610da0565b82525050565b6000610120820190508181036000830152610ddc818c610d2e565b90508181036020830152610df0818b610d2e565b90508181036040830152610e04818a610d2e565b90508181036060830152610e188189610d2e565b90508181036080830152610e2c8188610d2e565b905081810360a0830152610e408187610d2e565b9050610e4f60c0830186610d71565b610e5c60e0830185610db2565b610e6a610100830184610db2565b9a9950505050505050505050565b6000819050919050565b6000610e9d610e98610e9384610d80565b610e78565b610d80565b9050919050565b6000610eaf82610e82565b9050919050565b6000610ec182610ea4565b9050919050565b610ed181610eb6565b82525050565b6000602082019050610eec6000830184610ec8565b92915050565b60008115159050919050565b610f0781610ef2565b82525050565b6000602082019050610f226000830184610efe565b92915050565b6000602082019050610f3d6000830184610db2565b92915050565b610f4c81610ef2565b8114610f5757600080fd5b50565b600081519050610f6981610f43565b92915050565b600060208284031215610f8557610f84610a1a565b5b6000610f9384828501610f5a565b91505092915050565b7f4e4f545f415554484f52495a45445f464143544f525900000000000000000000600082015250565b6000610fd2601683610cf3565b9150610fdd82610f9c565b602082019050919050565b6000602082019050818103600083015261100181610fc5565b9050919050565b600081905092915050565b600061101e82610ce8565b6110288185611008565b9350611038818560208601610d04565b80840191505092915050565b60006110508284611013565b915081905092915050565b7f475049445f455849535453000000000000000000000000000000000000000000600082015250565b6000611091600b83610cf3565b915061109c8261105b565b602082019050919050565b600060208201905081810360008301526110c081611084565b9050919050565b7f494e56414c49445f475049440000000000000000000000000000000000000000600082015250565b60006110fd600c83610cf3565b9150611108826110c7565b602082019050919050565b6000602082019050818103600083015261112c816110f0565b9050919050565b7f4e487b7100000000000000000000000000000000000000000000000000000000600052602260045260246000fd5b6000600282049050600182168061117a57607f821691505b60208210810361118d5761118c611133565b5b50919050565b60008190508160005260206000209050919050565b60006020601f8301049050919050565b600082821b905092915050565b6000600883026111f57fffffffffffffffffffffffffffffffffffffffffffffffffffffffffffffffff826111b8565b6111ff86836111b8565b95508019841693508086168417925050509392505050565b600061123261122d61122884610d67565b610e78565b610d67565b9050919050565b6000819050919050565b61124c83611217565b61126061125882611239565b8484546111c5565b825550505050565b600090565b611275611268565b611280818484611243565b505050565b5b818110156112a45761129960008261126d565b600181019050611286565b5050565b601f8211156112e9576112ba81611193565b6112c3846111a8565b810160208510156112d2578190505b6112e66112de856111a8565b830182611285565b50505b505050565b600082821c905092915050565b600061130c600019846008026112ee565b1980831691505092915050565b600061132583836112fb565b9150826002028217905092915050565b61133e82610ce8565b67ffffffffffffffff81111561135757611356610a3f565b5b6113618254611162565b61136c8282856112a8565b600060209050601f83116001811461139f576000841561138d578287015190505b6113978582611319565b8655506113ff565b601f1984166113ad86611193565b60005b828110156113d5578489015182556001820191506020850194506020810190506113b0565b868310156113f257848901516113ee601f8916826112fb565b8355505b6001600288020188555050505b505050505050565b600060608201905081810360008301526114218186610d2e565b90506114306020830185610db2565b61143d6040830184610d71565b949350505050565b7f50524f445543545f4e4f545f464f554e44000000000000000000000000000000600082015250565b600061147b601183610cf3565b915061148682611445565b602082019050919050565b600060208201905081810360008301526114aa8161146e565b905091905056fea2646970667358221220cd7bd756e10497358da8b077ee82f7876f6debbbd07af47f3b085284e3503b4b64736f6c63430008180033",
  "linkReferences": {},
  "deployedLinkReferences": {}
}