{
  "_format": "hh-sol-artifact-1",
  "contractName": "TaaSSeal",
  "sourceName": "contracts/TaaSSeal.sol",
  "abi": [
    {
      "anonymous": false,
      "inputs": [
        {
          "indexed": false,
          "internalType": "string",
          "name": "gpid",
          "type": "string"
        },
        {
          "indexed": false,
          "internalType": "bytes32",
          "name": "seal",
          "type": "bytes32"
        }
      ],
      "name": "SealCreated",
      "type": "event"
    },
    {
      "inputs": [
        {
          "internalType": "string",
          "name": "gpid",
          "type": "string"
        },
        {
          "internalType": "string",
          "name": "brand",
          "type": "string"
        },
        {
          "internalType": "string",
          "name": "model",
          "type": "string"
        },
        {
          "internalType": "string",
          "name": "factory",
          "type": "string"
        },
        {
          "internalType": "address",
          "name": "issuer",
          "type": "address"
        }
      ],
      "name": "createSeal",
      "outputs": [],
      "stateMutability": "nonpayable",
      "type": "function"
    },
    {
      "inputs": [
        {
          "internalType": "string",
          "name": "",
          "type": "string"
        }
      ],
      "name": "seals",
      "outputs": [
        {
          "internalType": "bytes32",
          "name": "",
          "type": "bytes32"
        }
      ],
      "stateMutability": "view",
      "type": "function"
    },
    {
      "inputs": [
        {
          "internalType": "string",
          "name": "gpid",
          "type": "string"
        },
        {
          "internalType": "bytes32",
          "name": "seal",
          "type": "bytes32"
        }
      ],
      "name": "verifySeal",
      "outputs": [
        {
          "internalType": "bool",
          "name": "",
          "type": "bool"
        }
      ],
      "stateMutability": "view",
      "type": "function"
    }
  ],
  "bytecode": "0x608060405234801561001057600080fd5b5061087f806100206000396000f3fe608060405234801561001057600080fd5b50600436106100415760003560e01c806316c6981e14610046578063462297a214610076578063caeda9d3146100a6575b600080fd5b610060600480360381019061005b9190610373565b6100c2565b60405161006d91906103d5565b60405180910390f35b610090600480360381019061008b919061041c565b6100f0565b60405161009d9190610493565b60405180910390f35b6100c060048036038101906100bb919061050c565b61011b565b005b6000818051602081018201805184825260208301602085012081835280955050505050506000915090505481565b6000816000846040516101039190610668565b90815260200160405180910390205414905092915050565b6000801b60008660405161012f9190610668565b9081526020016040518091039020541461017e576040517f08c379a0000000000000000000000000000000000000000000000000000000008152600401610175906106dc565b60405180910390fd5b60008585858585424460405160200161019d979695949392919061076f565b604051602081830303815290604052805190602001209050806000876040516101c69190610668565b9081526020016040518091039020819055507f5c0e11cce63a8c14f17da719b63d68b3f7dd691b44831a6a2dce64bdd2f34f618682604051610209929190610819565b60405180910390a1505050505050565b6000604051905090565b600080fd5b600080fd5b600080fd5b600080fd5b6000601f19601f8301169050919050565b7f4e487b7100000000000000000000000000000000000000000000000000000000600052604160045260246000fd5b61028082610237565b810181811067ffffffffffffffff8211171561029f5761029e610248565b5b80604052505050565b60006102b2610219565b90506102be8282610277565b919050565b600067ffffffffffffffff8211156102de576102dd610248565b5b6102e782610237565b9050602081019050919050565b82818337600083830152505050565b6000610316610311846102c3565b6102a8565b90508281526020810184848401111561033257610331610232565b5b61033d8482856102f4565b509392505050565b600082601f83011261035a5761035961022d565b5b813561036a848260208601610303565b91505092915050565b60006020828403121561038957610388610223565b5b600082013567ffffffffffffffff8111156103a7576103a6610228565b5b6103b384828501610345565b91505092915050565b6000819050919050565b6103cf816103bc565b82525050565b60006020820190506103ea60008301846103c6565b92915050565b6103f9816103bc565b811461040457600080fd5b50565b600081359050610416816103f0565b92915050565b6000806040838503121561043357610432610223565b5b600083013567ffffffffffffffff81111561045157610450610228565b5b61045d85828601610345565b925050602061046e85828601610407565b9150509250929050565b60008115159050919050565b61048d81610478565b82525050565b60006020820190506104a86000830184610484565b92915050565b600073ffffffffffffffffffffffffffffffffffffffff82169050919050565b60006104d9826104ae565b9050919050565b6104e9816104ce565b81146104f457600080fd5b50565b600081359050610506816104e0565b92915050565b600080600080600060a0868803121561052857610527610223565b5b600086013567ffffffffffffffff81111561054657610545610228565b5b61055288828901610345565b955050602086013567ffffffffffffffff81111561057357610572610228565b5b61057f88828901610345565b945050604086013567ffffffffffffffff8111156105a05761059f610228565b5b6105ac88828901610345565b935050606086013567ffffffffffffffff8111156105cd576105cc610228565b5b6105d988828901610345565b92505060806105ea888289016104f7565b9150509295509295909350565b600081519050919050565b600081905092915050565b60005b8381101561062b578082015181840152602081019050610610565b60008484015250505050565b6000610642826105f7565b61064c8185610602565b935061065c81856020860161060d565b80840191505092915050565b60006106748284610637565b915081905092915050565b600082825260208201905092915050565b7f5345414c5f455849535453000000000000000000000000000000000000000000600082015250565b60006106c6600b8361067f565b91506106d182610690565b602082019050919050565b600060208201905081810360008301526106f5816106b9565b9050919050565b60008160601b9050919050565b6000610714826106fc565b9050919050565b600061072682610709565b9050919050565b61073e610739826104ce565b61071b565b82525050565b6000819050919050565b6000819050919050565b61076961076482610744565b61074e565b82525050565b600061077b828a610637565b91506107878289610637565b91506107938288610637565b915061079f8287610637565b91506107ab828661072d565b6014820191506107bb8285610758565b6020820191506107cb8284610758565b60208201915081905098975050505050505050565b60006107eb826105f7565b6107f5818561067f565b935061080581856020860161060d565b61080e81610237565b840191505092915050565b6000604082019050818103600083015261083381856107e0565b905061084260208301846103c6565b939250505056fea2646970667358221220a0d3f7e70518896020c716f85aca582688f337e95536817dc407590bbb77d15264736f6c63430008180033",
  "linkReferences": {},
  "deployedLinkReferences": {}
}