{
  "_format": "hh-sol-artifact-1",
  "contractName": "TaaSSeal",
  "sourceName": "contracts/TaaSSeal.sol",
  "abi": [
    {
      "anonymous": false,
      "inputs": [
        {
          "indexed": false,
          "internalType": "string",
          "name": "gpid",
          "type": "string"
        },
        {
          "indexed": false,
          "internalType": "bytes32",
          "name": "seal",
          "type": "bytes32"
        }
      ],
      "name": "SealCreated",
      "type": "event"
    },
    {
      "inputs": [
        {
          "internalType": "string",
          "name": "gpid",
          "type": "string"
        },
        {
          "internalType": "string",
          "name": "brand",
          "type": "string"
        },
        {
          "internalType": "string",
          "name": "model",
          "type": "string"
        },
        {
          "internalType": "string",
          "name": "factory",
          "type": "string"
        },
        {
          "internalType": "address",
          "name": "issuer",
          "type": "address"
        }
      ],
      "name": "createSeal",
      "outputs": [],
      "stateMutability": "nonpayable",
      "type": "function"
    },
    {
      "inputs": [
        {
          "internalType": "string",
          "name": "",
          "type": "string"
        }
      ],
      "name": "seals",
      "outputs": [
        {
          "internalType": "bytes32",
          "name": "",
          "type": "bytes32"
        }
      ],
      "stateMutability": "view",
      "type": "function"
    },
    {
      "inputs": [
        {
          "internalType": "string",
          "name": "gpid",
          "type": "string"
        },
        {
          "internalType": "bytes32",
          "name": "seal",
          "type": "bytes32"
        }
      ],
      "name": "verifySeal",
      "outputs": [
        {
          "internalType": "bool",
          "name": "",
          "type": "bool"
        }
      ],
      "stateMutability": "view",
      "type": "function"
    }
  ],
  "bytecode": "0x608060405234801561001057600080fd5b50610508806100206000396000f3fe608060405234801561001057600080fd5b50600436106100415760003560e01c806316c6981e14610046578063462297a214610084578063caeda9d3146100a7575b600080fd5b610071610054366004610287565b805160208183018101805160008252928201919093012091525481565b6040519081526020015b60405180910390f35b6100976100923660046102c4565b6100bc565b604051901515815260200161007b565b6100ba6100b5366004610309565b6100e7565b005b6000816000846040516100cf91906103fb565b90815260200160405180910390205414905092915050565b6000801b6000866040516100fb91906103fb565b908152602001604051809103902054146101495760405162461bcd60e51b815260206004820152600b60248201526a5345414c5f45584953545360a81b604482015260640160405180910390fd5b6000858585858542446040516020016101689796959493929190610417565b6040516020818303038152906040528051906020012090508060008760405161019191906103fb565b9081526020016040518091039020819055507f5c0e11cce63a8c14f17da719b63d68b3f7dd691b44831a6a2dce64bdd2f34f6186826040516101d4929190610497565b60405180910390a1505050505050565b634e487b7160e01b600052604160045260246000fd5b600082601f83011261020b57600080fd5b813567ffffffffffffffff80821115610226576102266101e4565b604051601f8301601f19908116603f0116810190828211818310171561024e5761024e6101e4565b8160405283815286602085880101111561026757600080fd5b836020870160208301376000602085830101528094505050505092915050565b60006020828403121561029957600080fd5b813567ffffffffffffffff8111156102b057600080fd5b6102bc848285016101fa565b949350505050565b600080604083850312156102d757600080fd5b823567ffffffffffffffff8111156102ee57600080fd5b6102fa858286016101fa565b95602094909401359450505050565b600080600080600060a0868803121561032157600080fd5b853567ffffffffffffffff8082111561033957600080fd5b61034589838a016101fa565b9650602088013591508082111561035b57600080fd5b61036789838a016101fa565b9550604088013591508082111561037d57600080fd5b61038989838a016101fa565b9450606088013591508082111561039f57600080fd5b506103ac888289016101fa565b92505060808601356001600160a01b03811681146103c957600080fd5b809150509295509295909350565b60005b838110156103f25781810151838201526020016103da565b50506000910152565b6000825161040d8184602087016103d7565b9190910192915050565b60008851610429818460208d016103d7565b88519083019061043d818360208d016103d7565b8851910190610450818360208c016103d7565b8751910190610463818360208b016103d7565b60609690961b6bffffffffffffffffffffffff19169501948552505060148301919091526034820152605401949350505050565b60408152600083518060408401526104b68160608501602088016103d7565b602083019390935250601f91909101601f19160160600191905056fea26469706673582212205bc3826ab98f58b20b2d191c68d78e7b66d69e0b09df21331197d655b4dd62b564736f6c63430008180033",
  "linkReferences": {},
  "deployedLinkReferences": {}
}