{
  "_format": "hh-sol-artifact-1",
  "contractName": "TaaSAuthorityV2",
  "sourceName": "contracts/archive/TaaSAuthorityV2.sol",
  "abi": [
    {
      "inputs": [],
      "stateMutability": "nonpayable",
      "type": "constructor"
    },
    {
      "anonymous": false,
      "inputs": [
        {
          "indexed": false,
          "internalType": "address",
          "name": "user",
          "type": "address"
        }
      ],
      "name": "AuthorityAdded",
      "type": "event"
    },
    {
      "inputs": [
        {
          "internalType": "address",
          "name": "user",
          "type": "address"
        }
      ],
      "name": "addAuthority",
      "outputs": [],
      "stateMutability": "nonpayable",
      "type": "function"
    },
    {
      "inputs": [
        {
          "internalType": "address",
          "name": "",
          "type": "address"
        }
      ],
      "name": "authority",
      "outputs": [
        {
          "internalType": "bool",
          "name": "",
          "type": "bool"
        }
      ],
      "stateMutability": "view",
      "type": "function"
    },
    {
      "inputs": [
        {
          "internalType": "address",
          "name": "user",
          "type": "address"
        }
      ],
      "name": "checkAuthority",
      "outputs": [
        {
          "internalType": "bool",
          "name": "",
          "type": "bool"
        }
      ],
      "stateMutability": "view",
      "type": "function"
    }
  ],
  "bytecode": "0x608060405234801561001057600080fd5b5060016000803373ffffffffffffffffffffffffffffffffffffffff1673ffffffffffffffffffffffffffffffffffffffff16815260200190815260200160002060006101000a81548160ff0219169083151502179055506103f6806100776000396000f3fe608060405234801561001057600080fd5b50600436106100415760003560e01c806326defa73146100465780637104dd0314610062578063a700c20214610092575b600080fd5b610060600480360381019061005b91906102b6565b6100c2565b005b61007c600480360381019061007791906102b6565b6101de565b60405161008991906102fe565b60405180910390f35b6100ac60048036038101906100a791906102b6565b6101fe565b6040516100b991906102fe565b60405180910390f35b6000803373ffffffffffffffffffffffffffffffffffffffff1673ffffffffffffffffffffffffffffffffffffffff16815260200190815260200160002060009054906101000a900460ff1661014d576040517f08c379a000000000000000000000000000000000000000000000000000000000815260040161014490610376565b60405180910390fd5b60016000808373ffffffffffffffffffffffffffffffffffffffff1673ffffffffffffffffffffffffffffffffffffffff16815260200190815260200160002060006101000a81548160ff0219169083151502179055507f550a8ae64ec9d6640b6f168a26d3e6364b90defe8110c92135aa775b279e54ea816040516101d391906103a5565b60405180910390a150565b60006020528060005260406000206000915054906101000a900460ff1681565b60008060008373ffffffffffffffffffffffffffffffffffffffff1673ffffffffffffffffffffffffffffffffffffffff16815260200190815260200160002060009054906101000a900460ff169050919050565b600080fd5b600073ffffffffffffffffffffffffffffffffffffffff82169050919050565b600061028382610258565b9050919050565b61029381610278565b811461029e57600080fd5b50565b6000813590506102b08161028a565b92915050565b6000602082840312156102cc576102cb610253565b5b60006102da848285016102a1565b91505092915050565b60008115159050919050565b6102f8816102e3565b82525050565b600060208201905061031360008301846102ef565b92915050565b600082825260208201905092915050565b7f4e4f545f415554484f5249545900000000000000000000000000000000000000600082015250565b6000610360600d83610319565b915061036b8261032a565b602082019050919050565b6000602082019050818103600083015261038f81610353565b9050919050565b61039f81610278565b82525050565b60006020820190506103ba6000830184610396565b9291505056fea264697066735822122023e411f926f519563602063413cbbd5698130a965b99283295f6710f0b3741fe64736f6c63430008180033",
  "linkReferences": {},
  "deployedLinkReferences": {}
}