{
  "_format": "hh-sol-artifact-1",
  "contractName": "TaaSAuthorityV2",
  "sourceName": "contracts/archive/TaaSAuthorityV2.sol",
  "abi": [
    {
      "inputs": [],
      "stateMutability": "nonpayable",
      "type": "constructor"
    },
    {
      "anonymous": false,
      "inputs": [
        {
          "indexed": false,
          "internalType": "address",
          "name": "user",
          "type": "address"
        }
      ],
      "name": "AuthorityAdded",
      "type": "event"
    },
    {
      "inputs": [
        {
          "internalType": "address",
          "name": "user",
          "type": "address"
        }
      ],
      "name": "addAuthority",
      "outputs": [],
      "stateMutability": "nonpayable",
      "type": "function"
    },
    {
      "inputs": [
        {
          "internalType": "address",
          "name": "",
          "type": "address"
        }
      ],
      "name": "authority",
      "outputs": [
        {
          "internalType": "bool",
          "name": "",
          "type": "bool"
        }
      ],
      "stateMutability": "view",
      "type": "function"
    },
    {
      "inputs": [
        {
          "internalType": "address",
          "name": "user",
          "type": "address"
        }
      ],
      "name": "checkAuthority",
      "outputs": [
        {
          "internalType": "bool",
          "name": "",
          "type": "bool"
        }
      ],
      "stateMutability": "view",
      "type": "function"
    }
  ],
  "bytecode": "0x608060405234801561001057600080fd5b50336000908152602081905260409020805460ff191660011790556101cf8061003a6000396000f3fe608060405234801561001057600080fd5b50600436106100415760003560e01c806326defa73146100465780637104dd031461005b578063a700c20214610092575b600080fd5b610059610054366004610169565b6100be565b005b61007e610069366004610169565b60006020819052908152604090205460ff1681565b604051901515815260200160405180910390f35b61007e6100a0366004610169565b6001600160a01b031660009081526020819052604090205460ff1690565b3360009081526020819052604090205460ff166101115760405162461bcd60e51b815260206004820152600d60248201526c4e4f545f415554484f5249545960981b604482015260640160405180910390fd5b6001600160a01b03811660008181526020818152604091829020805460ff1916600117905590519182527f550a8ae64ec9d6640b6f168a26d3e6364b90defe8110c92135aa775b279e54ea910160405180910390a150565b60006020828403121561017b57600080fd5b81356001600160a01b038116811461019257600080fd5b939250505056fea26469706673582212208a9cdf9e30749c04de1b34a3219181f9bd735eea6e7e4050c7cd0d2ced3dbe4164736f6c63430008180033",
  "linkReferences": {},
  "deployedLinkReferences": {}
}