{
  "_format": "hh-sol-artifact-1",
  "contractName": "TaaSProductEnterprise",
  "sourceName": "contracts/TaaSProductEnterprise.sol",
  "abi": [
    {
      "inputs": [],
      "stateMutability": "nonpayable",
      "type": "constructor"
    },
    {
      "inputs": [],
      "name": "admin",
      "outputs": [
        {
          "internalType": "address",
          "name": "",
          "type": "address"
        }
      ],
      "stateMutability": "view",
      "type": "function"
    },
    {
      "inputs": [
        {
          "internalType": "address",
          "name": "",
          "type": "address"
        }
      ],
      "name": "authorizedDealer",
      "outputs": [
        {
          "internalType": "bool",
          "name": "",
          "type": "bool"
        }
      ],
      "stateMutability": "view",
      "type": "function"
    },
    {
      "inputs": [
        {
          "internalType": "string",
          "name": "gpid",
          "type": "string"
        },
        {
          "internalType": "string",
          "name": "brand",
          "type": "string"
        },
        {
          "internalType": "string",
          "name": "model",
          "type": "string"
        },
        {
          "internalType": "string",
          "name": "category",
          "type": "string"
        },
        {
          "internalType": "string",
          "name": "factory",
          "type": "string"
        },
        {
          "internalType": "string",
          "name": "batch",
          "type": "string"
        }
      ],
      "name": "createProduct",
      "outputs": [],
      "stateMutability": "nonpayable",
      "type": "function"
    },
    {
      "inputs": [
        {
          "internalType": "string",
          "name": "gpid",
          "type": "string"
        },
        {
          "internalType": "address",
          "name": "customer",
          "type": "address"
        }
      ],
      "name": "dealerTransfer",
      "outputs": [],
      "stateMutability": "nonpayable",
      "type": "function"
    },
    {
      "inputs": [
        {
          "internalType": "string",
          "name": "gpid",
          "type": "string"
        }
      ],
      "name": "getOwnershipHistory",
      "outputs": [
        {
          "internalType": "address[]",
          "name": "",
          "type": "address[]"
        }
      ],
      "stateMutability": "view",
      "type": "function"
    },
    {
      "inputs": [
        {
          "internalType": "string",
          "name": "gpid",
          "type": "string"
        }
      ],
      "name": "getProduct",
      "outputs": [
        {
          "internalType": "string",
          "name": "",
          "type": "string"
        },
        {
          "internalType": "string",
          "name": "",
          "type": "string"
        },
        {
          "internalType": "string",
          "name": "",
          "type": "string"
        },
        {
          "internalType": "string",
          "name": "",
          "type": "string"
        },
        {
          "internalType": "string",
          "name": "",
          "type": "string"
        },
        {
          "internalType": "string",
          "name": "",
          "type": "string"
        },
        {
          "internalType": "uint256",
          "name": "",
          "type": "uint256"
        },
        {
          "internalType": "address",
          "name": "",
          "type": "address"
        },
        {
          "internalType": "address",
          "name": "",
          "type": "address"
        },
        {
          "internalType": "enum TaaSProductEnterprise.Status",
          "name": "",
          "type": "uint8"
        }
      ],
      "stateMutability": "view",
      "type": "function"
    },
    {
      "inputs": [
        {
          "internalType": "string",
          "name": "gpid",
          "type": "string"
        }
      ],
      "name": "markStolen",
      "outputs": [],
      "stateMutability": "nonpayable",
      "type": "function"
    },
    {
      "inputs": [
        {
          "internalType": "string",
          "name": "gpid",
          "type": "string"
        }
      ],
      "name": "productExists",
      "outputs": [
        {
          "internalType": "bool",
          "name": "",
          "type": "bool"
        }
      ],
      "stateMutability": "view",
      "type": "function"
    },
    {
      "inputs": [
        {
          "internalType": "string",
          "name": "gpid",
          "type": "string"
        }
      ],
      "name": "recoverProduct",
      "outputs": [],
      "stateMutability": "nonpayable",
      "type": "function"
    },
    {
      "inputs": [
        {
          "internalType": "address",
          "name": "dealer",
          "type": "address"
        },
        {
          "internalType": "bool",
          "name": "state",
          "type": "bool"
        }
      ],
      "name": "setDealer",
      "outputs": [],
      "stateMutability": "nonpayable",
      "type": "function"
    },
    {
      "inputs": [
        {
          "internalType": "string",
          "name": "gpid",
          "type": "string"
        },
        {
          "internalType": "address",
          "name": "newOwner",
          "type": "address"
        }
      ],
      "name": "transferOwnership",
      "outputs": [],
      "stateMutability": "nonpayable",
      "type": "function"
    }
  ],
  "bytecode": "0x608060405234801561001057600080fd5b50600480546001600160a01b031916331790556112b8806100326000396000f3fe608060405234801561001057600080fd5b50600436106100a85760003560e01c806368111cce1161007157806368111cce146101445780638addc0511461016d578063c0e793c214610180578063e69e892114610193578063f62e4e63146101a6578063f851a440146101b957600080fd5b8062c966be146100ad5780630d716206146100d657806332b3b08d1461010957806355a53f061461011e57806359b1940a14610131575b600080fd5b6100c06100bb366004610d7d565b6101e4565b6040516100cd9190610dba565b60405180910390f35b6100f96100e4366004610e23565b60036020526000908152604090205460ff1681565b60405190151581526020016100cd565b61011c610117366004610e45565b61025e565b005b61011c61012c366004610e93565b610381565b61011c61013f366004610d7d565b6105b4565b610157610152366004610d7d565b610654565b6040516100cd9a99989796959493929190610fee565b6100f961017b366004610d7d565b610b0e565b61011c61018e366004610e45565b610b39565b61011c6101a13660046110bc565b610c03565b61011c6101b4366004610d7d565b610c74565b6004546101cc906001600160a01b031681565b6040516001600160a01b0390911681526020016100cd565b60606002826040516101f691906110f8565b908152604080519182900360209081018320805480830285018301909352828452919083018282801561025257602002820191906000526020600020905b81546001600160a01b03168152600190910190602001808311610234575b50505050509050919050565b8160008160405161026f91906110f8565b90815260405190819003602001902060070154336001600160a01b0390911614806102a957503360009081526003602052604090205460ff165b6102eb5760405162461bcd60e51b815260206004820152600e60248201526d1393d517d055551213d49256915160921b60448201526064015b60405180910390fd5b816000846040516102fc91906110f8565b90815260405190819003602001812060080180546001600160a01b03939093166001600160a01b03199093169290921790915560029061033d9085906110f8565b90815260405160209181900382019020805460018101825560009182529190200180546001600160a01b0319166001600160a01b0393909316929092179091555050565b60018660405161039191906110f8565b9081526040519081900360200190205460ff16156103da5760405162461bcd60e51b815260206004820152600660248201526545584953545360d01b60448201526064016102e2565b604080516101408101825287815260208101879052908101859052606081018490526080810183905260a081018290524260c08201523360e082018190526101008201526101208101600081525060008760405161043891906110f8565b90815260405190819003602001902081518190610455908261119f565b506020820151600182019061046a908261119f565b506040820151600282019061047f908261119f565b5060608201516003820190610494908261119f565b50608082015160048201906104a9908261119f565b5060a082015160058201906104be908261119f565b5060c0820151600682015560e08201516007820180546001600160a01b03199081166001600160a01b039384161790915561010084015160088401805492831691909316908117835561012085015192916001600160a81b03191617600160a01b83600181111561053157610531610fd8565b02179055509050506001808760405161054a91906110f8565b908152604051908190036020018120805492151560ff19909316929092179091556002906105799088906110f8565b908152604051908190036020908101909120805460018101825560009182529190200180546001600160a01b03191633179055505050505050565b80336001600160a01b03166000826040516105cf91906110f8565b908152604051908190036020019020600801546001600160a01b0316146106085760405162461bcd60e51b81526004016102e29061125f565b6000808360405161061991906110f8565b908152604051908190036020019020600801805460ff60a01b1916600160a01b83600181111561064b5761064b610fd8565b02179055505050565b60608060608060608060008060008060018b60405161067391906110f8565b9081526040519081900360200190205460ff166106be5760405162461bcd60e51b81526020600482015260096024820152681393d517d193d5539160ba1b60448201526064016102e2565b6000808c6040516106cf91906110f8565b9081526020016040518091039020604051806101400160405290816000820180546106f990611114565b80601f016020809104026020016040519081016040528092919081815260200182805461072590611114565b80156107725780601f1061074757610100808354040283529160200191610772565b820191906000526020600020905b81548152906001019060200180831161075557829003601f168201915b5050505050815260200160018201805461078b90611114565b80601f01602080910402602001604051908101604052809291908181526020018280546107b790611114565b80156108045780601f106107d957610100808354040283529160200191610804565b820191906000526020600020905b8154815290600101906020018083116107e757829003601f168201915b5050505050815260200160028201805461081d90611114565b80601f016020809104026020016040519081016040528092919081815260200182805461084990611114565b80156108965780601f1061086b57610100808354040283529160200191610896565b820191906000526020600020905b81548152906001019060200180831161087957829003601f168201915b505050505081526020016003820180546108af90611114565b80601f01602080910402602001604051908101604052809291908181526020018280546108db90611114565b80156109285780601f106108fd57610100808354040283529160200191610928565b820191906000526020600020905b81548152906001019060200180831161090b57829003601f168201915b5050505050815260200160048201805461094190611114565b80601f016020809104026020016040519081016040528092919081815260200182805461096d90611114565b80156109ba5780601f1061098f576101008083540402835291602001916109ba565b820191906000526020600020905b81548152906001019060200180831161099d57829003601f168201915b505050505081526020016005820180546109d390611114565b80601f01602080910402602001604051908101604052809291908181526020018280546109ff90611114565b8015610a4c5780601f10610a2157610100808354040283529160200191610a4c565b820191906000526020600020905b815481529060010190602001808311610a2f57829003601f168201915b50505091835250506006820154602082015260078201546001600160a01b03908116604083015260088301549081166060830152608090910190600160a01b900460ff166001811115610aa157610aa1610fd8565b6001811115610ab257610ab2610fd8565b815250509050806000015181602001518260400151836060015184608001518560a001518660c001518760e001518861010001518961012001519a509a509a509a509a509a509a509a509a509a50509193959799509193959799565b6000600182604051610b2091906110f8565b9081526040519081900360200190205460ff1692915050565b81336001600160a01b0316600082604051610b5491906110f8565b908152604051908190036020019020600801546001600160a01b031614610b8d5760405162461bcd60e51b81526004016102e29061125f565b60008084604051610b9e91906110f8565b9081526040519081900360200190206008015460ff600160a01b909104166001811115610bcd57610bcd610fd8565b146102eb5760405162461bcd60e51b815260206004820152600660248201526529aa27a622a760d11b60448201526064016102e2565b6004546001600160a01b03163314610c495760405162461bcd60e51b81526020600482015260096024820152682727aa2fa0a226a4a760b91b60448201526064016102e2565b6001600160a01b03919091166000908152600360205260409020805460ff1916911515919091179055565b80336001600160a01b0316600082604051610c8f91906110f8565b908152604051908190036020019020600801546001600160a01b031614610cc85760405162461bcd60e51b81526004016102e29061125f565b600160008360405161061991906110f8565b634e487b7160e01b600052604160045260246000fd5b600082601f830112610d0157600080fd5b813567ffffffffffffffff80821115610d1c57610d1c610cda565b604051601f8301601f19908116603f01168101908282118183101715610d4457610d44610cda565b81604052838152866020858801011115610d5d57600080fd5b836020870160208301376000602085830101528094505050505092915050565b600060208284031215610d8f57600080fd5b813567ffffffffffffffff811115610da657600080fd5b610db284828501610cf0565b949350505050565b6020808252825182820181905260009190848201906040850190845b81811015610dfb5783516001600160a01b031683529284019291840191600101610dd6565b50909695505050505050565b80356001600160a01b0381168114610e1e57600080fd5b919050565b600060208284031215610e3557600080fd5b610e3e82610e07565b9392505050565b60008060408385031215610e5857600080fd5b823567ffffffffffffffff811115610e6f57600080fd5b610e7b85828601610cf0565b925050610e8a60208401610e07565b90509250929050565b60008060008060008060c08789031215610eac57600080fd5b863567ffffffffffffffff80821115610ec457600080fd5b610ed08a838b01610cf0565b97506020890135915080821115610ee657600080fd5b610ef28a838b01610cf0565b96506040890135915080821115610f0857600080fd5b610f148a838b01610cf0565b95506060890135915080821115610f2a57600080fd5b610f368a838b01610cf0565b94506080890135915080821115610f4c57600080fd5b610f588a838b01610cf0565b935060a0890135915080821115610f6e57600080fd5b50610f7b89828a01610cf0565b9150509295509295509295565b60005b83811015610fa3578181015183820152602001610f8b565b50506000910152565b60008151808452610fc4816020860160208601610f88565b601f01601f19169290920160200192915050565b634e487b7160e01b600052602160045260246000fd5b60006101408083526110028184018e610fac565b90508281036020840152611016818d610fac565b9050828103604084015261102a818c610fac565b9050828103606084015261103e818b610fac565b90508281036080840152611052818a610fac565b905082810360a08401526110668189610fac565b60c084018890526001600160a01b0387811660e08601528616610100850152915050600283106110a657634e487b7160e01b600052602160045260246000fd5b826101208301529b9a5050505050505050505050565b600080604083850312156110cf57600080fd5b6110d883610e07565b9150602083013580151581146110ed57600080fd5b809150509250929050565b6000825161110a818460208701610f88565b9190910192915050565b600181811c9082168061112857607f821691505b60208210810361114857634e487b7160e01b600052602260045260246000fd5b50919050565b601f82111561119a576000816000526020600020601f850160051c810160208610156111775750805b601f850160051c820191505b8181101561119657828155600101611183565b5050505b505050565b815167ffffffffffffffff8111156111b9576111b9610cda565b6111cd816111c78454611114565b8461114e565b602080601f83116001811461120257600084156111ea5750858301515b600019600386901b1c1916600185901b178555611196565b600085815260208120601f198616915b8281101561123157888601518255948401946001909101908401611212565b508582101561124f5787850151600019600388901b60f8161c191681555b5050505050600190811b01905550565b6020808252600990820152682727aa2fa7aba722a960b91b60408201526060019056fea264697066735822122068de3cfdea11db4409b77b9b3d653a1443e139dfd95f937a93eba7df577134a664736f6c63430008180033",
  "linkReferences": {},
  "deployedLinkReferences": {}
}