{
  "_format": "hh-sol-artifact-1",
  "contractName": "TaaSProductEnterprise",
  "sourceName": "contracts/TaaSProductEnterprise.sol",
  "abi": [
    {
      "inputs": [],
      "stateMutability": "nonpayable",
      "type": "constructor"
    },
    {
      "inputs": [],
      "name": "admin",
      "outputs": [
        {
          "internalType": "address",
          "name": "",
          "type": "address"
        }
      ],
      "stateMutability": "view",
      "type": "function"
    },
    {
      "inputs": [
        {
          "internalType": "address",
          "name": "",
          "type": "address"
        }
      ],
      "name": "authorizedDealer",
      "outputs": [
        {
          "internalType": "bool",
          "name": "",
          "type": "bool"
        }
      ],
      "stateMutability": "view",
      "type": "function"
    },
    {
      "inputs": [
        {
          "internalType": "string",
          "name": "gpid",
          "type": "string"
        },
        {
          "internalType": "string",
          "name": "brand",
          "type": "string"
        },
        {
          "internalType": "string",
          "name": "model",
          "type": "string"
        },
        {
          "internalType": "string",
          "name": "category",
          "type": "string"
        },
        {
          "internalType": "string",
          "name": "factory",
          "type": "string"
        },
        {
          "internalType": "string",
          "name": "batch",
          "type": "string"
        }
      ],
      "name": "createProduct",
      "outputs": [],
      "stateMutability": "nonpayable",
      "type": "function"
    },
    {
      "inputs": [
        {
          "internalType": "string",
          "name": "gpid",
          "type": "string"
        },
        {
          "internalType": "address",
          "name": "customer",
          "type": "address"
        }
      ],
      "name": "dealerTransfer",
      "outputs": [],
      "stateMutability": "nonpayable",
      "type": "function"
    },
    {
      "inputs": [
        {
          "internalType": "string",
          "name": "gpid",
          "type": "string"
        }
      ],
      "name": "getOwnershipHistory",
      "outputs": [
        {
          "internalType": "address[]",
          "name": "",
          "type": "address[]"
        }
      ],
      "stateMutability": "view",
      "type": "function"
    },
    {
      "inputs": [
        {
          "internalType": "string",
          "name": "gpid",
          "type": "string"
        }
      ],
      "name": "getProduct",
      "outputs": [
        {
          "internalType": "string",
          "name": "",
          "type": "string"
        },
        {
          "internalType": "string",
          "name": "",
          "type": "string"
        },
        {
          "internalType": "string",
          "name": "",
          "type": "string"
        },
        {
          "internalType": "string",
          "name": "",
          "type": "string"
        },
        {
          "internalType": "string",
          "name": "",
          "type": "string"
        },
        {
          "internalType": "string",
          "name": "",
          "type": "string"
        },
        {
          "internalType": "uint256",
          "name": "",
          "type": "uint256"
        },
        {
          "internalType": "address",
          "name": "",
          "type": "address"
        },
        {
          "internalType": "address",
          "name": "",
          "type": "address"
        },
        {
          "internalType": "enum TaaSProductEnterprise.Status",
          "name": "",
          "type": "uint8"
        }
      ],
      "stateMutability": "view",
      "type": "function"
    },
    {
      "inputs": [
        {
          "internalType": "string",
          "name": "gpid",
          "type": "string"
        }
      ],
      "name": "markStolen",
      "outputs": [],
      "stateMutability": "nonpayable",
      "type": "function"
    },
    {
      "inputs": [
        {
          "internalType": "string",
          "name": "gpid",
          "type": "string"
        }
      ],
      "name": "productExists",
      "outputs": [
        {
          "internalType": "bool",
          "name": "",
          "type": "bool"
        }
      ],
      "stateMutability": "view",
      "type": "function"
    },
    {
      "inputs": [
        {
          "internalType": "string",
          "name": "gpid",
          "type": "string"
        }
      ],
      "name": "recoverProduct",
      "outputs": [],
      "stateMutability": "nonpayable",
      "type": "function"
    },
    {
      "inputs": [
        {
          "internalType": "address",
          "name": "dealer",
          "type": "address"
        },
        {
          "internalType": "bool",
          "name": "state",
          "type": "bool"
        }
      ],
      "name": "setDealer",
      "outputs": [],
      "stateMutability": "nonpayable",
      "type": "function"
    },
    {
      "inputs": [
        {
          "internalType": "string",
          "name": "gpid",
          "type": "string"
        },
        {
          "internalType": "address",
          "name": "newOwner",
          "type": "address"
        }
      ],
      "name": "transferOwnership",
      "outputs": [],
      "stateMutability": "nonpayable",
      "type": "function"
    }
  ],
  "bytecode": "0x608060405234801561001057600080fd5b5033600460006101000a81548173ffffffffffffffffffffffffffffffffffffffff021916908373ffffffffffffffffffffffffffffffffffffffff160217905550612000806100616000396000f3fe608060405234801561001057600080fd5b50600436106100a85760003560e01c806368111cce1161007157806368111cce146101615780638addc0511461019a578063c0e793c2146101ca578063e69e8921146101e6578063f62e4e6314610202578063f851a4401461021e576100a8565b8062c966be146100ad5780630d716206146100dd57806332b3b08d1461010d57806355a53f061461012957806359b1940a14610145575b600080fd5b6100c760048036038101906100c2919061142b565b61023c565b6040516100d49190611564565b60405180910390f35b6100f760048036038101906100f291906115b2565b6102e8565b60405161010491906115fa565b60405180910390f35b61012760048036038101906101229190611615565b610308565b005b610143600480360381019061013e9190611671565b6104f0565b005b61015f600480360381019061015a919061142b565b61080d565b005b61017b6004803603810190610176919061142b565b61090a565b6040516101919a999897969594939291906118c4565b60405180910390f35b6101b460048036038101906101af919061142b565b610e64565b6040516101c191906115fa565b60405180910390f35b6101e460048036038101906101df9190611615565b610e99565b005b61020060048036038101906101fb91906119b6565b6110c2565b005b61021c6004803603810190610217919061142b565b6111ad565b005b6102266112ab565b60405161023391906119f6565b60405180910390f35b606060028260405161024e9190611a4d565b90815260200160405180910390208054806020026020016040519081016040528092919081815260200182805480156102dc57602002820191906000526020600020905b8160009054906101000a900473ffffffffffffffffffffffffffffffffffffffff1673ffffffffffffffffffffffffffffffffffffffff1681526020019060010190808311610292575b50505050509050919050565b60036020528060005260406000206000915054906101000a900460ff1681565b816000816040516103199190611a4d565b908152602001604051809103902060070160009054906101000a900473ffffffffffffffffffffffffffffffffffffffff1673ffffffffffffffffffffffffffffffffffffffff163373ffffffffffffffffffffffffffffffffffffffff1614806103cd5750600360003373ffffffffffffffffffffffffffffffffffffffff1673ffffffffffffffffffffffffffffffffffffffff16815260200190815260200160002060009054906101000a900460ff165b61040c576040517f08c379a000000000000000000000000000000000000000000000000000000000815260040161040390611ab0565b60405180910390fd5b8160008460405161041d9190611a4d565b908152602001604051809103902060080160006101000a81548173ffffffffffffffffffffffffffffffffffffffff021916908373ffffffffffffffffffffffffffffffffffffffff16021790555060028360405161047c9190611a4d565b9081526020016040518091039020829080600181540180825580915050600190039060005260206000200160009091909190916101000a81548173ffffffffffffffffffffffffffffffffffffffff021916908373ffffffffffffffffffffffffffffffffffffffff160217905550505050565b6001866040516105009190611a4d565b908152602001604051809103902060009054906101000a900460ff161561055c576040517f08c379a000000000000000000000000000000000000000000000000000000000815260040161055390611b1c565b60405180910390fd5b6040518061014001604052808781526020018681526020018581526020018481526020018381526020018281526020014281526020013373ffffffffffffffffffffffffffffffffffffffff1681526020013373ffffffffffffffffffffffffffffffffffffffff168152602001600060018111156105de576105dd61184d565b5b8152506000876040516105f19190611a4d565b908152602001604051809103902060008201518160000190816106149190611d48565b50602082015181600101908161062a9190611d48565b5060408201518160020190816106409190611d48565b5060608201518160030190816106569190611d48565b50608082015181600401908161066c9190611d48565b5060a08201518160050190816106829190611d48565b5060c0820151816006015560e08201518160070160006101000a81548173ffffffffffffffffffffffffffffffffffffffff021916908373ffffffffffffffffffffffffffffffffffffffff1602179055506101008201518160080160006101000a81548173ffffffffffffffffffffffffffffffffffffffff021916908373ffffffffffffffffffffffffffffffffffffffff1602179055506101208201518160080160146101000a81548160ff021916908360018111156107485761074761184d565b5b0217905550905050600180876040516107619190611a4d565b908152602001604051809103902060006101000a81548160ff0219169083151502179055506002866040516107969190611a4d565b9081526020016040518091039020339080600181540180825580915050600190039060005260206000200160009091909190916101000a81548173ffffffffffffffffffffffffffffffffffffffff021916908373ffffffffffffffffffffffffffffffffffffffff160217905550505050505050565b803373ffffffffffffffffffffffffffffffffffffffff166000826040516108359190611a4d565b908152602001604051809103902060080160009054906101000a900473ffffffffffffffffffffffffffffffffffffffff1673ffffffffffffffffffffffffffffffffffffffff16146108bd576040517f08c379a00000000000000000000000000000000000000000000000000000000081526004016108b490611e66565b60405180910390fd5b600080836040516108ce9190611a4d565b908152602001604051809103902060080160146101000a81548160ff021916908360018111156109015761090061184d565b5b02179055505050565b60608060608060608060008060008060018b6040516109299190611a4d565b908152602001604051809103902060009054906101000a900460ff16610984576040517f08c379a000000000000000000000000000000000000000000000000000000000815260040161097b90611ed2565b60405180910390fd5b6000808c6040516109959190611a4d565b9081526020016040518091039020604051806101400160405290816000820180546109bf90611b6b565b80601f01602080910402602001604051908101604052809291908181526020018280546109eb90611b6b565b8015610a385780601f10610a0d57610100808354040283529160200191610a38565b820191906000526020600020905b815481529060010190602001808311610a1b57829003601f168201915b50505050508152602001600182018054610a5190611b6b565b80601f0160208091040260200160405190810160405280929190818152602001828054610a7d90611b6b565b8015610aca5780601f10610a9f57610100808354040283529160200191610aca565b820191906000526020600020905b815481529060010190602001808311610aad57829003601f168201915b50505050508152602001600282018054610ae390611b6b565b80601f0160208091040260200160405190810160405280929190818152602001828054610b0f90611b6b565b8015610b5c5780601f10610b3157610100808354040283529160200191610b5c565b820191906000526020600020905b815481529060010190602001808311610b3f57829003601f168201915b50505050508152602001600382018054610b7590611b6b565b80601f0160208091040260200160405190810160405280929190818152602001828054610ba190611b6b565b8015610bee5780601f10610bc357610100808354040283529160200191610bee565b820191906000526020600020905b815481529060010190602001808311610bd157829003601f168201915b50505050508152602001600482018054610c0790611b6b565b80601f0160208091040260200160405190810160405280929190818152602001828054610c3390611b6b565b8015610c805780601f10610c5557610100808354040283529160200191610c80565b820191906000526020600020905b815481529060010190602001808311610c6357829003601f168201915b50505050508152602001600582018054610c9990611b6b565b80601f0160208091040260200160405190810160405280929190818152602001828054610cc590611b6b565b8015610d125780601f10610ce757610100808354040283529160200191610d12565b820191906000526020600020905b815481529060010190602001808311610cf557829003601f168201915b50505050508152602001600682015481526020016007820160009054906101000a900473ffffffffffffffffffffffffffffffffffffffff1673ffffffffffffffffffffffffffffffffffffffff1673ffffffffffffffffffffffffffffffffffffffff1681526020016008820160009054906101000a900473ffffffffffffffffffffffffffffffffffffffff1673ffffffffffffffffffffffffffffffffffffffff1673ffffffffffffffffffffffffffffffffffffffff1681526020016008820160149054906101000a900460ff166001811115610df657610df561184d565b5b6001811115610e0857610e0761184d565b5b815250509050806000015181602001518260400151836060015184608001518560a001518660c001518760e001518861010001518961012001519a509a509a509a509a509a509a509a509a509a50509193959799509193959799565b6000600182604051610e769190611a4d565b908152602001604051809103902060009054906101000a900460ff169050919050565b813373ffffffffffffffffffffffffffffffffffffffff16600082604051610ec19190611a4d565b908152602001604051809103902060080160009054906101000a900473ffffffffffffffffffffffffffffffffffffffff1673ffffffffffffffffffffffffffffffffffffffff1614610f49576040517f08c379a0000000000000000000000000000000000000000000000000000000008152600401610f4090611e66565b60405180910390fd5b60006001811115610f5d57610f5c61184d565b5b600084604051610f6d9190611a4d565b908152602001604051809103902060080160149054906101000a900460ff166001811115610f9e57610f9d61184d565b5b14610fde576040517f08c379a0000000000000000000000000000000000000000000000000000000008152600401610fd590611f3e565b60405180910390fd5b81600084604051610fef9190611a4d565b908152602001604051809103902060080160006101000a81548173ffffffffffffffffffffffffffffffffffffffff021916908373ffffffffffffffffffffffffffffffffffffffff16021790555060028360405161104e9190611a4d565b9081526020016040518091039020829080600181540180825580915050600190039060005260206000200160009091909190916101000a81548173ffffffffffffffffffffffffffffffffffffffff021916908373ffffffffffffffffffffffffffffffffffffffff160217905550505050565b600460009054906101000a900473ffffffffffffffffffffffffffffffffffffffff1673ffffffffffffffffffffffffffffffffffffffff163373ffffffffffffffffffffffffffffffffffffffff1614611152576040517f08c379a000000000000000000000000000000000000000000000000000000000815260040161114990611faa565b60405180910390fd5b80600360008473ffffffffffffffffffffffffffffffffffffffff1673ffffffffffffffffffffffffffffffffffffffff16815260200190815260200160002060006101000a81548160ff0219169083151502179055505050565b803373ffffffffffffffffffffffffffffffffffffffff166000826040516111d59190611a4d565b908152602001604051809103902060080160009054906101000a900473ffffffffffffffffffffffffffffffffffffffff1673ffffffffffffffffffffffffffffffffffffffff161461125d576040517f08c379a000000000000000000000000000000000000000000000000000000000815260040161125490611e66565b60405180910390fd5b600160008360405161126f9190611a4d565b908152602001604051809103902060080160146101000a81548160ff021916908360018111156112a2576112a161184d565b5b02179055505050565b600460009054906101000a900473ffffffffffffffffffffffffffffffffffffffff1681565b6000604051905090565b600080fd5b600080fd5b600080fd5b600080fd5b6000601f19601f8301169050919050565b7f4e487b7100000000000000000000000000000000000000000000000000000000600052604160045260246000fd5b611338826112ef565b810181811067ffffffffffffffff8211171561135757611356611300565b5b80604052505050565b600061136a6112d1565b9050611376828261132f565b919050565b600067ffffffffffffffff82111561139657611395611300565b5b61139f826112ef565b9050602081019050919050565b82818337600083830152505050565b60006113ce6113c98461137b565b611360565b9050828152602081018484840111156113ea576113e96112ea565b5b6113f58482856113ac565b509392505050565b600082601f830112611412576114116112e5565b5b81356114228482602086016113bb565b91505092915050565b600060208284031215611441576114406112db565b5b600082013567ffffffffffffffff81111561145f5761145e6112e0565b5b61146b848285016113fd565b91505092915050565b600081519050919050565b600082825260208201905092915050565b6000819050602082019050919050565b600073ffffffffffffffffffffffffffffffffffffffff82169050919050565b60006114cb826114a0565b9050919050565b6114db816114c0565b82525050565b60006114ed83836114d2565b60208301905092915050565b6000602082019050919050565b600061151182611474565b61151b818561147f565b935061152683611490565b8060005b8381101561155757815161153e88826114e1565b9750611549836114f9565b92505060018101905061152a565b5085935050505092915050565b6000602082019050818103600083015261157e8184611506565b905092915050565b61158f816114c0565b811461159a57600080fd5b50565b6000813590506115ac81611586565b92915050565b6000602082840312156115c8576115c76112db565b5b60006115d68482850161159d565b91505092915050565b60008115159050919050565b6115f4816115df565b82525050565b600060208201905061160f60008301846115eb565b92915050565b6000806040838503121561162c5761162b6112db565b5b600083013567ffffffffffffffff81111561164a576116496112e0565b5b611656858286016113fd565b92505060206116678582860161159d565b9150509250929050565b60008060008060008060c0878903121561168e5761168d6112db565b5b600087013567ffffffffffffffff8111156116ac576116ab6112e0565b5b6116b889828a016113fd565b965050602087013567ffffffffffffffff8111156116d9576116d86112e0565b5b6116e589828a016113fd565b955050604087013567ffffffffffffffff811115611706576117056112e0565b5b61171289828a016113fd565b945050606087013567ffffffffffffffff811115611733576117326112e0565b5b61173f89828a016113fd565b935050608087013567ffffffffffffffff8111156117605761175f6112e0565b5b61176c89828a016113fd565b92505060a087013567ffffffffffffffff81111561178d5761178c6112e0565b5b61179989828a016113fd565b9150509295509295509295565b600081519050919050565b600082825260208201905092915050565b60005b838110156117e05780820151818401526020810190506117c5565b60008484015250505050565b60006117f7826117a6565b61180181856117b1565b93506118118185602086016117c2565b61181a816112ef565b840191505092915050565b6000819050919050565b61183881611825565b82525050565b611847816114c0565b82525050565b7f4e487b7100000000000000000000000000000000000000000000000000000000600052602160045260246000fd5b6002811061188d5761188c61184d565b5b50565b600081905061189e8261187c565b919050565b60006118ae82611890565b9050919050565b6118be816118a3565b82525050565b60006101408201905081810360008301526118df818d6117ec565b905081810360208301526118f3818c6117ec565b90508181036040830152611907818b6117ec565b9050818103606083015261191b818a6117ec565b9050818103608083015261192f81896117ec565b905081810360a083015261194381886117ec565b905061195260c083018761182f565b61195f60e083018661183e565b61196d61010083018561183e565b61197b6101208301846118b5565b9b9a5050505050505050505050565b611993816115df565b811461199e57600080fd5b50565b6000813590506119b08161198a565b92915050565b600080604083850312156119cd576119cc6112db565b5b60006119db8582860161159d565b92505060206119ec858286016119a1565b9150509250929050565b6000602082019050611a0b600083018461183e565b92915050565b600081905092915050565b6000611a27826117a6565b611a318185611a11565b9350611a418185602086016117c2565b80840191505092915050565b6000611a598284611a1c565b915081905092915050565b7f4e4f545f415554484f52495a4544000000000000000000000000000000000000600082015250565b6000611a9a600e836117b1565b9150611aa582611a64565b602082019050919050565b60006020820190508181036000830152611ac981611a8d565b9050919050565b7f4558495354530000000000000000000000000000000000000000000000000000600082015250565b6000611b066006836117b1565b9150611b1182611ad0565b602082019050919050565b60006020820190508181036000830152611b3581611af9565b9050919050565b7f4e487b7100000000000000000000000000000000000000000000000000000000600052602260045260246000fd5b60006002820490506001821680611b8357607f821691505b602082108103611b9657611b95611b3c565b5b50919050565b60008190508160005260206000209050919050565b60006020601f8301049050919050565b600082821b905092915050565b600060088302611bfe7fffffffffffffffffffffffffffffffffffffffffffffffffffffffffffffffff82611bc1565b611c088683611bc1565b95508019841693508086168417925050509392505050565b6000819050919050565b6000611c45611c40611c3b84611825565b611c20565b611825565b9050919050565b6000819050919050565b611c5f83611c2a565b611c73611c6b82611c4c565b848454611bce565b825550505050565b600090565b611c88611c7b565b611c93818484611c56565b505050565b5b81811015611cb757611cac600082611c80565b600181019050611c99565b5050565b601f821115611cfc57611ccd81611b9c565b611cd684611bb1565b81016020851015611ce5578190505b611cf9611cf185611bb1565b830182611c98565b50505b505050565b600082821c905092915050565b6000611d1f60001984600802611d01565b1980831691505092915050565b6000611d388383611d0e565b9150826002028217905092915050565b611d51826117a6565b67ffffffffffffffff811115611d6a57611d69611300565b5b611d748254611b6b565b611d7f828285611cbb565b600060209050601f831160018114611db25760008415611da0578287015190505b611daa8582611d2c565b865550611e12565b601f198416611dc086611b9c565b60005b82811015611de857848901518255600182019150602085019450602081019050611dc3565b86831015611e055784890151611e01601f891682611d0e565b8355505b6001600288020188555050505b505050505050565b7f4e4f545f4f574e45520000000000000000000000000000000000000000000000600082015250565b6000611e506009836117b1565b9150611e5b82611e1a565b602082019050919050565b60006020820190508181036000830152611e7f81611e43565b9050919050565b7f4e4f545f464f554e440000000000000000000000000000000000000000000000600082015250565b6000611ebc6009836117b1565b9150611ec782611e86565b602082019050919050565b60006020820190508181036000830152611eeb81611eaf565b9050919050565b7f53544f4c454e0000000000000000000000000000000000000000000000000000600082015250565b6000611f286006836117b1565b9150611f3382611ef2565b602082019050919050565b60006020820190508181036000830152611f5781611f1b565b9050919050565b7f4e4f545f41444d494e0000000000000000000000000000000000000000000000600082015250565b6000611f946009836117b1565b9150611f9f82611f5e565b602082019050919050565b60006020820190508181036000830152611fc381611f87565b905091905056fea2646970667358221220c5f0b0399e00e6fd911679418d6a97bcd38717d0fd51d14f23d315bc3928f14864736f6c63430008140033",
  "linkReferences": {},
  "deployedLinkReferences": {}
}