{
  "_format": "hh-sol-artifact-1",
  "contractName": "TaaSHierarchy",
  "sourceName": "contracts/TaaSHierarchy.sol",
  "abi": [
    {
      "inputs": [],
      "stateMutability": "nonpayable",
      "type": "constructor"
    },
    {
      "anonymous": false,
      "inputs": [
        {
          "indexed": true,
          "internalType": "address",
          "name": "brand",
          "type": "address"
        }
      ],
      "name": "BrandAdded",
      "type": "event"
    },
    {
      "anonymous": false,
      "inputs": [
        {
          "indexed": true,
          "internalType": "address",
          "name": "dealer",
          "type": "address"
        }
      ],
      "name": "DealerAdded",
      "type": "event"
    },
    {
      "anonymous": false,
      "inputs": [
        {
          "indexed": true,
          "internalType": "address",
          "name": "factory",
          "type": "address"
        }
      ],
      "name": "FactoryAdded",
      "type": "event"
    },
    {
      "inputs": [
        {
          "internalType": "address",
          "name": "brand",
          "type": "address"
        }
      ],
      "name": "addBrand",
      "outputs": [],
      "stateMutability": "nonpayable",
      "type": "function"
    },
    {
      "inputs": [
        {
          "internalType": "address",
          "name": "dealer",
          "type": "address"
        }
      ],
      "name": "addDealer",
      "outputs": [],
      "stateMutability": "nonpayable",
      "type": "function"
    },
    {
      "inputs": [
        {
          "internalType": "address",
          "name": "factory",
          "type": "address"
        }
      ],
      "name": "addFactory",
      "outputs": [],
      "stateMutability": "nonpayable",
      "type": "function"
    },
    {
      "inputs": [],
      "name": "admin",
      "outputs": [
        {
          "internalType": "address",
          "name": "",
          "type": "address"
        }
      ],
      "stateMutability": "view",
      "type": "function"
    },
    {
      "inputs": [
        {
          "internalType": "address",
          "name": "",
          "type": "address"
        }
      ],
      "name": "brands",
      "outputs": [
        {
          "internalType": "bool",
          "name": "",
          "type": "bool"
        }
      ],
      "stateMutability": "view",
      "type": "function"
    },
    {
      "inputs": [
        {
          "internalType": "address",
          "name": "",
          "type": "address"
        }
      ],
      "name": "dealers",
      "outputs": [
        {
          "internalType": "bool",
          "name": "",
          "type": "bool"
        }
      ],
      "stateMutability": "view",
      "type": "function"
    },
    {
      "inputs": [
        {
          "internalType": "address",
          "name": "",
          "type": "address"
        }
      ],
      "name": "factories",
      "outputs": [
        {
          "internalType": "bool",
          "name": "",
          "type": "bool"
        }
      ],
      "stateMutability": "view",
      "type": "function"
    },
    {
      "inputs": [
        {
          "internalType": "address",
          "name": "user",
          "type": "address"
        }
      ],
      "name": "isBrand",
      "outputs": [
        {
          "internalType": "bool",
          "name": "",
          "type": "bool"
        }
      ],
      "stateMutability": "view",
      "type": "function"
    },
    {
      "inputs": [
        {
          "internalType": "address",
          "name": "user",
          "type": "address"
        }
      ],
      "name": "isDealer",
      "outputs": [
        {
          "internalType": "bool",
          "name": "",
          "type": "bool"
        }
      ],
      "stateMutability": "view",
      "type": "function"
    },
    {
      "inputs": [
        {
          "internalType": "address",
          "name": "user",
          "type": "address"
        }
      ],
      "name": "isFactory",
      "outputs": [
        {
          "internalType": "bool",
          "name": "",
          "type": "bool"
        }
      ],
      "stateMutability": "view",
      "type": "function"
    }
  ],
  "bytecode": "0x608060405234801561001057600080fd5b50600080546001600160a01b0319163317905561043b806100326000396000f3fe608060405234801561001057600080fd5b506004361061009e5760003560e01c80635b7fd9b5116100665780635b7fd9b51461014b578063f62fe1d51461016e578063f851a44014610191578063fab52689146101bc578063fe2e81d4146101df57600080fd5b806305a5562d146100a357806306d6cb76146100e45780630f04ba67146100f957806329ce1ec51461012557806358aa5b2b14610138575b600080fd5b6100cf6100b13660046103d5565b6001600160a01b031660009081526001602052604090205460ff1690565b60405190151581526020015b60405180910390f35b6100f76100f23660046103d5565b61020b565b005b6100cf6101073660046103d5565b6001600160a01b031660009081526002602052604090205460ff1690565b6100f76101333660046103d5565b6102a9565b6100f76101463660046103d5565b610340565b6100cf6101593660046103d5565b60016020526000908152604090205460ff1681565b6100cf61017c3660046103d5565b60036020526000908152604090205460ff1681565b6000546101a4906001600160a01b031681565b6040516001600160a01b0390911681526020016100db565b6100cf6101ca3660046103d5565b60026020526000908152604090205460ff1681565b6100cf6101ed3660046103d5565b6001600160a01b031660009081526003602052604090205460ff1690565b3360009081526002602052604090205460ff1661025d5760405162461bcd60e51b815260206004820152600b60248201526a4e4f545f464143544f525960a81b60448201526064015b60405180910390fd5b6001600160a01b038116600081815260036020526040808220805460ff19166001179055517f98f3b9743e04ddffc992c14d8217e2d0467e51bbec660a88b2c756e6eebc4e649190a250565b3360009081526001602052604090205460ff166102f45760405162461bcd60e51b81526020600482015260096024820152681393d517d09490539160ba1b6044820152606401610254565b6001600160a01b038116600081815260026020526040808220805460ff19166001179055517f6fdc0147105e43e21da80a75b42d0fd464060d5e1a34b0cefbf0b4ccfc2e36a19190a250565b6000546001600160a01b031633146103865760405162461bcd60e51b81526020600482015260096024820152682727aa2fa0a226a4a760b91b6044820152606401610254565b6001600160a01b0381166000818152600160208190526040808320805460ff1916909217909155517ff294465ab6aaa3650993093431777d23cda2be98f0ce448bbd202694c8beafb99190a250565b6000602082840312156103e757600080fd5b81356001600160a01b03811681146103fe57600080fd5b939250505056fea26469706673582212202f859a6ad27d87ebb8a2ef35472fe33d83a5ef472ac783764c17a0f23bce397664736f6c63430008180033",
  "linkReferences": {},
  "deployedLinkReferences": {}
}