{
  "_format": "hh-sol-artifact-1",
  "contractName": "TaaSHierarchy",
  "sourceName": "contracts/TaaSHierarchy.sol",
  "abi": [
    {
      "inputs": [],
      "stateMutability": "nonpayable",
      "type": "constructor"
    },
    {
      "anonymous": false,
      "inputs": [
        {
          "indexed": true,
          "internalType": "address",
          "name": "brand",
          "type": "address"
        }
      ],
      "name": "BrandAdded",
      "type": "event"
    },
    {
      "anonymous": false,
      "inputs": [
        {
          "indexed": true,
          "internalType": "address",
          "name": "dealer",
          "type": "address"
        }
      ],
      "name": "DealerAdded",
      "type": "event"
    },
    {
      "anonymous": false,
      "inputs": [
        {
          "indexed": true,
          "internalType": "address",
          "name": "factory",
          "type": "address"
        }
      ],
      "name": "FactoryAdded",
      "type": "event"
    },
    {
      "inputs": [
        {
          "internalType": "address",
          "name": "brand",
          "type": "address"
        }
      ],
      "name": "addBrand",
      "outputs": [],
      "stateMutability": "nonpayable",
      "type": "function"
    },
    {
      "inputs": [
        {
          "internalType": "address",
          "name": "dealer",
          "type": "address"
        }
      ],
      "name": "addDealer",
      "outputs": [],
      "stateMutability": "nonpayable",
      "type": "function"
    },
    {
      "inputs": [
        {
          "internalType": "address",
          "name": "factory",
          "type": "address"
        }
      ],
      "name": "addFactory",
      "outputs": [],
      "stateMutability": "nonpayable",
      "type": "function"
    },
    {
      "inputs": [],
      "name": "admin",
      "outputs": [
        {
          "internalType": "address",
          "name": "",
          "type": "address"
        }
      ],
      "stateMutability": "view",
      "type": "function"
    },
    {
      "inputs": [
        {
          "internalType": "address",
          "name": "",
          "type": "address"
        }
      ],
      "name": "brands",
      "outputs": [
        {
          "internalType": "bool",
          "name": "",
          "type": "bool"
        }
      ],
      "stateMutability": "view",
      "type": "function"
    },
    {
      "inputs": [
        {
          "internalType": "address",
          "name": "",
          "type": "address"
        }
      ],
      "name": "dealers",
      "outputs": [
        {
          "internalType": "bool",
          "name": "",
          "type": "bool"
        }
      ],
      "stateMutability": "view",
      "type": "function"
    },
    {
      "inputs": [
        {
          "internalType": "address",
          "name": "",
          "type": "address"
        }
      ],
      "name": "factories",
      "outputs": [
        {
          "internalType": "bool",
          "name": "",
          "type": "bool"
        }
      ],
      "stateMutability": "view",
      "type": "function"
    },
    {
      "inputs": [
        {
          "internalType": "address",
          "name": "user",
          "type": "address"
        }
      ],
      "name": "isBrand",
      "outputs": [
        {
          "internalType": "bool",
          "name": "",
          "type": "bool"
        }
      ],
      "stateMutability": "view",
      "type": "function"
    },
    {
      "inputs": [
        {
          "internalType": "address",
          "name": "user",
          "type": "address"
        }
      ],
      "name": "isDealer",
      "outputs": [
        {
          "internalType": "bool",
          "name": "",
          "type": "bool"
        }
      ],
      "stateMutability": "view",
      "type": "function"
    },
    {
      "inputs": [
        {
          "internalType": "address",
          "name": "user",
          "type": "address"
        }
      ],
      "name": "isFactory",
      "outputs": [
        {
          "internalType": "bool",
          "name": "",
          "type": "bool"
        }
      ],
      "stateMutability": "view",
      "type": "function"
    }
  ],
  "bytecode": "0x608060405234801561001057600080fd5b50336000806101000a81548173ffffffffffffffffffffffffffffffffffffffff021916908373ffffffffffffffffffffffffffffffffffffffff1602179055506109b5806100606000396000f3fe608060405234801561001057600080fd5b506004361061009e5760003560e01c80635b7fd9b5116100665780635b7fd9b514610157578063f62fe1d514610187578063f851a440146101b7578063fab52689146101d5578063fe2e81d4146102055761009e565b806305a5562d146100a357806306d6cb76146100d35780630f04ba67146100ef57806329ce1ec51461011f57806358aa5b2b1461013b575b600080fd5b6100bd60048036038101906100b8919061079d565b610235565b6040516100ca91906107e5565b60405180910390f35b6100ed60048036038101906100e8919061079d565b61028b565b005b6101096004803603810190610104919061079d565b6103b5565b60405161011691906107e5565b60405180910390f35b6101396004803603810190610134919061079d565b61040b565b005b6101556004803603810190610150919061079d565b610535565b005b610171600480360381019061016c919061079d565b610660565b60405161017e91906107e5565b60405180910390f35b6101a1600480360381019061019c919061079d565b610680565b6040516101ae91906107e5565b60405180910390f35b6101bf6106a0565b6040516101cc919061080f565b60405180910390f35b6101ef60048036038101906101ea919061079d565b6106c4565b6040516101fc91906107e5565b60405180910390f35b61021f600480360381019061021a919061079d565b6106e4565b60405161022c91906107e5565b60405180910390f35b6000600160008373ffffffffffffffffffffffffffffffffffffffff1673ffffffffffffffffffffffffffffffffffffffff16815260200190815260200160002060009054906101000a900460ff169050919050565b600260003373ffffffffffffffffffffffffffffffffffffffff1673ffffffffffffffffffffffffffffffffffffffff16815260200190815260200160002060009054906101000a900460ff16610317576040517f08c379a000000000000000000000000000000000000000000000000000000000815260040161030e90610887565b60405180910390fd5b6001600360008373ffffffffffffffffffffffffffffffffffffffff1673ffffffffffffffffffffffffffffffffffffffff16815260200190815260200160002060006101000a81548160ff0219169083151502179055508073ffffffffffffffffffffffffffffffffffffffff167f98f3b9743e04ddffc992c14d8217e2d0467e51bbec660a88b2c756e6eebc4e6460405160405180910390a250565b6000600260008373ffffffffffffffffffffffffffffffffffffffff1673ffffffffffffffffffffffffffffffffffffffff16815260200190815260200160002060009054906101000a900460ff169050919050565b600160003373ffffffffffffffffffffffffffffffffffffffff1673ffffffffffffffffffffffffffffffffffffffff16815260200190815260200160002060009054906101000a900460ff16610497576040517f08c379a000000000000000000000000000000000000000000000000000000000815260040161048e906108f3565b60405180910390fd5b6001600260008373ffffffffffffffffffffffffffffffffffffffff1673ffffffffffffffffffffffffffffffffffffffff16815260200190815260200160002060006101000a81548160ff0219169083151502179055508073ffffffffffffffffffffffffffffffffffffffff167f6fdc0147105e43e21da80a75b42d0fd464060d5e1a34b0cefbf0b4ccfc2e36a160405160405180910390a250565b60008054906101000a900473ffffffffffffffffffffffffffffffffffffffff1673ffffffffffffffffffffffffffffffffffffffff163373ffffffffffffffffffffffffffffffffffffffff16146105c3576040517f08c379a00000000000000000000000000000000000000000000000000000000081526004016105ba9061095f565b60405180910390fd5b60018060008373ffffffffffffffffffffffffffffffffffffffff1673ffffffffffffffffffffffffffffffffffffffff16815260200190815260200160002060006101000a81548160ff0219169083151502179055508073ffffffffffffffffffffffffffffffffffffffff167ff294465ab6aaa3650993093431777d23cda2be98f0ce448bbd202694c8beafb960405160405180910390a250565b60016020528060005260406000206000915054906101000a900460ff1681565b60036020528060005260406000206000915054906101000a900460ff1681565b60008054906101000a900473ffffffffffffffffffffffffffffffffffffffff1681565b60026020528060005260406000206000915054906101000a900460ff1681565b6000600360008373ffffffffffffffffffffffffffffffffffffffff1673ffffffffffffffffffffffffffffffffffffffff16815260200190815260200160002060009054906101000a900460ff169050919050565b600080fd5b600073ffffffffffffffffffffffffffffffffffffffff82169050919050565b600061076a8261073f565b9050919050565b61077a8161075f565b811461078557600080fd5b50565b60008135905061079781610771565b92915050565b6000602082840312156107b3576107b261073a565b5b60006107c184828501610788565b91505092915050565b60008115159050919050565b6107df816107ca565b82525050565b60006020820190506107fa60008301846107d6565b92915050565b6108098161075f565b82525050565b60006020820190506108246000830184610800565b92915050565b600082825260208201905092915050565b7f4e4f545f464143544f5259000000000000000000000000000000000000000000600082015250565b6000610871600b8361082a565b915061087c8261083b565b602082019050919050565b600060208201905081810360008301526108a081610864565b9050919050565b7f4e4f545f4252414e440000000000000000000000000000000000000000000000600082015250565b60006108dd60098361082a565b91506108e8826108a7565b602082019050919050565b6000602082019050818103600083015261090c816108d0565b9050919050565b7f4e4f545f41444d494e0000000000000000000000000000000000000000000000600082015250565b600061094960098361082a565b915061095482610913565b602082019050919050565b600060208201905081810360008301526109788161093c565b905091905056fea2646970667358221220d2b70790d2f1071619543f4dbd81b1128dfbf793dfbf979cd06403ce591d8ddf64736f6c63430008180033",
  "linkReferences": {},
  "deployedLinkReferences": {}
}