{
  "_format": "hh-sol-artifact-1",
  "contractName": "TaaSCore",
  "sourceName": "contracts/TaaSCore.sol",
  "abi": [
    {
      "inputs": [],
      "stateMutability": "nonpayable",
      "type": "constructor"
    },
    {
      "anonymous": false,
      "inputs": [
        {
          "indexed": false,
          "internalType": "uint256",
          "name": "id",
          "type": "uint256"
        },
        {
          "indexed": false,
          "internalType": "string",
          "name": "name",
          "type": "string"
        },
        {
          "indexed": false,
          "internalType": "address",
          "name": "owner",
          "type": "address"
        }
      ],
      "name": "CompanyCreated",
      "type": "event"
    },
    {
      "anonymous": false,
      "inputs": [
        {
          "indexed": false,
          "internalType": "bool",
          "name": "status",
          "type": "bool"
        }
      ],
      "name": "Paused",
      "type": "event"
    },
    {
      "anonymous": false,
      "inputs": [
        {
          "indexed": false,
          "internalType": "string",
          "name": "id",
          "type": "string"
        },
        {
          "indexed": false,
          "internalType": "uint256",
          "name": "companyId",
          "type": "uint256"
        },
        {
          "indexed": false,
          "internalType": "address",
          "name": "owner",
          "type": "address"
        }
      ],
      "name": "ProductCreated",
      "type": "event"
    },
    {
      "anonymous": false,
      "inputs": [
        {
          "indexed": false,
          "internalType": "string",
          "name": "id",
          "type": "string"
        },
        {
          "indexed": false,
          "internalType": "address",
          "name": "from",
          "type": "address"
        },
        {
          "indexed": false,
          "internalType": "address",
          "name": "to",
          "type": "address"
        }
      ],
      "name": "ProductTransferred",
      "type": "event"
    },
    {
      "anonymous": false,
      "inputs": [
        {
          "indexed": false,
          "internalType": "uint256",
          "name": "companyId",
          "type": "uint256"
        },
        {
          "indexed": false,
          "internalType": "address",
          "name": "wallet",
          "type": "address"
        },
        {
          "indexed": false,
          "internalType": "string",
          "name": "role",
          "type": "string"
        },
        {
          "indexed": false,
          "internalType": "bool",
          "name": "status",
          "type": "bool"
        }
      ],
      "name": "RoleUpdated",
      "type": "event"
    },
    {
      "inputs": [
        {
          "internalType": "uint256",
          "name": "",
          "type": "uint256"
        }
      ],
      "name": "companies",
      "outputs": [
        {
          "internalType": "string",
          "name": "name",
          "type": "string"
        },
        {
          "internalType": "address",
          "name": "owner",
          "type": "address"
        },
        {
          "internalType": "bool",
          "name": "active",
          "type": "bool"
        }
      ],
      "stateMutability": "view",
      "type": "function"
    },
    {
      "inputs": [],
      "name": "companyCounter",
      "outputs": [
        {
          "internalType": "uint256",
          "name": "",
          "type": "uint256"
        }
      ],
      "stateMutability": "view",
      "type": "function"
    },
    {
      "inputs": [
        {
          "internalType": "string",
          "name": "name",
          "type": "string"
        },
        {
          "internalType": "address",
          "name": "owner",
          "type": "address"
        }
      ],
      "name": "createCompany",
      "outputs": [
        {
          "internalType": "uint256",
          "name": "",
          "type": "uint256"
        }
      ],
      "stateMutability": "nonpayable",
      "type": "function"
    },
    {
      "inputs": [
        {
          "internalType": "string",
          "name": "id",
          "type": "string"
        },
        {
          "internalType": "string",
          "name": "brand",
          "type": "string"
        },
        {
          "internalType": "string",
          "name": "model",
          "type": "string"
        },
        {
          "internalType": "string",
          "name": "category",
          "type": "string"
        },
        {
          "internalType": "string",
          "name": "batch",
          "type": "string"
        },
        {
          "internalType": "address",
          "name": "initialOwner",
          "type": "address"
        }
      ],
      "name": "createProduct",
      "outputs": [],
      "stateMutability": "nonpayable",
      "type": "function"
    },
    {
      "inputs": [
        {
          "internalType": "uint256",
          "name": "",
          "type": "uint256"
        },
        {
          "internalType": "address",
          "name": "",
          "type": "address"
        }
      ],
      "name": "distributors",
      "outputs": [
        {
          "internalType": "bool",
          "name": "",
          "type": "bool"
        }
      ],
      "stateMutability": "view",
      "type": "function"
    },
    {
      "inputs": [
        {
          "internalType": "uint256",
          "name": "",
          "type": "uint256"
        },
        {
          "internalType": "address",
          "name": "",
          "type": "address"
        }
      ],
      "name": "factories",
      "outputs": [
        {
          "internalType": "bool",
          "name": "",
          "type": "bool"
        }
      ],
      "stateMutability": "view",
      "type": "function"
    },
    {
      "inputs": [
        {
          "internalType": "string",
          "name": "id",
          "type": "string"
        }
      ],
      "name": "getHistory",
      "outputs": [
        {
          "internalType": "address[]",
          "name": "",
          "type": "address[]"
        }
      ],
      "stateMutability": "view",
      "type": "function"
    },
    {
      "inputs": [
        {
          "internalType": "string",
          "name": "id",
          "type": "string"
        }
      ],
      "name": "getProduct",
      "outputs": [
        {
          "components": [
            {
              "internalType": "string",
              "name": "id",
              "type": "string"
            },
            {
              "internalType": "string",
              "name": "brand",
              "type": "string"
            },
            {
              "internalType": "string",
              "name": "model",
              "type": "string"
            },
            {
              "internalType": "string",
              "name": "category",
              "type": "string"
            },
            {
              "internalType": "string",
              "name": "batch",
              "type": "string"
            },
            {
              "internalType": "uint256",
              "name": "companyId",
              "type": "uint256"
            },
            {
              "internalType": "address",
              "name": "factory",
              "type": "address"
            },
            {
              "internalType": "address",
              "name": "owner",
              "type": "address"
            },
            {
              "internalType": "uint256",
              "name": "timestamp",
              "type": "uint256"
            }
          ],
          "internalType": "struct TaaSCore.Product",
          "name": "",
          "type": "tuple"
        }
      ],
      "stateMutability": "view",
      "type": "function"
    },
    {
      "inputs": [
        {
          "internalType": "string",
          "name": "",
          "type": "string"
        },
        {
          "internalType": "uint256",
          "name": "",
          "type": "uint256"
        }
      ],
      "name": "ownershipHistory",
      "outputs": [
        {
          "internalType": "address",
          "name": "",
          "type": "address"
        }
      ],
      "stateMutability": "view",
      "type": "function"
    },
    {
      "inputs": [],
      "name": "paused",
      "outputs": [
        {
          "internalType": "bool",
          "name": "",
          "type": "bool"
        }
      ],
      "stateMutability": "view",
      "type": "function"
    },
    {
      "inputs": [
        {
          "internalType": "uint256",
          "name": "",
          "type": "uint256"
        },
        {
          "internalType": "address",
          "name": "",
          "type": "address"
        }
      ],
      "name": "retailers",
      "outputs": [
        {
          "internalType": "bool",
          "name": "",
          "type": "bool"
        }
      ],
      "stateMutability": "view",
      "type": "function"
    },
    {
      "inputs": [
        {
          "internalType": "uint256",
          "name": "cid",
          "type": "uint256"
        },
        {
          "internalType": "bool",
          "name": "status",
          "type": "bool"
        }
      ],
      "name": "setCompanyStatus",
      "outputs": [],
      "stateMutability": "nonpayable",
      "type": "function"
    },
    {
      "inputs": [
        {
          "internalType": "uint256",
          "name": "cid",
          "type": "uint256"
        },
        {
          "internalType": "address",
          "name": "wallet",
          "type": "address"
        },
        {
          "internalType": "bool",
          "name": "status",
          "type": "bool"
        }
      ],
      "name": "setDistributor",
      "outputs": [],
      "stateMutability": "nonpayable",
      "type": "function"
    },
    {
      "inputs": [
        {
          "internalType": "uint256",
          "name": "cid",
          "type": "uint256"
        },
        {
          "internalType": "address",
          "name": "wallet",
          "type": "address"
        },
        {
          "internalType": "bool",
          "name": "status",
          "type": "bool"
        }
      ],
      "name": "setFactory",
      "outputs": [],
      "stateMutability": "nonpayable",
      "type": "function"
    },
    {
      "inputs": [
        {
          "internalType": "bool",
          "name": "state",
          "type": "bool"
        }
      ],
      "name": "setPause",
      "outputs": [],
      "stateMutability": "nonpayable",
      "type": "function"
    },
    {
      "inputs": [
        {
          "internalType": "uint256",
          "name": "cid",
          "type": "uint256"
        },
        {
          "internalType": "address",
          "name": "wallet",
          "type": "address"
        },
        {
          "internalType": "bool",
          "name": "status",
          "type": "bool"
        }
      ],
      "name": "setRetailer",
      "outputs": [],
      "stateMutability": "nonpayable",
      "type": "function"
    },
    {
      "inputs": [],
      "name": "superAdmin",
      "outputs": [
        {
          "internalType": "address",
          "name": "",
          "type": "address"
        }
      ],
      "stateMutability": "view",
      "type": "function"
    },
    {
      "inputs": [
        {
          "internalType": "string",
          "name": "id",
          "type": "string"
        },
        {
          "internalType": "address",
          "name": "to",
          "type": "address"
        }
      ],
      "name": "transferProduct",
      "outputs": [],
      "stateMutability": "nonpayable",
      "type": "function"
    },
    {
      "inputs": [
        {
          "internalType": "address",
          "name": "newAdmin",
          "type": "address"
        }
      ],
      "name": "transferSuper",
      "outputs": [],
      "stateMutability": "nonpayable",
      "type": "function"
    },
    {
      "inputs": [
        {
          "internalType": "string",
          "name": "",
          "type": "string"
        }
      ],
      "name": "usedIDs",
      "outputs": [
        {
          "internalType": "bool",
          "name": "",
          "type": "bool"
        }
      ],
      "stateMutability": "view",
      "type": "function"
    },
    {
      "inputs": [
        {
          "internalType": "address",
          "name": "",
          "type": "address"
        }
      ],
      "name": "walletCompany",
      "outputs": [
        {
          "internalType": "uint256",
          "name": "",
          "type": "uint256"
        }
      ],
      "stateMutability": "view",
      "type": "function"
    }
  ],
  "bytecode": "0x608060405234801561001057600080fd5b50600080546001600160a01b03191633179055611c78806100326000396000f3fe608060405234801561001057600080fd5b50600436106101375760003560e01c806376d24fea116100b8578063bedb86fb1161007c578063bedb86fb146102fe578063c15cc1be14610311578063e360736e1461033f578063f22f2a1a1461035f578063fd6285ff14610372578063ff79abc31461038557600080fd5b806376d24fea1461024e578063789c608a1461026157806390afcb9d1461028f578063a240fd44146102a2578063ae657c70146102d057600080fd5b806342bbd6e7116100ff57806342bbd6e7146101cd5780634ededc64146101e05780635c975abb146101f75780635d7b92fb1461021b57806368111cce1461022e57600080fd5b806312fe40ec1461013c57806314fbef5a146101515780632813d19d1461016457806328c94ee71461018f57806329575f6a146101a2575b600080fd5b61014f61014a36600461141f565b6103a5565b005b61014f61015f36600461145b565b610483565b61017761017236600461147d565b6104cf565b604051610186939291906114dc565b60405180910390f35b61014f61019d36600461150f565b610589565b6000546101b5906001600160a01b031681565b6040516001600160a01b039091168152602001610186565b61014f6101db36600461141f565b6105e1565b6101e960015481565b604051908152602001610186565b60005461020b90600160a01b900460ff1681565b6040519015158152602001610186565b61014f610229366004611584565b6106b0565b61024161023c366004611685565b610b49565b60405161018691906116c7565b6101b561025c366004611854565b610f49565b61020b61026f366004611899565b805160208183018101805160088252928201919093012091525460ff1681565b61014f61029d3660046118d6565b610f90565b61020b6102b0366004611921565b600560209081526000928352604080842090915290825290205460ff1681565b61020b6102de366004611921565b600660209081526000928352604080842090915290825290205460ff1681565b61014f61030c366004611944565b6110e0565b61020b61031f366004611921565b600460209081526000928352604080842090915290825290205460ff1681565b61035261034d366004611685565b611162565b604051610186919061195f565b6101e961036d3660046118d6565b6111df565b61014f61038036600461141f565b611327565b6101e961039336600461145b565b60036020526000908152604090205481565b60008381526002602052604090206001015483906001600160a01b031633146103e95760405162461bcd60e51b81526004016103e0906119ac565b60405180910390fd5b60008481526004602090815260408083206001600160a01b03871680855290835292819020805460ff1916861515908117909155815188815292830193909352608090820181905260079082015266464143544f525960c81b60a082015260608101919091527f693b9bb67787659906ef8977595bbcb606b8f1dc7bf5894bdadd9edc59da06eb9060c0015b60405180910390a150505050565b6000546001600160a01b031633146104ad5760405162461bcd60e51b81526004016103e0906119d7565b600080546001600160a01b0319166001600160a01b0392909216919091179055565b6002602052600090815260409020805481906104ea906119fa565b80601f0160208091040260200160405190810160405280929190818152602001828054610516906119fa565b80156105635780601f1061053857610100808354040283529160200191610563565b820191906000526020600020905b81548152906001019060200180831161054657829003601f168201915b505050600190930154919250506001600160a01b0381169060ff600160a01b9091041683565b6000546001600160a01b031633146105b35760405162461bcd60e51b81526004016103e0906119d7565b6000918252600260205260409091206001018054911515600160a01b0260ff60a01b19909216919091179055565b60008381526002602052604090206001015483906001600160a01b0316331461061c5760405162461bcd60e51b81526004016103e0906119ac565b60008481526005602090815260408083206001600160a01b03871680855290835292819020805460ff19168615159081179091558151888152928301939093526080908201819052600b908201526a2224a9aa2924a12aaa27a960a91b60a082015260608101919091527f693b9bb67787659906ef8977595bbcb606b8f1dc7bf5894bdadd9edc59da06eb9060c001610475565b600054600160a01b900460ff16156106f35760405162461bcd60e51b815260206004820152600660248201526514105554d15160d21b60448201526064016103e0565b33600090815260036020526040812054908190036107405760405162461bcd60e51b815260206004820152600a6024820152694e4f5f434f4d50414e5960b01b60448201526064016103e0565b600081815260026020526040902060010154600160a01b900460ff1661079b5760405162461bcd60e51b815260206004820152601060248201526f10d3d35410539657d11254d05093115160821b60448201526064016103e0565b600081815260046020908152604080832033845290915290205460ff166107f25760405162461bcd60e51b815260206004820152600b60248201526a4e4f545f464143544f525960a81b60448201526064016103e0565b60088c8c604051610804929190611a34565b9081526040519081900360200190205460ff16156108505760405162461bcd60e51b815260206004820152600960248201526849445f45584953545360b81b60448201526064016103e0565b6040518061012001604052808d8d8080601f016020809104026020016040519081016040528093929190818152602001838380828437600092019190915250505090825250604080516020601f8e018190048102820181019092528c815291810191908d908d9081908401838280828437600092019190915250505090825250604080516020601f8c018190048102820181019092528a815291810191908b908b9081908401838280828437600092019190915250505090825250604080516020601f8a0181900481028201810190925288815291810191908990899081908401838280828437600092019190915250505090825250604080516020601f88018190048102820181019092528681529181019190879087908190840183828082843760009201919091525050509082525060208101839052336040808301919091526001600160a01b038516606083015242608090920191909152516007906109bc908f908f90611a34565b908152604051908190036020019020815181906109d99082611a95565b50602082015160018201906109ee9082611a95565b5060408201516002820190610a039082611a95565b5060608201516003820190610a189082611a95565b5060808201516004820190610a2d9082611a95565b5060a0820151600582015560c08201516006820180546001600160a01b039283166001600160a01b03199182161790915560e08401516007840180549190931691161790556101009091015160089182015560405160019190610a93908f908f90611a34565b908152604051908190036020018120805492151560ff1990931692909217909155600990610ac4908e908e90611a34565b908152604051602091819003820181208054600181018255600091825292902090910180546001600160a01b0319166001600160a01b0385161790557f065de62eb065059154a387fe10f1b9e685ab20c0552fd141e3fa6a14b8dd8fbe90610b33908e908e9085908790611b7e565b60405180910390a1505050505050505050505050565b610baa60405180610120016040528060608152602001606081526020016060815260200160608152602001606081526020016000815260200160006001600160a01b0316815260200160006001600160a01b03168152602001600081525090565b60088383604051610bbc929190611a34565b9081526040519081900360200190205460ff16610c075760405162461bcd60e51b81526020600482015260096024820152681393d517d193d5539160ba1b60448201526064016103e0565b60078383604051610c19929190611a34565b908152602001604051809103902060405180610120016040529081600082018054610c43906119fa565b80601f0160208091040260200160405190810160405280929190818152602001828054610c6f906119fa565b8015610cbc5780601f10610c9157610100808354040283529160200191610cbc565b820191906000526020600020905b815481529060010190602001808311610c9f57829003601f168201915b50505050508152602001600182018054610cd5906119fa565b80601f0160208091040260200160405190810160405280929190818152602001828054610d01906119fa565b8015610d4e5780601f10610d2357610100808354040283529160200191610d4e565b820191906000526020600020905b815481529060010190602001808311610d3157829003601f168201915b50505050508152602001600282018054610d67906119fa565b80601f0160208091040260200160405190810160405280929190818152602001828054610d93906119fa565b8015610de05780601f10610db557610100808354040283529160200191610de0565b820191906000526020600020905b815481529060010190602001808311610dc357829003601f168201915b50505050508152602001600382018054610df9906119fa565b80601f0160208091040260200160405190810160405280929190818152602001828054610e25906119fa565b8015610e725780601f10610e4757610100808354040283529160200191610e72565b820191906000526020600020905b815481529060010190602001808311610e5557829003601f168201915b50505050508152602001600482018054610e8b906119fa565b80601f0160208091040260200160405190810160405280929190818152602001828054610eb7906119fa565b8015610f045780601f10610ed957610100808354040283529160200191610f04565b820191906000526020600020905b815481529060010190602001808311610ee757829003601f168201915b50505091835250506005820154602082015260068201546001600160a01b03908116604083015260078301541660608201526008909101546080909101529392505050565b81516020818401810180516009825292820191850191909120919052805482908110610f7457600080fd5b6000918252602090912001546001600160a01b03169150829050565b600054600160a01b900460ff1615610fd35760405162461bcd60e51b815260206004820152600660248201526514105554d15160d21b60448201526064016103e0565b600060078484604051610fe7929190611a34565b90815260405190819003602001902060078101549091506001600160a01b031633146110415760405162461bcd60e51b81526020600482015260096024820152682727aa2fa7aba722a960b91b60448201526064016103e0565b6007810180546001600160a01b0319166001600160a01b0384161790556040516009906110719086908690611a34565b908152604051602091819003820181208054600181018255600091825292902090910180546001600160a01b0319166001600160a01b0385161790557f9b59ff059d6c04ad6bc0611444d658a2e1c70a894824b83b040b2aad6e14f01390610475908690869033908790611bb3565b6000546001600160a01b0316331461110a5760405162461bcd60e51b81526004016103e0906119d7565b60008054821515600160a01b0260ff60a01b199091161790556040517f0e2fb031ee032dc02d8011dc50b816eb450cf856abd8261680dac74f72165bd29061115790831515815260200190565b60405180910390a150565b606060098383604051611176929190611a34565b90815260408051918290036020908101832080548083028501830190935282845291908301828280156111d257602002820191906000526020600020905b81546001600160a01b031681526001909101906020018083116111b4575b5050505050905092915050565b600080546001600160a01b0316331461120a5760405162461bcd60e51b81526004016103e0906119d7565b6001805490600061121a83611be8565b9190505550604051806060016040528085858080601f01602080910402602001604051908101604052809392919081815260200183838082843760009201829052509385525050506001600160a01b038516602080840191909152600160409384018190525482526002905220815181906112959082611a95565b50602082810151600192830180546040958601511515600160a01b026001600160a81b03199091166001600160a01b039384161717905591549185166000908152600390915282902081905590517ff6a220697408fddd552172c86396a753921513c9ca6a4e1a7c1a7d8e61b814949161131491879087908790611c0f565b60405180910390a1506001549392505050565b60008381526002602052604090206001015483906001600160a01b031633146113625760405162461bcd60e51b81526004016103e0906119ac565b60008481526006602090815260408083206001600160a01b03871680855290835292819020805460ff19168615159081179091558151888152928301939093526080908201819052600890820152672922aa20a4a622a960c11b60a082015260608101919091527f693b9bb67787659906ef8977595bbcb606b8f1dc7bf5894bdadd9edc59da06eb9060c001610475565b80356001600160a01b038116811461140a57600080fd5b919050565b8035801515811461140a57600080fd5b60008060006060848603121561143457600080fd5b83359250611444602085016113f3565b91506114526040850161140f565b90509250925092565b60006020828403121561146d57600080fd5b611476826113f3565b9392505050565b60006020828403121561148f57600080fd5b5035919050565b6000815180845260005b818110156114bc576020818501810151868301820152016114a0565b506000602082860101526020601f19601f83011685010191505092915050565b6060815260006114ef6060830186611496565b6001600160a01b0394909416602083015250901515604090910152919050565b6000806040838503121561152257600080fd5b823591506115326020840161140f565b90509250929050565b60008083601f84011261154d57600080fd5b50813567ffffffffffffffff81111561156557600080fd5b60208301915083602082850101111561157d57600080fd5b9250929050565b600080600080600080600080600080600060c08c8e0312156115a557600080fd5b67ffffffffffffffff808d3511156115bc57600080fd5b6115c98e8e358f0161153b565b909c509a5060208d01358110156115df57600080fd5b6115ef8e60208f01358f0161153b565b909a50985060408d013581101561160557600080fd5b6116158e60408f01358f0161153b565b909850965060608d013581101561162b57600080fd5b61163b8e60608f01358f0161153b565b909650945060808d013581101561165157600080fd5b506116628d60808e01358e0161153b565b909350915061167360a08d016113f3565b90509295989b509295989b9093969950565b6000806020838503121561169857600080fd5b823567ffffffffffffffff8111156116af57600080fd5b6116bb8582860161153b565b90969095509350505050565b60208152600082516101208060208501526116e6610140850183611496565b91506020850151601f19808685030160408701526117048483611496565b935060408701519150808685030160608701526117218483611496565b9350606087015191508086850301608087015261173e8483611496565b935060808701519150808685030160a08701525061175c8382611496565b92505060a085015160c085015260c085015161178360e08601826001600160a01b03169052565b5060e08501516101006117a0818701836001600160a01b03169052565b959095015193019290925250919050565b634e487b7160e01b600052604160045260246000fd5b600082601f8301126117d857600080fd5b813567ffffffffffffffff808211156117f3576117f36117b1565b604051601f8301601f19908116603f0116810190828211818310171561181b5761181b6117b1565b8160405283815286602085880101111561183457600080fd5b836020870160208301376000602085830101528094505050505092915050565b6000806040838503121561186757600080fd5b823567ffffffffffffffff81111561187e57600080fd5b61188a858286016117c7565b95602094909401359450505050565b6000602082840312156118ab57600080fd5b813567ffffffffffffffff8111156118c257600080fd5b6118ce848285016117c7565b949350505050565b6000806000604084860312156118eb57600080fd5b833567ffffffffffffffff81111561190257600080fd5b61190e8682870161153b565b90945092506114529050602085016113f3565b6000806040838503121561193457600080fd5b82359150611532602084016113f3565b60006020828403121561195657600080fd5b6114768261140f565b6020808252825182820181905260009190848201906040850190845b818110156119a05783516001600160a01b03168352928401929184019160010161197b565b50909695505050505050565b6020808252601190820152702727aa2fa1a7a6a820a72cafa7aba722a960791b604082015260600190565b6020808252600990820152682727aa2fa9aaa822a960b91b604082015260600190565b600181811c90821680611a0e57607f821691505b602082108103611a2e57634e487b7160e01b600052602260045260246000fd5b50919050565b8183823760009101908152919050565b601f821115611a90576000816000526020600020601f850160051c81016020861015611a6d5750805b601f850160051c820191505b81811015611a8c57828155600101611a79565b5050505b505050565b815167ffffffffffffffff811115611aaf57611aaf6117b1565b611ac381611abd84546119fa565b84611a44565b602080601f831160018114611af85760008415611ae05750858301515b600019600386901b1c1916600185901b178555611a8c565b600085815260208120601f198616915b82811015611b2757888601518255948401946001909101908401611b08565b5085821015611b455787850151600019600388901b60f8161c191681555b5050505050600190811b01905550565b81835281816020850137506000828201602090810191909152601f909101601f19169091010190565b606081526000611b92606083018688611b55565b6020830194909452506001600160a01b039190911660409091015292915050565b606081526000611bc7606083018688611b55565b6001600160a01b039485166020840152929093166040909101529392505050565b600060018201611c0857634e487b7160e01b600052601160045260246000fd5b5060010190565b848152606060208201526000611c29606083018587611b55565b905060018060a01b03831660408301529594505050505056fea26469706673582212202b5e021765f5f344e7558599f53e8720da2eb626548c1b27b2af7ed6b72cdbc864736f6c63430008180033",
  "linkReferences": {},
  "deployedLinkReferences": {}
}