{
  "_format": "hh-sol-artifact-1",
  "contractName": "TaaSCore",
  "sourceName": "contracts/TaaSCore.sol",
  "abi": [
    {
      "inputs": [],
      "stateMutability": "nonpayable",
      "type": "constructor"
    },
    {
      "anonymous": false,
      "inputs": [
        {
          "indexed": false,
          "internalType": "address",
          "name": "authority",
          "type": "address"
        }
      ],
      "name": "AuthoritySet",
      "type": "event"
    },
    {
      "anonymous": false,
      "inputs": [
        {
          "indexed": false,
          "internalType": "string",
          "name": "gpid",
          "type": "string"
        },
        {
          "indexed": false,
          "internalType": "address",
          "name": "from",
          "type": "address"
        },
        {
          "indexed": false,
          "internalType": "address",
          "name": "to",
          "type": "address"
        }
      ],
      "name": "OwnershipTransferred",
      "type": "event"
    },
    {
      "anonymous": false,
      "inputs": [
        {
          "indexed": false,
          "internalType": "string",
          "name": "gpid",
          "type": "string"
        },
        {
          "indexed": false,
          "internalType": "address",
          "name": "owner",
          "type": "address"
        },
        {
          "indexed": false,
          "internalType": "bytes32",
          "name": "fingerprint",
          "type": "bytes32"
        }
      ],
      "name": "ProductCreated",
      "type": "event"
    },
    {
      "inputs": [],
      "name": "authority",
      "outputs": [
        {
          "internalType": "address",
          "name": "",
          "type": "address"
        }
      ],
      "stateMutability": "view",
      "type": "function"
    },
    {
      "inputs": [
        {
          "internalType": "string",
          "name": "gpid",
          "type": "string"
        },
        {
          "internalType": "string",
          "name": "brand",
          "type": "string"
        },
        {
          "internalType": "string",
          "name": "model",
          "type": "string"
        },
        {
          "internalType": "string",
          "name": "category",
          "type": "string"
        },
        {
          "internalType": "string",
          "name": "factory",
          "type": "string"
        },
        {
          "internalType": "string",
          "name": "batch",
          "type": "string"
        },
        {
          "internalType": "address",
          "name": "firstOwner",
          "type": "address"
        }
      ],
      "name": "createProduct",
      "outputs": [],
      "stateMutability": "nonpayable",
      "type": "function"
    },
    {
      "inputs": [
        {
          "internalType": "string",
          "name": "gpid",
          "type": "string"
        }
      ],
      "name": "getProduct",
      "outputs": [
        {
          "components": [
            {
              "internalType": "string",
              "name": "gpid",
              "type": "string"
            },
            {
              "internalType": "string",
              "name": "brand",
              "type": "string"
            },
            {
              "internalType": "string",
              "name": "model",
              "type": "string"
            },
            {
              "internalType": "string",
              "name": "category",
              "type": "string"
            },
            {
              "internalType": "string",
              "name": "factory",
              "type": "string"
            },
            {
              "internalType": "string",
              "name": "batch",
              "type": "string"
            },
            {
              "internalType": "address",
              "name": "currentOwner",
              "type": "address"
            },
            {
              "internalType": "uint256",
              "name": "createdAt",
              "type": "uint256"
            },
            {
              "internalType": "bytes32",
              "name": "fingerprint",
              "type": "bytes32"
            }
          ],
          "internalType": "struct TaaSCore.Product",
          "name": "",
          "type": "tuple"
        }
      ],
      "stateMutability": "view",
      "type": "function"
    },
    {
      "inputs": [],
      "name": "owner",
      "outputs": [
        {
          "internalType": "address",
          "name": "",
          "type": "address"
        }
      ],
      "stateMutability": "view",
      "type": "function"
    },
    {
      "inputs": [
        {
          "internalType": "address",
          "name": "_auth",
          "type": "address"
        }
      ],
      "name": "setAuthority",
      "outputs": [],
      "stateMutability": "nonpayable",
      "type": "function"
    },
    {
      "inputs": [
        {
          "internalType": "string",
          "name": "gpid",
          "type": "string"
        },
        {
          "internalType": "address",
          "name": "newOwner",
          "type": "address"
        }
      ],
      "name": "transferOwnership",
      "outputs": [],
      "stateMutability": "nonpayable",
      "type": "function"
    },
    {
      "inputs": [
        {
          "internalType": "bytes32",
          "name": "",
          "type": "bytes32"
        }
      ],
      "name": "usedFingerprints",
      "outputs": [
        {
          "internalType": "bool",
          "name": "",
          "type": "bool"
        }
      ],
      "stateMutability": "view",
      "type": "function"
    }
  ],
  "bytecode": "0x608060405234801561001057600080fd5b50336000806101000a81548173ffffffffffffffffffffffffffffffffffffffff021916908373ffffffffffffffffffffffffffffffffffffffff160217905550612258806100606000396000f3fe608060405234801561001057600080fd5b506004361061007d5760003560e01c80637a9e5e4b1161005b5780637a9e5e4b146100fe5780638da5cb5b1461011a578063bf7e214f14610138578063c0e793c2146101565761007d565b80635de58abc1461008257806368111cce1461009e57806374b49eba146100ce575b600080fd5b61009c6004803603810190610097919061131b565b610172565b005b6100b860048036038101906100b39190611465565b610728565b6040516100c59190611656565b60405180910390f35b6100e860048036038101906100e391906116a4565b610b9b565b6040516100f591906116ec565b60405180910390f35b61011860048036038101906101139190611707565b610bbb565b005b610122610d33565b60405161012f9190611743565b60405180910390f35b610140610d57565b60405161014d9190611743565b60405180910390f35b610170600480360381019061016b919061175e565b610d7d565b005b600160009054906101000a900473ffffffffffffffffffffffffffffffffffffffff1673ffffffffffffffffffffffffffffffffffffffff163373ffffffffffffffffffffffffffffffffffffffff1614610202576040517f08c379a00000000000000000000000000000000000000000000000000000000081526004016101f990611817565b60405180910390fd5b61020b87610fe5565b61024a576040517f08c379a000000000000000000000000000000000000000000000000000000000815260040161024190611883565b60405180910390fd5b610253876110f1565b610292576040517f08c379a0000000000000000000000000000000000000000000000000000000008152600401610289906118ef565b60405180910390fd5b61029b866110f1565b6102da576040517f08c379a00000000000000000000000000000000000000000000000000000000081526004016102d19061195b565b60405180910390fd5b6102e3856110f1565b610322576040517f08c379a0000000000000000000000000000000000000000000000000000000008152600401610319906119c7565b60405180910390fd5b61032b846110f1565b61036a576040517f08c379a000000000000000000000000000000000000000000000000000000000815260040161036190611a33565b60405180910390fd5b610373836110f1565b6103b2576040517f08c379a00000000000000000000000000000000000000000000000000000000081526004016103a990611a9f565b60405180910390fd5b6103bb826110f1565b6103fa576040517f08c379a00000000000000000000000000000000000000000000000000000000081526004016103f190611b0b565b60405180910390fd5b600073ffffffffffffffffffffffffffffffffffffffff168173ffffffffffffffffffffffffffffffffffffffff1603610469576040517f08c379a000000000000000000000000000000000000000000000000000000000815260040161046090611b77565b60405180910390fd5b600060028860405161047b9190611bd3565b908152602001604051809103902060070154146104cd576040517f08c379a00000000000000000000000000000000000000000000000000000000081526004016104c490611c36565b60405180910390fd5b600087878786866040516020016104e8959493929190611c56565b6040516020818303038152906040528051906020012090506003600082815260200190815260200160002060009054906101000a900460ff1615610561576040517f08c379a000000000000000000000000000000000000000000000000000000000815260040161055890611ced565b60405180910390fd5b60016003600083815260200190815260200160002060006101000a81548160ff0219169083151502179055506040518061012001604052808981526020018881526020018781526020018681526020018581526020018481526020018373ffffffffffffffffffffffffffffffffffffffff168152602001428152602001828152506002896040516105f39190611bd3565b908152602001604051809103902060008201518160000190816106169190611f19565b50602082015181600101908161062c9190611f19565b5060408201518160020190816106429190611f19565b5060608201518160030190816106589190611f19565b50608082015181600401908161066e9190611f19565b5060a08201518160050190816106849190611f19565b5060c08201518160060160006101000a81548173ffffffffffffffffffffffffffffffffffffffff021916908373ffffffffffffffffffffffffffffffffffffffff16021790555060e0820151816007015561010082015181600801559050507e039038c445c8dbf51ea6b3aa2f74b033772a87bfc16829141b405429be201e88838360405161071693929190612033565b60405180910390a15050505050505050565b6107306110fe565b60006002836040516107429190611bd3565b90815260200160405180910390206007015403610794576040517f08c379a000000000000000000000000000000000000000000000000000000000815260040161078b906120bd565b60405180910390fd5b6002826040516107a49190611bd3565b9081526020016040518091039020604051806101200160405290816000820180546107ce90611d3c565b80601f01602080910402602001604051908101604052809291908181526020018280546107fa90611d3c565b80156108475780601f1061081c57610100808354040283529160200191610847565b820191906000526020600020905b81548152906001019060200180831161082a57829003601f168201915b5050505050815260200160018201805461086090611d3c565b80601f016020809104026020016040519081016040528092919081815260200182805461088c90611d3c565b80156108d95780601f106108ae576101008083540402835291602001916108d9565b820191906000526020600020905b8154815290600101906020018083116108bc57829003601f168201915b505050505081526020016002820180546108f290611d3c565b80601f016020809104026020016040519081016040528092919081815260200182805461091e90611d3c565b801561096b5780601f106109405761010080835404028352916020019161096b565b820191906000526020600020905b81548152906001019060200180831161094e57829003601f168201915b5050505050815260200160038201805461098490611d3c565b80601f01602080910402602001604051908101604052809291908181526020018280546109b090611d3c565b80156109fd5780601f106109d2576101008083540402835291602001916109fd565b820191906000526020600020905b8154815290600101906020018083116109e057829003601f168201915b50505050508152602001600482018054610a1690611d3c565b80601f0160208091040260200160405190810160405280929190818152602001828054610a4290611d3c565b8015610a8f5780601f10610a6457610100808354040283529160200191610a8f565b820191906000526020600020905b815481529060010190602001808311610a7257829003601f168201915b50505050508152602001600582018054610aa890611d3c565b80601f0160208091040260200160405190810160405280929190818152602001828054610ad490611d3c565b8015610b215780601f10610af657610100808354040283529160200191610b21565b820191906000526020600020905b815481529060010190602001808311610b0457829003601f168201915b505050505081526020016006820160009054906101000a900473ffffffffffffffffffffffffffffffffffffffff1673ffffffffffffffffffffffffffffffffffffffff1673ffffffffffffffffffffffffffffffffffffffff168152602001600782015481526020016008820154815250509050919050565b60036020528060005260406000206000915054906101000a900460ff1681565b60008054906101000a900473ffffffffffffffffffffffffffffffffffffffff1673ffffffffffffffffffffffffffffffffffffffff163373ffffffffffffffffffffffffffffffffffffffff1614610c49576040517f08c379a0000000000000000000000000000000000000000000000000000000008152600401610c4090612129565b60405180910390fd5b600073ffffffffffffffffffffffffffffffffffffffff168173ffffffffffffffffffffffffffffffffffffffff1603610cb8576040517f08c379a0000000000000000000000000000000000000000000000000000000008152600401610caf90612195565b60405180910390fd5b80600160006101000a81548173ffffffffffffffffffffffffffffffffffffffff021916908373ffffffffffffffffffffffffffffffffffffffff1602179055507f17898fd7375ca5152626d6fdd4ceb2bce6cc033c9b61e254dd0087d5f8b4743081604051610d289190611743565b60405180910390a150565b60008054906101000a900473ffffffffffffffffffffffffffffffffffffffff1681565b600160009054906101000a900473ffffffffffffffffffffffffffffffffffffffff1681565b6000600283604051610d8f9190611bd3565b90815260200160405180910390206007015403610de1576040517f08c379a0000000000000000000000000000000000000000000000000000000008152600401610dd8906120bd565b60405180910390fd5b600282604051610df19190611bd3565b908152602001604051809103902060060160009054906101000a900473ffffffffffffffffffffffffffffffffffffffff1673ffffffffffffffffffffffffffffffffffffffff163373ffffffffffffffffffffffffffffffffffffffff1614610e90576040517f08c379a0000000000000000000000000000000000000000000000000000000008152600401610e8790612129565b60405180910390fd5b600073ffffffffffffffffffffffffffffffffffffffff168173ffffffffffffffffffffffffffffffffffffffff1603610eff576040517f08c379a0000000000000000000000000000000000000000000000000000000008152600401610ef690612195565b60405180910390fd5b6000600283604051610f119190611bd3565b908152602001604051809103902060060160009054906101000a900473ffffffffffffffffffffffffffffffffffffffff16905081600284604051610f569190611bd3565b908152602001604051809103902060060160006101000a81548173ffffffffffffffffffffffffffffffffffffffff021916908373ffffffffffffffffffffffffffffffffffffffff1602179055507f6840904f5b31827f74e1497360da245f56e530c8c3de3163a2d31f11493273c6838284604051610fd8939291906121b5565b60405180910390a1505050565b60008082905060006040518060400160405280600681526020017f41534a554a2d0000000000000000000000000000000000000000000000000000815250905080518251101561103a576000925050506110ec565b60005b81518110156110e457818181518110611059576110586121f3565b5b602001015160f81c60f81b7effffffffffffffffffffffffffffffffffffffffffffffffffffffffffffff1916838281518110611099576110986121f3565b5b602001015160f81c60f81b7effffffffffffffffffffffffffffffffffffffffffffffffffffffffffffff1916146110d757600093505050506110ec565b808060010191505061103d565b506001925050505b919050565b6000808251119050919050565b604051806101200160405280606081526020016060815260200160608152602001606081526020016060815260200160608152602001600073ffffffffffffffffffffffffffffffffffffffff16815260200160008152602001600080191681525090565b6000604051905090565b600080fd5b600080fd5b600080fd5b600080fd5b6000601f19601f8301169050919050565b7f4e487b7100000000000000000000000000000000000000000000000000000000600052604160045260246000fd5b6111ca82611181565b810181811067ffffffffffffffff821117156111e9576111e8611192565b5b80604052505050565b60006111fc611163565b905061120882826111c1565b919050565b600067ffffffffffffffff82111561122857611227611192565b5b61123182611181565b9050602081019050919050565b82818337600083830152505050565b600061126061125b8461120d565b6111f2565b90508281526020810184848401111561127c5761127b61117c565b5b61128784828561123e565b509392505050565b600082601f8301126112a4576112a3611177565b5b81356112b484826020860161124d565b91505092915050565b600073ffffffffffffffffffffffffffffffffffffffff82169050919050565b60006112e8826112bd565b9050919050565b6112f8816112dd565b811461130357600080fd5b50565b600081359050611315816112ef565b92915050565b600080600080600080600060e0888a03121561133a5761133961116d565b5b600088013567ffffffffffffffff81111561135857611357611172565b5b6113648a828b0161128f565b975050602088013567ffffffffffffffff81111561138557611384611172565b5b6113918a828b0161128f565b965050604088013567ffffffffffffffff8111156113b2576113b1611172565b5b6113be8a828b0161128f565b955050606088013567ffffffffffffffff8111156113df576113de611172565b5b6113eb8a828b0161128f565b945050608088013567ffffffffffffffff81111561140c5761140b611172565b5b6114188a828b0161128f565b93505060a088013567ffffffffffffffff81111561143957611438611172565b5b6114458a828b0161128f565b92505060c06114568a828b01611306565b91505092959891949750929550565b60006020828403121561147b5761147a61116d565b5b600082013567ffffffffffffffff81111561149957611498611172565b5b6114a58482850161128f565b91505092915050565b600081519050919050565b600082825260208201905092915050565b60005b838110156114e85780820151818401526020810190506114cd565b60008484015250505050565b60006114ff826114ae565b61150981856114b9565b93506115198185602086016114ca565b61152281611181565b840191505092915050565b611536816112dd565b82525050565b6000819050919050565b61154f8161153c565b82525050565b6000819050919050565b61156881611555565b82525050565b600061012083016000830151848203600086015261158c82826114f4565b915050602083015184820360208601526115a682826114f4565b915050604083015184820360408601526115c082826114f4565b915050606083015184820360608601526115da82826114f4565b915050608083015184820360808601526115f482826114f4565b91505060a083015184820360a086015261160e82826114f4565b91505060c083015161162360c086018261152d565b5060e083015161163660e0860182611546565b5061010083015161164b61010086018261155f565b508091505092915050565b60006020820190508181036000830152611670818461156e565b905092915050565b61168181611555565b811461168c57600080fd5b50565b60008135905061169e81611678565b92915050565b6000602082840312156116ba576116b961116d565b5b60006116c88482850161168f565b91505092915050565b60008115159050919050565b6116e6816116d1565b82525050565b600060208201905061170160008301846116dd565b92915050565b60006020828403121561171d5761171c61116d565b5b600061172b84828501611306565b91505092915050565b61173d816112dd565b82525050565b60006020820190506117586000830184611734565b92915050565b600080604083850312156117755761177461116d565b5b600083013567ffffffffffffffff81111561179357611792611172565b5b61179f8582860161128f565b92505060206117b085828601611306565b9150509250929050565b600082825260208201905092915050565b7f4e4f545f415554484f5249545900000000000000000000000000000000000000600082015250565b6000611801600d836117ba565b915061180c826117cb565b602082019050919050565b60006020820190508181036000830152611830816117f4565b9050919050565b7f494e56414c49445f475049445f50524546495800000000000000000000000000600082015250565b600061186d6013836117ba565b915061187882611837565b602082019050919050565b6000602082019050818103600083015261189c81611860565b9050919050565b7f454d5054595f4750494400000000000000000000000000000000000000000000600082015250565b60006118d9600a836117ba565b91506118e4826118a3565b602082019050919050565b60006020820190508181036000830152611908816118cc565b9050919050565b7f454d5054595f4252414e44000000000000000000000000000000000000000000600082015250565b6000611945600b836117ba565b91506119508261190f565b602082019050919050565b6000602082019050818103600083015261197481611938565b9050919050565b7f454d5054595f4d4f44454c000000000000000000000000000000000000000000600082015250565b60006119b1600b836117ba565b91506119bc8261197b565b602082019050919050565b600060208201905081810360008301526119e0816119a4565b9050919050565b7f454d5054595f43415445474f5259000000000000000000000000000000000000600082015250565b6000611a1d600e836117ba565b9150611a28826119e7565b602082019050919050565b60006020820190508181036000830152611a4c81611a10565b9050919050565b7f454d5054595f464143544f525900000000000000000000000000000000000000600082015250565b6000611a89600d836117ba565b9150611a9482611a53565b602082019050919050565b60006020820190508181036000830152611ab881611a7c565b9050919050565b7f454d5054595f4241544348000000000000000000000000000000000000000000600082015250565b6000611af5600b836117ba565b9150611b0082611abf565b602082019050919050565b60006020820190508181036000830152611b2481611ae8565b9050919050565b7f494e56414c49445f4f574e455200000000000000000000000000000000000000600082015250565b6000611b61600d836117ba565b9150611b6c82611b2b565b602082019050919050565b60006020820190508181036000830152611b9081611b54565b9050919050565b600081905092915050565b6000611bad826114ae565b611bb78185611b97565b9350611bc78185602086016114ca565b80840191505092915050565b6000611bdf8284611ba2565b915081905092915050565b7f414c52454144595f455849535453000000000000000000000000000000000000600082015250565b6000611c20600e836117ba565b9150611c2b82611bea565b602082019050919050565b60006020820190508181036000830152611c4f81611c13565b9050919050565b6000611c628288611ba2565b9150611c6e8287611ba2565b9150611c7a8286611ba2565b9150611c868285611ba2565b9150611c928284611ba2565b91508190509695505050505050565b7f434c4f4e455f50524f4455435400000000000000000000000000000000000000600082015250565b6000611cd7600d836117ba565b9150611ce282611ca1565b602082019050919050565b60006020820190508181036000830152611d0681611cca565b9050919050565b7f4e487b7100000000000000000000000000000000000000000000000000000000600052602260045260246000fd5b60006002820490506001821680611d5457607f821691505b602082108103611d6757611d66611d0d565b5b50919050565b60008190508160005260206000209050919050565b60006020601f8301049050919050565b600082821b905092915050565b600060088302611dcf7fffffffffffffffffffffffffffffffffffffffffffffffffffffffffffffffff82611d92565b611dd98683611d92565b95508019841693508086168417925050509392505050565b6000819050919050565b6000611e16611e11611e0c8461153c565b611df1565b61153c565b9050919050565b6000819050919050565b611e3083611dfb565b611e44611e3c82611e1d565b848454611d9f565b825550505050565b600090565b611e59611e4c565b611e64818484611e27565b505050565b5b81811015611e8857611e7d600082611e51565b600181019050611e6a565b5050565b601f821115611ecd57611e9e81611d6d565b611ea784611d82565b81016020851015611eb6578190505b611eca611ec285611d82565b830182611e69565b50505b505050565b600082821c905092915050565b6000611ef060001984600802611ed2565b1980831691505092915050565b6000611f098383611edf565b9150826002028217905092915050565b611f22826114ae565b67ffffffffffffffff811115611f3b57611f3a611192565b5b611f458254611d3c565b611f50828285611e8c565b600060209050601f831160018114611f835760008415611f71578287015190505b611f7b8582611efd565b865550611fe3565b601f198416611f9186611d6d565b60005b82811015611fb957848901518255600182019150602085019450602081019050611f94565b86831015611fd65784890151611fd2601f891682611edf565b8355505b6001600288020188555050505b505050505050565b6000611ff6826114ae565b61200081856117ba565b93506120108185602086016114ca565b61201981611181565b840191505092915050565b61202d81611555565b82525050565b6000606082019050818103600083015261204d8186611feb565b905061205c6020830185611734565b6120696040830184612024565b949350505050565b7f4e4f545f45584953540000000000000000000000000000000000000000000000600082015250565b60006120a76009836117ba565b91506120b282612071565b602082019050919050565b600060208201905081810360008301526120d68161209a565b9050919050565b7f4e4f545f4f574e45520000000000000000000000000000000000000000000000600082015250565b60006121136009836117ba565b915061211e826120dd565b602082019050919050565b6000602082019050818103600083015261214281612106565b9050919050565b7f5a45524f5f414444524553530000000000000000000000000000000000000000600082015250565b600061217f600c836117ba565b915061218a82612149565b602082019050919050565b600060208201905081810360008301526121ae81612172565b9050919050565b600060608201905081810360008301526121cf8186611feb565b90506121de6020830185611734565b6121eb6040830184611734565b949350505050565b7f4e487b7100000000000000000000000000000000000000000000000000000000600052603260045260246000fdfea2646970667358221220138485204564ab9461909239df4e07fc245f4469d41900fc5012a5160643f43d64736f6c63430008180033",
  "linkReferences": {},
  "deployedLinkReferences": {}
}