{
  "_format": "hh-sol-artifact-1",
  "contractName": "TaaSCore",
  "sourceName": "contracts/TaaSCore.sol",
  "abi": [
    {
      "inputs": [],
      "stateMutability": "nonpayable",
      "type": "constructor"
    },
    {
      "anonymous": false,
      "inputs": [
        {
          "indexed": false,
          "internalType": "string",
          "name": "gpid",
          "type": "string"
        },
        {
          "indexed": false,
          "internalType": "address",
          "name": "from",
          "type": "address"
        },
        {
          "indexed": false,
          "internalType": "address",
          "name": "to",
          "type": "address"
        }
      ],
      "name": "OwnershipTransferred",
      "type": "event"
    },
    {
      "anonymous": false,
      "inputs": [
        {
          "indexed": false,
          "internalType": "string",
          "name": "gpid",
          "type": "string"
        },
        {
          "indexed": false,
          "internalType": "address",
          "name": "owner",
          "type": "address"
        }
      ],
      "name": "ProductCreated",
      "type": "event"
    },
    {
      "inputs": [
        {
          "internalType": "string",
          "name": "gpid",
          "type": "string"
        },
        {
          "internalType": "string",
          "name": "brand",
          "type": "string"
        },
        {
          "internalType": "string",
          "name": "model",
          "type": "string"
        },
        {
          "internalType": "string",
          "name": "category",
          "type": "string"
        },
        {
          "internalType": "string",
          "name": "factory",
          "type": "string"
        },
        {
          "internalType": "string",
          "name": "batch",
          "type": "string"
        },
        {
          "internalType": "address",
          "name": "firstOwner",
          "type": "address"
        }
      ],
      "name": "createProduct",
      "outputs": [],
      "stateMutability": "nonpayable",
      "type": "function"
    },
    {
      "inputs": [
        {
          "internalType": "string",
          "name": "gpid",
          "type": "string"
        }
      ],
      "name": "getProduct",
      "outputs": [
        {
          "components": [
            {
              "internalType": "string",
              "name": "gpid",
              "type": "string"
            },
            {
              "internalType": "string",
              "name": "brand",
              "type": "string"
            },
            {
              "internalType": "string",
              "name": "model",
              "type": "string"
            },
            {
              "internalType": "string",
              "name": "category",
              "type": "string"
            },
            {
              "internalType": "string",
              "name": "factory",
              "type": "string"
            },
            {
              "internalType": "string",
              "name": "batch",
              "type": "string"
            },
            {
              "internalType": "address",
              "name": "currentOwner",
              "type": "address"
            },
            {
              "internalType": "uint256",
              "name": "createdAt",
              "type": "uint256"
            }
          ],
          "internalType": "struct TaaSCore.Product",
          "name": "",
          "type": "tuple"
        }
      ],
      "stateMutability": "view",
      "type": "function"
    },
    {
      "inputs": [],
      "name": "owner",
      "outputs": [
        {
          "internalType": "address",
          "name": "",
          "type": "address"
        }
      ],
      "stateMutability": "view",
      "type": "function"
    },
    {
      "inputs": [
        {
          "internalType": "string",
          "name": "gpid",
          "type": "string"
        },
        {
          "internalType": "address",
          "name": "newOwner",
          "type": "address"
        }
      ],
      "name": "transferOwnership",
      "outputs": [],
      "stateMutability": "nonpayable",
      "type": "function"
    }
  ],
  "bytecode": "0x608060405234801561001057600080fd5b50336000806101000a81548173ffffffffffffffffffffffffffffffffffffffff021916908373ffffffffffffffffffffffffffffffffffffffff160217905550611717806100606000396000f3fe608060405234801561001057600080fd5b506004361061004c5760003560e01c80635de58abc1461005157806368111cce1461006d5780638da5cb5b1461009d578063c0e793c2146100bb575b600080fd5b61006b60048036038101906100669190610cbb565b6100d7565b005b61008760048036038101906100829190610e05565b610404565b6040516100949190610fc8565b60405180910390f35b6100a561086d565b6040516100b29190610ff9565b60405180910390f35b6100d560048036038101906100d09190611014565b610891565b005b60008054906101000a900473ffffffffffffffffffffffffffffffffffffffff1673ffffffffffffffffffffffffffffffffffffffff163373ffffffffffffffffffffffffffffffffffffffff1614610165576040517f08c379a000000000000000000000000000000000000000000000000000000000815260040161015c906110cd565b60405180910390fd5b60008751116101a9576040517f08c379a00000000000000000000000000000000000000000000000000000000081526004016101a090611139565b60405180910390fd5b60006001886040516101bb9190611195565b9081526020016040518091039020600701541461020d576040517f08c379a0000000000000000000000000000000000000000000000000000000008152600401610204906111f8565b60405180910390fd5b600073ffffffffffffffffffffffffffffffffffffffff168173ffffffffffffffffffffffffffffffffffffffff160361027c576040517f08c379a000000000000000000000000000000000000000000000000000000000815260040161027390611264565b60405180910390fd5b6040518061010001604052808881526020018781526020018681526020018581526020018481526020018381526020018273ffffffffffffffffffffffffffffffffffffffff168152602001428152506001886040516102dc9190611195565b908152602001604051809103902060008201518160000190816102ff9190611490565b5060208201518160010190816103159190611490565b50604082015181600201908161032b9190611490565b5060608201518160030190816103419190611490565b5060808201518160040190816103579190611490565b5060a082015181600501908161036d9190611490565b5060c08201518160060160006101000a81548173ffffffffffffffffffffffffffffffffffffffff021916908373ffffffffffffffffffffffffffffffffffffffff16021790555060e082015181600701559050507f6276b46249f3ef9f8582903c6f0d43109febb82b3ec9f4dbd15662bb71ec9c7b87826040516103f392919061159b565b60405180910390a150505050505050565b61040c610aa8565b600060018360405161041e9190611195565b90815260200160405180910390206007015403610470576040517f08c379a000000000000000000000000000000000000000000000000000000000815260040161046790611617565b60405180910390fd5b6001826040516104809190611195565b9081526020016040518091039020604051806101000160405290816000820180546104aa906112b3565b80601f01602080910402602001604051908101604052809291908181526020018280546104d6906112b3565b80156105235780601f106104f857610100808354040283529160200191610523565b820191906000526020600020905b81548152906001019060200180831161050657829003601f168201915b5050505050815260200160018201805461053c906112b3565b80601f0160208091040260200160405190810160405280929190818152602001828054610568906112b3565b80156105b55780601f1061058a576101008083540402835291602001916105b5565b820191906000526020600020905b81548152906001019060200180831161059857829003601f168201915b505050505081526020016002820180546105ce906112b3565b80601f01602080910402602001604051908101604052809291908181526020018280546105fa906112b3565b80156106475780601f1061061c57610100808354040283529160200191610647565b820191906000526020600020905b81548152906001019060200180831161062a57829003601f168201915b50505050508152602001600382018054610660906112b3565b80601f016020809104026020016040519081016040528092919081815260200182805461068c906112b3565b80156106d95780601f106106ae576101008083540402835291602001916106d9565b820191906000526020600020905b8154815290600101906020018083116106bc57829003601f168201915b505050505081526020016004820180546106f2906112b3565b80601f016020809104026020016040519081016040528092919081815260200182805461071e906112b3565b801561076b5780601f106107405761010080835404028352916020019161076b565b820191906000526020600020905b81548152906001019060200180831161074e57829003601f168201915b50505050508152602001600582018054610784906112b3565b80601f01602080910402602001604051908101604052809291908181526020018280546107b0906112b3565b80156107fd5780601f106107d2576101008083540402835291602001916107fd565b820191906000526020600020905b8154815290600101906020018083116107e057829003601f168201915b505050505081526020016006820160009054906101000a900473ffffffffffffffffffffffffffffffffffffffff1673ffffffffffffffffffffffffffffffffffffffff1673ffffffffffffffffffffffffffffffffffffffff1681526020016007820154815250509050919050565b60008054906101000a900473ffffffffffffffffffffffffffffffffffffffff1681565b60006001836040516108a39190611195565b9081526020016040518091039020905060008160070154036108fa576040517f08c379a00000000000000000000000000000000000000000000000000000000081526004016108f190611617565b60405180910390fd5b8060060160009054906101000a900473ffffffffffffffffffffffffffffffffffffffff1673ffffffffffffffffffffffffffffffffffffffff163373ffffffffffffffffffffffffffffffffffffffff161461098c576040517f08c379a0000000000000000000000000000000000000000000000000000000008152600401610983906110cd565b60405180910390fd5b600073ffffffffffffffffffffffffffffffffffffffff168273ffffffffffffffffffffffffffffffffffffffff16036109fb576040517f08c379a00000000000000000000000000000000000000000000000000000000081526004016109f290611683565b60405180910390fd5b60008160060160009054906101000a900473ffffffffffffffffffffffffffffffffffffffff169050828260060160006101000a81548173ffffffffffffffffffffffffffffffffffffffff021916908373ffffffffffffffffffffffffffffffffffffffff1602179055507f6840904f5b31827f74e1497360da245f56e530c8c3de3163a2d31f11493273c6848285604051610a9a939291906116a3565b60405180910390a150505050565b604051806101000160405280606081526020016060815260200160608152602001606081526020016060815260200160608152602001600073ffffffffffffffffffffffffffffffffffffffff168152602001600081525090565b6000604051905090565b600080fd5b600080fd5b600080fd5b600080fd5b6000601f19601f8301169050919050565b7f4e487b7100000000000000000000000000000000000000000000000000000000600052604160045260246000fd5b610b6a82610b21565b810181811067ffffffffffffffff82111715610b8957610b88610b32565b5b80604052505050565b6000610b9c610b03565b9050610ba88282610b61565b919050565b600067ffffffffffffffff821115610bc857610bc7610b32565b5b610bd182610b21565b9050602081019050919050565b82818337600083830152505050565b6000610c00610bfb84610bad565b610b92565b905082815260208101848484011115610c1c57610c1b610b1c565b5b610c27848285610bde565b509392505050565b600082601f830112610c4457610c43610b17565b5b8135610c54848260208601610bed565b91505092915050565b600073ffffffffffffffffffffffffffffffffffffffff82169050919050565b6000610c8882610c5d565b9050919050565b610c9881610c7d565b8114610ca357600080fd5b50565b600081359050610cb581610c8f565b92915050565b600080600080600080600060e0888a031215610cda57610cd9610b0d565b5b600088013567ffffffffffffffff811115610cf857610cf7610b12565b5b610d048a828b01610c2f565b975050602088013567ffffffffffffffff811115610d2557610d24610b12565b5b610d318a828b01610c2f565b965050604088013567ffffffffffffffff811115610d5257610d51610b12565b5b610d5e8a828b01610c2f565b955050606088013567ffffffffffffffff811115610d7f57610d7e610b12565b5b610d8b8a828b01610c2f565b945050608088013567ffffffffffffffff811115610dac57610dab610b12565b5b610db88a828b01610c2f565b93505060a088013567ffffffffffffffff811115610dd957610dd8610b12565b5b610de58a828b01610c2f565b92505060c0610df68a828b01610ca6565b91505092959891949750929550565b600060208284031215610e1b57610e1a610b0d565b5b600082013567ffffffffffffffff811115610e3957610e38610b12565b5b610e4584828501610c2f565b91505092915050565b600081519050919050565b600082825260208201905092915050565b60005b83811015610e88578082015181840152602081019050610e6d565b60008484015250505050565b6000610e9f82610e4e565b610ea98185610e59565b9350610eb9818560208601610e6a565b610ec281610b21565b840191505092915050565b610ed681610c7d565b82525050565b6000819050919050565b610eef81610edc565b82525050565b6000610100830160008301518482036000860152610f138282610e94565b91505060208301518482036020860152610f2d8282610e94565b91505060408301518482036040860152610f478282610e94565b91505060608301518482036060860152610f618282610e94565b91505060808301518482036080860152610f7b8282610e94565b91505060a083015184820360a0860152610f958282610e94565b91505060c0830151610faa60c0860182610ecd565b5060e0830151610fbd60e0860182610ee6565b508091505092915050565b60006020820190508181036000830152610fe28184610ef5565b905092915050565b610ff381610c7d565b82525050565b600060208201905061100e6000830184610fea565b92915050565b6000806040838503121561102b5761102a610b0d565b5b600083013567ffffffffffffffff81111561104957611048610b12565b5b61105585828601610c2f565b925050602061106685828601610ca6565b9150509250929050565b600082825260208201905092915050565b7f4e4f545f4f574e45520000000000000000000000000000000000000000000000600082015250565b60006110b7600983611070565b91506110c282611081565b602082019050919050565b600060208201905081810360008301526110e6816110aa565b9050919050565b7f454d5054595f4944000000000000000000000000000000000000000000000000600082015250565b6000611123600883611070565b915061112e826110ed565b602082019050919050565b6000602082019050818103600083015261115281611116565b9050919050565b600081905092915050565b600061116f82610e4e565b6111798185611159565b9350611189818560208601610e6a565b80840191505092915050565b60006111a18284611164565b915081905092915050565b7f414c52454144595f455849535453000000000000000000000000000000000000600082015250565b60006111e2600e83611070565b91506111ed826111ac565b602082019050919050565b60006020820190508181036000830152611211816111d5565b9050919050565b7f5a45524f5f4f574e455200000000000000000000000000000000000000000000600082015250565b600061124e600a83611070565b915061125982611218565b602082019050919050565b6000602082019050818103600083015261127d81611241565b9050919050565b7f4e487b7100000000000000000000000000000000000000000000000000000000600052602260045260246000fd5b600060028204905060018216806112cb57607f821691505b6020821081036112de576112dd611284565b5b50919050565b60008190508160005260206000209050919050565b60006020601f8301049050919050565b600082821b905092915050565b6000600883026113467fffffffffffffffffffffffffffffffffffffffffffffffffffffffffffffffff82611309565b6113508683611309565b95508019841693508086168417925050509392505050565b6000819050919050565b600061138d61138861138384610edc565b611368565b610edc565b9050919050565b6000819050919050565b6113a783611372565b6113bb6113b382611394565b848454611316565b825550505050565b600090565b6113d06113c3565b6113db81848461139e565b505050565b5b818110156113ff576113f46000826113c8565b6001810190506113e1565b5050565b601f82111561144457611415816112e4565b61141e846112f9565b8101602085101561142d578190505b611441611439856112f9565b8301826113e0565b50505b505050565b600082821c905092915050565b600061146760001984600802611449565b1980831691505092915050565b60006114808383611456565b9150826002028217905092915050565b61149982610e4e565b67ffffffffffffffff8111156114b2576114b1610b32565b5b6114bc82546112b3565b6114c7828285611403565b600060209050601f8311600181146114fa57600084156114e8578287015190505b6114f28582611474565b86555061155a565b601f198416611508866112e4565b60005b828110156115305784890151825560018201915060208501945060208101905061150b565b8683101561154d5784890151611549601f891682611456565b8355505b6001600288020188555050505b505050505050565b600061156d82610e4e565b6115778185611070565b9350611587818560208601610e6a565b61159081610b21565b840191505092915050565b600060408201905081810360008301526115b58185611562565b90506115c46020830184610fea565b9392505050565b7f4e4f545f45584953540000000000000000000000000000000000000000000000600082015250565b6000611601600983611070565b915061160c826115cb565b602082019050919050565b60006020820190508181036000830152611630816115f4565b9050919050565b7f5a45524f5f414444524553530000000000000000000000000000000000000000600082015250565b600061166d600c83611070565b915061167882611637565b602082019050919050565b6000602082019050818103600083015261169c81611660565b9050919050565b600060608201905081810360008301526116bd8186611562565b90506116cc6020830185610fea565b6116d96040830184610fea565b94935050505056fea26469706673582212201b3dfcea9d2854d8ad85203837d2485e4cdc699818646d22b1d837f21edac87764736f6c63430008140033",
  "linkReferences": {},
  "deployedLinkReferences": {}
}