{
  "_format": "hh-sol-artifact-1",
  "contractName": "TaaSProductCoreV2",
  "sourceName": "contracts/old/TaaSProductCoreV2.sol",
  "abi": [
    {
      "inputs": [],
      "stateMutability": "nonpayable",
      "type": "constructor"
    },
    {
      "inputs": [],
      "name": "authorityContract",
      "outputs": [
        {
          "internalType": "address",
          "name": "",
          "type": "address"
        }
      ],
      "stateMutability": "view",
      "type": "function"
    },
    {
      "inputs": [
        {
          "internalType": "string",
          "name": "gpid",
          "type": "string"
        },
        {
          "internalType": "string",
          "name": "brand",
          "type": "string"
        },
        {
          "internalType": "string",
          "name": "model",
          "type": "string"
        },
        {
          "internalType": "string",
          "name": "category",
          "type": "string"
        },
        {
          "internalType": "string",
          "name": "factory",
          "type": "string"
        },
        {
          "internalType": "string",
          "name": "batch",
          "type": "string"
        }
      ],
      "name": "createProduct",
      "outputs": [],
      "stateMutability": "nonpayable",
      "type": "function"
    },
    {
      "inputs": [
        {
          "internalType": "string",
          "name": "gpid",
          "type": "string"
        }
      ],
      "name": "getProduct",
      "outputs": [
        {
          "components": [
            {
              "internalType": "string",
              "name": "gpid",
              "type": "string"
            },
            {
              "internalType": "string",
              "name": "brand",
              "type": "string"
            },
            {
              "internalType": "string",
              "name": "model",
              "type": "string"
            },
            {
              "internalType": "string",
              "name": "category",
              "type": "string"
            },
            {
              "internalType": "string",
              "name": "factory",
              "type": "string"
            },
            {
              "internalType": "string",
              "name": "batch",
              "type": "string"
            },
            {
              "internalType": "uint256",
              "name": "createdAt",
              "type": "uint256"
            },
            {
              "internalType": "address",
              "name": "issuer",
              "type": "address"
            },
            {
              "internalType": "address",
              "name": "owner",
              "type": "address"
            }
          ],
          "internalType": "struct TaaSProductCoreV2.Product",
          "name": "",
          "type": "tuple"
        }
      ],
      "stateMutability": "view",
      "type": "function"
    },
    {
      "inputs": [],
      "name": "owner",
      "outputs": [
        {
          "internalType": "address",
          "name": "",
          "type": "address"
        }
      ],
      "stateMutability": "view",
      "type": "function"
    },
    {
      "inputs": [
        {
          "internalType": "string",
          "name": "",
          "type": "string"
        }
      ],
      "name": "products",
      "outputs": [
        {
          "internalType": "string",
          "name": "gpid",
          "type": "string"
        },
        {
          "internalType": "string",
          "name": "brand",
          "type": "string"
        },
        {
          "internalType": "string",
          "name": "model",
          "type": "string"
        },
        {
          "internalType": "string",
          "name": "category",
          "type": "string"
        },
        {
          "internalType": "string",
          "name": "factory",
          "type": "string"
        },
        {
          "internalType": "string",
          "name": "batch",
          "type": "string"
        },
        {
          "internalType": "uint256",
          "name": "createdAt",
          "type": "uint256"
        },
        {
          "internalType": "address",
          "name": "issuer",
          "type": "address"
        },
        {
          "internalType": "address",
          "name": "owner",
          "type": "address"
        }
      ],
      "stateMutability": "view",
      "type": "function"
    },
    {
      "inputs": [
        {
          "internalType": "address",
          "name": "_auth",
          "type": "address"
        }
      ],
      "name": "setAuthorityContract",
      "outputs": [],
      "stateMutability": "nonpayable",
      "type": "function"
    },
    {
      "inputs": [
        {
          "internalType": "string",
          "name": "gpid",
          "type": "string"
        },
        {
          "internalType": "address",
          "name": "newOwner",
          "type": "address"
        }
      ],
      "name": "transferOwnership",
      "outputs": [],
      "stateMutability": "nonpayable",
      "type": "function"
    }
  ],
  "bytecode": "0x608060405234801561001057600080fd5b50336000806101000a81548173ffffffffffffffffffffffffffffffffffffffff021916908373ffffffffffffffffffffffffffffffffffffffff160217905550611b56806100606000396000f3fe608060405234801561001057600080fd5b506004361061007d5760003560e01c80638da5cb5b1161005b5780638da5cb5b14610106578063c0e793c214610124578063c55642be14610140578063e2de215e1461015c5761007d565b80630186a4231461008257806355a53f06146100ba57806368111cce146100d6575b600080fd5b61009c600480360381019061009791906110f6565b61017a565b6040516100b199989796959493929190611218565b60405180910390f35b6100d460048036038101906100cf91906112cf565b61054e565b005b6100f060048036038101906100eb91906110f6565b61089a565b6040516100fd9190611554565b60405180910390f35b61010e610cf5565b60405161011b9190611576565b60405180910390f35b61013e600480360381019061013991906115bd565b610d19565b005b61015a60048036038101906101559190611619565b610e2c565b005b610164610efe565b6040516101719190611576565b60405180910390f35b6002818051602081018201805184825260208301602085012081835280955050505050506000915090508060000180546101b390611675565b80601f01602080910402602001604051908101604052809291908181526020018280546101df90611675565b801561022c5780601f106102015761010080835404028352916020019161022c565b820191906000526020600020905b81548152906001019060200180831161020f57829003601f168201915b50505050509080600101805461024190611675565b80601f016020809104026020016040519081016040528092919081815260200182805461026d90611675565b80156102ba5780601f1061028f576101008083540402835291602001916102ba565b820191906000526020600020905b81548152906001019060200180831161029d57829003601f168201915b5050505050908060020180546102cf90611675565b80601f01602080910402602001604051908101604052809291908181526020018280546102fb90611675565b80156103485780601f1061031d57610100808354040283529160200191610348565b820191906000526020600020905b81548152906001019060200180831161032b57829003601f168201915b50505050509080600301805461035d90611675565b80601f016020809104026020016040519081016040528092919081815260200182805461038990611675565b80156103d65780601f106103ab576101008083540402835291602001916103d6565b820191906000526020600020905b8154815290600101906020018083116103b957829003601f168201915b5050505050908060040180546103eb90611675565b80601f016020809104026020016040519081016040528092919081815260200182805461041790611675565b80156104645780601f1061043957610100808354040283529160200191610464565b820191906000526020600020905b81548152906001019060200180831161044757829003601f168201915b50505050509080600501805461047990611675565b80601f01602080910402602001604051908101604052809291908181526020018280546104a590611675565b80156104f25780601f106104c7576101008083540402835291602001916104f2565b820191906000526020600020905b8154815290600101906020018083116104d557829003601f168201915b5050505050908060060154908060070160009054906101000a900473ffffffffffffffffffffffffffffffffffffffff16908060080160009054906101000a900473ffffffffffffffffffffffffffffffffffffffff16905089565b600073ffffffffffffffffffffffffffffffffffffffff16600160009054906101000a900473ffffffffffffffffffffffffffffffffffffffff1673ffffffffffffffffffffffffffffffffffffffff16141580156106455750600160009054906101000a900473ffffffffffffffffffffffffffffffffffffffff1673ffffffffffffffffffffffffffffffffffffffff166391223d69336040518263ffffffff1660e01b81526004016106039190611576565b602060405180830381865afa158015610620573d6000803e3d6000fd5b505050506040513d601f19601f8201168201806040525081019061064491906116de565b5b610684576040517f08c379a000000000000000000000000000000000000000000000000000000000815260040161067b90611757565b60405180910390fd5b600060028760405161069691906117b3565b908152602001604051809103902060060154146106e8576040517f08c379a00000000000000000000000000000000000000000000000000000000081526004016106df90611816565b60405180910390fd5b6040518061012001604052808781526020018681526020018581526020018481526020018381526020018281526020014281526020013373ffffffffffffffffffffffffffffffffffffffff1681526020013373ffffffffffffffffffffffffffffffffffffffff1681525060028760405161076491906117b3565b9081526020016040518091039020600082015181600001908161078791906119e2565b50602082015181600101908161079d91906119e2565b5060408201518160020190816107b391906119e2565b5060608201518160030190816107c991906119e2565b5060808201518160040190816107df91906119e2565b5060a08201518160050190816107f591906119e2565b5060c0820151816006015560e08201518160070160006101000a81548173ffffffffffffffffffffffffffffffffffffffff021916908373ffffffffffffffffffffffffffffffffffffffff1602179055506101008201518160080160006101000a81548173ffffffffffffffffffffffffffffffffffffffff021916908373ffffffffffffffffffffffffffffffffffffffff160217905550905050505050505050565b6108a2610f24565b6002826040516108b291906117b3565b9081526020016040518091039020604051806101200160405290816000820180546108dc90611675565b80601f016020809104026020016040519081016040528092919081815260200182805461090890611675565b80156109555780601f1061092a57610100808354040283529160200191610955565b820191906000526020600020905b81548152906001019060200180831161093857829003601f168201915b5050505050815260200160018201805461096e90611675565b80601f016020809104026020016040519081016040528092919081815260200182805461099a90611675565b80156109e75780601f106109bc576101008083540402835291602001916109e7565b820191906000526020600020905b8154815290600101906020018083116109ca57829003601f168201915b50505050508152602001600282018054610a0090611675565b80601f0160208091040260200160405190810160405280929190818152602001828054610a2c90611675565b8015610a795780601f10610a4e57610100808354040283529160200191610a79565b820191906000526020600020905b815481529060010190602001808311610a5c57829003601f168201915b50505050508152602001600382018054610a9290611675565b80601f0160208091040260200160405190810160405280929190818152602001828054610abe90611675565b8015610b0b5780601f10610ae057610100808354040283529160200191610b0b565b820191906000526020600020905b815481529060010190602001808311610aee57829003601f168201915b50505050508152602001600482018054610b2490611675565b80601f0160208091040260200160405190810160405280929190818152602001828054610b5090611675565b8015610b9d5780601f10610b7257610100808354040283529160200191610b9d565b820191906000526020600020905b815481529060010190602001808311610b8057829003601f168201915b50505050508152602001600582018054610bb690611675565b80601f0160208091040260200160405190810160405280929190818152602001828054610be290611675565b8015610c2f5780601f10610c0457610100808354040283529160200191610c2f565b820191906000526020600020905b815481529060010190602001808311610c1257829003601f168201915b50505050508152602001600682015481526020016007820160009054906101000a900473ffffffffffffffffffffffffffffffffffffffff1673ffffffffffffffffffffffffffffffffffffffff1673ffffffffffffffffffffffffffffffffffffffff1681526020016008820160009054906101000a900473ffffffffffffffffffffffffffffffffffffffff1673ffffffffffffffffffffffffffffffffffffffff1673ffffffffffffffffffffffffffffffffffffffff16815250509050919050565b60008054906101000a900473ffffffffffffffffffffffffffffffffffffffff1681565b3373ffffffffffffffffffffffffffffffffffffffff16600283604051610d4091906117b3565b908152602001604051809103902060080160009054906101000a900473ffffffffffffffffffffffffffffffffffffffff1673ffffffffffffffffffffffffffffffffffffffff1614610dc8576040517f08c379a0000000000000000000000000000000000000000000000000000000008152600401610dbf90611b00565b60405180910390fd5b80600283604051610dd991906117b3565b908152602001604051809103902060080160006101000a81548173ffffffffffffffffffffffffffffffffffffffff021916908373ffffffffffffffffffffffffffffffffffffffff1602179055505050565b60008054906101000a900473ffffffffffffffffffffffffffffffffffffffff1673ffffffffffffffffffffffffffffffffffffffff163373ffffffffffffffffffffffffffffffffffffffff1614610eba576040517f08c379a0000000000000000000000000000000000000000000000000000000008152600401610eb190611b00565b60405180910390fd5b80600160006101000a81548173ffffffffffffffffffffffffffffffffffffffff021916908373ffffffffffffffffffffffffffffffffffffffff16021790555050565b600160009054906101000a900473ffffffffffffffffffffffffffffffffffffffff1681565b60405180610120016040528060608152602001606081526020016060815260200160608152602001606081526020016060815260200160008152602001600073ffffffffffffffffffffffffffffffffffffffff168152602001600073ffffffffffffffffffffffffffffffffffffffff1681525090565b6000604051905090565b600080fd5b600080fd5b600080fd5b600080fd5b6000601f19601f8301169050919050565b7f4e487b7100000000000000000000000000000000000000000000000000000000600052604160045260246000fd5b61100382610fba565b810181811067ffffffffffffffff8211171561102257611021610fcb565b5b80604052505050565b6000611035610f9c565b90506110418282610ffa565b919050565b600067ffffffffffffffff82111561106157611060610fcb565b5b61106a82610fba565b9050602081019050919050565b82818337600083830152505050565b600061109961109484611046565b61102b565b9050828152602081018484840111156110b5576110b4610fb5565b5b6110c0848285611077565b509392505050565b600082601f8301126110dd576110dc610fb0565b5b81356110ed848260208601611086565b91505092915050565b60006020828403121561110c5761110b610fa6565b5b600082013567ffffffffffffffff81111561112a57611129610fab565b5b611136848285016110c8565b91505092915050565b600081519050919050565b600082825260208201905092915050565b60005b8381101561117957808201518184015260208101905061115e565b60008484015250505050565b60006111908261113f565b61119a818561114a565b93506111aa81856020860161115b565b6111b381610fba565b840191505092915050565b6000819050919050565b6111d1816111be565b82525050565b600073ffffffffffffffffffffffffffffffffffffffff82169050919050565b6000611202826111d7565b9050919050565b611212816111f7565b82525050565b6000610120820190508181036000830152611233818c611185565b90508181036020830152611247818b611185565b9050818103604083015261125b818a611185565b9050818103606083015261126f8189611185565b905081810360808301526112838188611185565b905081810360a08301526112978187611185565b90506112a660c08301866111c8565b6112b360e0830185611209565b6112c1610100830184611209565b9a9950505050505050505050565b60008060008060008060c087890312156112ec576112eb610fa6565b5b600087013567ffffffffffffffff81111561130a57611309610fab565b5b61131689828a016110c8565b965050602087013567ffffffffffffffff81111561133757611336610fab565b5b61134389828a016110c8565b955050604087013567ffffffffffffffff81111561136457611363610fab565b5b61137089828a016110c8565b945050606087013567ffffffffffffffff81111561139157611390610fab565b5b61139d89828a016110c8565b935050608087013567ffffffffffffffff8111156113be576113bd610fab565b5b6113ca89828a016110c8565b92505060a087013567ffffffffffffffff8111156113eb576113ea610fab565b5b6113f789828a016110c8565b9150509295509295509295565b600082825260208201905092915050565b60006114208261113f565b61142a8185611404565b935061143a81856020860161115b565b61144381610fba565b840191505092915050565b611457816111be565b82525050565b611466816111f7565b82525050565b600061012083016000830151848203600086015261148a8282611415565b915050602083015184820360208601526114a48282611415565b915050604083015184820360408601526114be8282611415565b915050606083015184820360608601526114d88282611415565b915050608083015184820360808601526114f28282611415565b91505060a083015184820360a086015261150c8282611415565b91505060c083015161152160c086018261144e565b5060e083015161153460e086018261145d565b5061010083015161154961010086018261145d565b508091505092915050565b6000602082019050818103600083015261156e818461146c565b905092915050565b600060208201905061158b6000830184611209565b92915050565b61159a816111f7565b81146115a557600080fd5b50565b6000813590506115b781611591565b92915050565b600080604083850312156115d4576115d3610fa6565b5b600083013567ffffffffffffffff8111156115f2576115f1610fab565b5b6115fe858286016110c8565b925050602061160f858286016115a8565b9150509250929050565b60006020828403121561162f5761162e610fa6565b5b600061163d848285016115a8565b91505092915050565b7f4e487b7100000000000000000000000000000000000000000000000000000000600052602260045260246000fd5b6000600282049050600182168061168d57607f821691505b6020821081036116a05761169f611646565b5b50919050565b60008115159050919050565b6116bb816116a6565b81146116c657600080fd5b50565b6000815190506116d8816116b2565b92915050565b6000602082840312156116f4576116f3610fa6565b5b6000611702848285016116c9565b91505092915050565b7f4e4f545f415554484f5249545900000000000000000000000000000000000000600082015250565b6000611741600d8361114a565b915061174c8261170b565b602082019050919050565b6000602082019050818103600083015261177081611734565b9050919050565b600081905092915050565b600061178d8261113f565b6117978185611777565b93506117a781856020860161115b565b80840191505092915050565b60006117bf8284611782565b915081905092915050565b7f4558495354530000000000000000000000000000000000000000000000000000600082015250565b600061180060068361114a565b915061180b826117ca565b602082019050919050565b6000602082019050818103600083015261182f816117f3565b9050919050565b60008190508160005260206000209050919050565b60006020601f8301049050919050565b600082821b905092915050565b6000600883026118987fffffffffffffffffffffffffffffffffffffffffffffffffffffffffffffffff8261185b565b6118a2868361185b565b95508019841693508086168417925050509392505050565b6000819050919050565b60006118df6118da6118d5846111be565b6118ba565b6111be565b9050919050565b6000819050919050565b6118f9836118c4565b61190d611905826118e6565b848454611868565b825550505050565b600090565b611922611915565b61192d8184846118f0565b505050565b5b818110156119515761194660008261191a565b600181019050611933565b5050565b601f8211156119965761196781611836565b6119708461184b565b8101602085101561197f578190505b61199361198b8561184b565b830182611932565b50505b505050565b600082821c905092915050565b60006119b96000198460080261199b565b1980831691505092915050565b60006119d283836119a8565b9150826002028217905092915050565b6119eb8261113f565b67ffffffffffffffff811115611a0457611a03610fcb565b5b611a0e8254611675565b611a19828285611955565b600060209050601f831160018114611a4c5760008415611a3a578287015190505b611a4485826119c6565b865550611aac565b601f198416611a5a86611836565b60005b82811015611a8257848901518255600182019150602085019450602081019050611a5d565b86831015611a9f5784890151611a9b601f8916826119a8565b8355505b6001600288020188555050505b505050505050565b7f4e4f545f4f574e45520000000000000000000000000000000000000000000000600082015250565b6000611aea60098361114a565b9150611af582611ab4565b602082019050919050565b60006020820190508181036000830152611b1981611add565b905091905056fea264697066735822122052e7368332ef717561d474c1004398eff4261029bc2a7008d489a97004a809d964736f6c63430008140033",
  "linkReferences": {},
  "deployedLinkReferences": {}
}