{
  "_format": "hh-sol-artifact-1",
  "contractName": "TaaSProductCoreV2",
  "sourceName": "contracts/old/TaaSProductCoreV2.sol",
  "abi": [
    {
      "inputs": [],
      "stateMutability": "nonpayable",
      "type": "constructor"
    },
    {
      "inputs": [],
      "name": "authorityContract",
      "outputs": [
        {
          "internalType": "address",
          "name": "",
          "type": "address"
        }
      ],
      "stateMutability": "view",
      "type": "function"
    },
    {
      "inputs": [
        {
          "internalType": "string",
          "name": "gpid",
          "type": "string"
        },
        {
          "internalType": "string",
          "name": "brand",
          "type": "string"
        },
        {
          "internalType": "string",
          "name": "model",
          "type": "string"
        },
        {
          "internalType": "string",
          "name": "category",
          "type": "string"
        },
        {
          "internalType": "string",
          "name": "factory",
          "type": "string"
        },
        {
          "internalType": "string",
          "name": "batch",
          "type": "string"
        }
      ],
      "name": "createProduct",
      "outputs": [],
      "stateMutability": "nonpayable",
      "type": "function"
    },
    {
      "inputs": [
        {
          "internalType": "string",
          "name": "gpid",
          "type": "string"
        }
      ],
      "name": "getProduct",
      "outputs": [
        {
          "components": [
            {
              "internalType": "string",
              "name": "gpid",
              "type": "string"
            },
            {
              "internalType": "string",
              "name": "brand",
              "type": "string"
            },
            {
              "internalType": "string",
              "name": "model",
              "type": "string"
            },
            {
              "internalType": "string",
              "name": "category",
              "type": "string"
            },
            {
              "internalType": "string",
              "name": "factory",
              "type": "string"
            },
            {
              "internalType": "string",
              "name": "batch",
              "type": "string"
            },
            {
              "internalType": "uint256",
              "name": "createdAt",
              "type": "uint256"
            },
            {
              "internalType": "address",
              "name": "issuer",
              "type": "address"
            },
            {
              "internalType": "address",
              "name": "owner",
              "type": "address"
            }
          ],
          "internalType": "struct TaaSProductCoreV2.Product",
          "name": "",
          "type": "tuple"
        }
      ],
      "stateMutability": "view",
      "type": "function"
    },
    {
      "inputs": [],
      "name": "owner",
      "outputs": [
        {
          "internalType": "address",
          "name": "",
          "type": "address"
        }
      ],
      "stateMutability": "view",
      "type": "function"
    },
    {
      "inputs": [
        {
          "internalType": "string",
          "name": "",
          "type": "string"
        }
      ],
      "name": "products",
      "outputs": [
        {
          "internalType": "string",
          "name": "gpid",
          "type": "string"
        },
        {
          "internalType": "string",
          "name": "brand",
          "type": "string"
        },
        {
          "internalType": "string",
          "name": "model",
          "type": "string"
        },
        {
          "internalType": "string",
          "name": "category",
          "type": "string"
        },
        {
          "internalType": "string",
          "name": "factory",
          "type": "string"
        },
        {
          "internalType": "string",
          "name": "batch",
          "type": "string"
        },
        {
          "internalType": "uint256",
          "name": "createdAt",
          "type": "uint256"
        },
        {
          "internalType": "address",
          "name": "issuer",
          "type": "address"
        },
        {
          "internalType": "address",
          "name": "owner",
          "type": "address"
        }
      ],
      "stateMutability": "view",
      "type": "function"
    },
    {
      "inputs": [
        {
          "internalType": "address",
          "name": "_auth",
          "type": "address"
        }
      ],
      "name": "setAuthorityContract",
      "outputs": [],
      "stateMutability": "nonpayable",
      "type": "function"
    },
    {
      "inputs": [
        {
          "internalType": "string",
          "name": "gpid",
          "type": "string"
        },
        {
          "internalType": "address",
          "name": "newOwner",
          "type": "address"
        }
      ],
      "name": "transferOwnership",
      "outputs": [],
      "stateMutability": "nonpayable",
      "type": "function"
    }
  ],
  "bytecode": "0x608060405234801561001057600080fd5b50600080546001600160a01b0319163317905561127e806100326000396000f3fe608060405234801561001057600080fd5b506004361061007d5760003560e01c80638da5cb5b1161005b5780638da5cb5b146100e8578063c0e793c214610113578063c55642be14610126578063e2de215e1461013957600080fd5b80630186a4231461008257806355a53f06146100b357806368111cce146100c8575b600080fd5b610095610090366004610d18565b61014c565b6040516100aa99989796959493929190610da5565b60405180910390f35b6100c66100c1366004610e4a565b6104da565b005b6100db6100d6366004610d18565b61072d565b6040516100aa9190610f3f565b6000546100fb906001600160a01b031681565b6040516001600160a01b0390911681526020016100aa565b6100c661012136600461104f565b610b57565b6100c661013436600461109d565b610c0d565b6001546100fb906001600160a01b031681565b8051602081830181018051600282529282019190930120915280548190610172906110bf565b80601f016020809104026020016040519081016040528092919081815260200182805461019e906110bf565b80156101eb5780601f106101c0576101008083540402835291602001916101eb565b820191906000526020600020905b8154815290600101906020018083116101ce57829003601f168201915b505050505090806001018054610200906110bf565b80601f016020809104026020016040519081016040528092919081815260200182805461022c906110bf565b80156102795780601f1061024e57610100808354040283529160200191610279565b820191906000526020600020905b81548152906001019060200180831161025c57829003601f168201915b50505050509080600201805461028e906110bf565b80601f01602080910402602001604051908101604052809291908181526020018280546102ba906110bf565b80156103075780601f106102dc57610100808354040283529160200191610307565b820191906000526020600020905b8154815290600101906020018083116102ea57829003601f168201915b50505050509080600301805461031c906110bf565b80601f0160208091040260200160405190810160405280929190818152602001828054610348906110bf565b80156103955780601f1061036a57610100808354040283529160200191610395565b820191906000526020600020905b81548152906001019060200180831161037857829003601f168201915b5050505050908060040180546103aa906110bf565b80601f01602080910402602001604051908101604052809291908181526020018280546103d6906110bf565b80156104235780601f106103f857610100808354040283529160200191610423565b820191906000526020600020905b81548152906001019060200180831161040657829003601f168201915b505050505090806005018054610438906110bf565b80601f0160208091040260200160405190810160405280929190818152602001828054610464906110bf565b80156104b15780601f10610486576101008083540402835291602001916104b1565b820191906000526020600020905b81548152906001019060200180831161049457829003601f168201915b5050505060068301546007840154600890940154929390926001600160a01b0391821692501689565b6001546001600160a01b03161580159061055b57506001546040516391223d6960e01b81523360048201526001600160a01b03909116906391223d6990602401602060405180830381865afa158015610537573d6000803e3d6000fd5b505050506040513d601f19601f8201168201806040525081019061055b91906110f9565b61059c5760405162461bcd60e51b815260206004820152600d60248201526c4e4f545f415554484f5249545960981b60448201526064015b60405180910390fd5b6002866040516105ac919061111b565b9081526020016040518091039020600601546000146105f65760405162461bcd60e51b815260206004820152600660248201526545584953545360d01b6044820152606401610593565b604051806101200160405280878152602001868152602001858152602001848152602001838152602001828152602001428152602001336001600160a01b03168152602001336001600160a01b0316815250600287604051610658919061111b565b908152604051908190036020019020815181906106759082611188565b506020820151600182019061068a9082611188565b506040820151600282019061069f9082611188565b50606082015160038201906106b49082611188565b50608082015160048201906106c99082611188565b5060a082015160058201906106de9082611188565b5060c0820151600682015560e08201516007820180546001600160a01b03199081166001600160a01b039384161790915561010090930151600890920180549093169116179055505050505050565b61078e6040518061012001604052806060815260200160608152602001606081526020016060815260200160608152602001606081526020016000815260200160006001600160a01b0316815260200160006001600160a01b031681525090565b60028260405161079e919061111b565b9081526020016040518091039020604051806101200160405290816000820180546107c8906110bf565b80601f01602080910402602001604051908101604052809291908181526020018280546107f4906110bf565b80156108415780601f1061081657610100808354040283529160200191610841565b820191906000526020600020905b81548152906001019060200180831161082457829003601f168201915b5050505050815260200160018201805461085a906110bf565b80601f0160208091040260200160405190810160405280929190818152602001828054610886906110bf565b80156108d35780601f106108a8576101008083540402835291602001916108d3565b820191906000526020600020905b8154815290600101906020018083116108b657829003601f168201915b505050505081526020016002820180546108ec906110bf565b80601f0160208091040260200160405190810160405280929190818152602001828054610918906110bf565b80156109655780601f1061093a57610100808354040283529160200191610965565b820191906000526020600020905b81548152906001019060200180831161094857829003601f168201915b5050505050815260200160038201805461097e906110bf565b80601f01602080910402602001604051908101604052809291908181526020018280546109aa906110bf565b80156109f75780601f106109cc576101008083540402835291602001916109f7565b820191906000526020600020905b8154815290600101906020018083116109da57829003601f168201915b50505050508152602001600482018054610a10906110bf565b80601f0160208091040260200160405190810160405280929190818152602001828054610a3c906110bf565b8015610a895780601f10610a5e57610100808354040283529160200191610a89565b820191906000526020600020905b815481529060010190602001808311610a6c57829003601f168201915b50505050508152602001600582018054610aa2906110bf565b80601f0160208091040260200160405190810160405280929190818152602001828054610ace906110bf565b8015610b1b5780601f10610af057610100808354040283529160200191610b1b565b820191906000526020600020905b815481529060010190602001808311610afe57829003601f168201915b50505091835250506006820154602082015260078201546001600160a01b03908116604083015260089092015490911660609091015292915050565b336001600160a01b0316600283604051610b71919061111b565b908152604051908190036020019020600801546001600160a01b031614610bc65760405162461bcd60e51b81526020600482015260096024820152682727aa2fa7aba722a960b91b6044820152606401610593565b80600283604051610bd7919061111b565b90815260405190819003602001902060080180546001600160a01b03929092166001600160a01b03199092169190911790555050565b6000546001600160a01b03163314610c535760405162461bcd60e51b81526020600482015260096024820152682727aa2fa7aba722a960b91b6044820152606401610593565b600180546001600160a01b0319166001600160a01b0392909216919091179055565b634e487b7160e01b600052604160045260246000fd5b600082601f830112610c9c57600080fd5b813567ffffffffffffffff80821115610cb757610cb7610c75565b604051601f8301601f19908116603f01168101908282118183101715610cdf57610cdf610c75565b81604052838152866020858801011115610cf857600080fd5b836020870160208301376000602085830101528094505050505092915050565b600060208284031215610d2a57600080fd5b813567ffffffffffffffff811115610d4157600080fd5b610d4d84828501610c8b565b949350505050565b60005b83811015610d70578181015183820152602001610d58565b50506000910152565b60008151808452610d91816020860160208601610d55565b601f01601f19169290920160200192915050565b6000610120808352610db98184018d610d79565b90508281036020840152610dcd818c610d79565b90508281036040840152610de1818b610d79565b90508281036060840152610df5818a610d79565b90508281036080840152610e098189610d79565b905082810360a0840152610e1d8188610d79565b60c084019690965250506001600160a01b0392831660e08201529116610100909101529695505050505050565b60008060008060008060c08789031215610e6357600080fd5b863567ffffffffffffffff80821115610e7b57600080fd5b610e878a838b01610c8b565b97506020890135915080821115610e9d57600080fd5b610ea98a838b01610c8b565b96506040890135915080821115610ebf57600080fd5b610ecb8a838b01610c8b565b95506060890135915080821115610ee157600080fd5b610eed8a838b01610c8b565b94506080890135915080821115610f0357600080fd5b610f0f8a838b01610c8b565b935060a0890135915080821115610f2557600080fd5b50610f3289828a01610c8b565b9150509295509295509295565b6020815260008251610120806020850152610f5e610140850183610d79565b91506020850151601f1980868503016040870152610f7c8483610d79565b93506040870151915080868503016060870152610f998483610d79565b93506060870151915080868503016080870152610fb68483610d79565b935060808701519150808685030160a0870152610fd38483610d79565b935060a08701519150808685030160c087015250610ff18382610d79565b92505060c085015160e085015260e085015161010061101a818701836001600160a01b03169052565b909501516001600160a01b031693019290925250919050565b80356001600160a01b038116811461104a57600080fd5b919050565b6000806040838503121561106257600080fd5b823567ffffffffffffffff81111561107957600080fd5b61108585828601610c8b565b92505061109460208401611033565b90509250929050565b6000602082840312156110af57600080fd5b6110b882611033565b9392505050565b600181811c908216806110d357607f821691505b6020821081036110f357634e487b7160e01b600052602260045260246000fd5b50919050565b60006020828403121561110b57600080fd5b815180151581146110b857600080fd5b6000825161112d818460208701610d55565b9190910192915050565b601f821115611183576000816000526020600020601f850160051c810160208610156111605750805b601f850160051c820191505b8181101561117f5782815560010161116c565b5050505b505050565b815167ffffffffffffffff8111156111a2576111a2610c75565b6111b6816111b084546110bf565b84611137565b602080601f8311600181146111eb57600084156111d35750858301515b600019600386901b1c1916600185901b17855561117f565b600085815260208120601f198616915b8281101561121a578886015182559484019460019091019084016111fb565b50858210156112385787850151600019600388901b60f8161c191681555b5050505050600190811b0190555056fea2646970667358221220f6d87bf942281b3b1e8853c2d5b0178331aefe5f62e0545b789518eab99714df64736f6c63430008180033",
  "linkReferences": {},
  "deployedLinkReferences": {}
}