{
  "_format": "hh-sol-artifact-1",
  "contractName": "TaaSProductCore",
  "sourceName": "contracts/old/TaaSProductCore.sol",
  "abi": [
    {
      "inputs": [],
      "stateMutability": "nonpayable",
      "type": "constructor"
    },
    {
      "anonymous": false,
      "inputs": [
        {
          "indexed": false,
          "internalType": "address",
          "name": "authority",
          "type": "address"
        }
      ],
      "name": "AuthoritySet",
      "type": "event"
    },
    {
      "anonymous": false,
      "inputs": [
        {
          "indexed": false,
          "internalType": "string",
          "name": "gpid",
          "type": "string"
        },
        {
          "indexed": false,
          "internalType": "address",
          "name": "newOwner",
          "type": "address"
        }
      ],
      "name": "OwnershipTransferred",
      "type": "event"
    },
    {
      "anonymous": false,
      "inputs": [
        {
          "indexed": false,
          "internalType": "string",
          "name": "gpid",
          "type": "string"
        },
        {
          "indexed": false,
          "internalType": "address",
          "name": "owner",
          "type": "address"
        }
      ],
      "name": "ProductCreated",
      "type": "event"
    },
    {
      "inputs": [],
      "name": "authority",
      "outputs": [
        {
          "internalType": "address",
          "name": "",
          "type": "address"
        }
      ],
      "stateMutability": "view",
      "type": "function"
    },
    {
      "inputs": [
        {
          "internalType": "string",
          "name": "gpid",
          "type": "string"
        },
        {
          "internalType": "string",
          "name": "brand",
          "type": "string"
        },
        {
          "internalType": "string",
          "name": "model",
          "type": "string"
        },
        {
          "internalType": "string",
          "name": "category",
          "type": "string"
        },
        {
          "internalType": "string",
          "name": "factory",
          "type": "string"
        },
        {
          "internalType": "string",
          "name": "batch",
          "type": "string"
        }
      ],
      "name": "createProduct",
      "outputs": [],
      "stateMutability": "nonpayable",
      "type": "function"
    },
    {
      "inputs": [
        {
          "internalType": "string",
          "name": "gpid",
          "type": "string"
        }
      ],
      "name": "getProduct",
      "outputs": [
        {
          "internalType": "string",
          "name": "",
          "type": "string"
        },
        {
          "internalType": "string",
          "name": "",
          "type": "string"
        },
        {
          "internalType": "string",
          "name": "",
          "type": "string"
        },
        {
          "internalType": "string",
          "name": "",
          "type": "string"
        },
        {
          "internalType": "string",
          "name": "",
          "type": "string"
        },
        {
          "internalType": "string",
          "name": "",
          "type": "string"
        },
        {
          "internalType": "uint256",
          "name": "",
          "type": "uint256"
        },
        {
          "internalType": "address",
          "name": "",
          "type": "address"
        },
        {
          "internalType": "address",
          "name": "",
          "type": "address"
        }
      ],
      "stateMutability": "view",
      "type": "function"
    },
    {
      "inputs": [],
      "name": "owner",
      "outputs": [
        {
          "internalType": "address",
          "name": "",
          "type": "address"
        }
      ],
      "stateMutability": "view",
      "type": "function"
    },
    {
      "inputs": [
        {
          "internalType": "string",
          "name": "",
          "type": "string"
        }
      ],
      "name": "products",
      "outputs": [
        {
          "internalType": "string",
          "name": "gpid",
          "type": "string"
        },
        {
          "internalType": "string",
          "name": "brand",
          "type": "string"
        },
        {
          "internalType": "string",
          "name": "model",
          "type": "string"
        },
        {
          "internalType": "string",
          "name": "category",
          "type": "string"
        },
        {
          "internalType": "string",
          "name": "factory",
          "type": "string"
        },
        {
          "internalType": "string",
          "name": "batch",
          "type": "string"
        },
        {
          "internalType": "uint256",
          "name": "timestamp",
          "type": "uint256"
        },
        {
          "internalType": "address",
          "name": "issuer",
          "type": "address"
        },
        {
          "internalType": "address",
          "name": "currentOwner",
          "type": "address"
        }
      ],
      "stateMutability": "view",
      "type": "function"
    },
    {
      "inputs": [
        {
          "internalType": "address",
          "name": "_authority",
          "type": "address"
        }
      ],
      "name": "setAuthority",
      "outputs": [],
      "stateMutability": "nonpayable",
      "type": "function"
    },
    {
      "inputs": [
        {
          "internalType": "string",
          "name": "gpid",
          "type": "string"
        },
        {
          "internalType": "address",
          "name": "newOwner",
          "type": "address"
        }
      ],
      "name": "transferOwnership",
      "outputs": [],
      "stateMutability": "nonpayable",
      "type": "function"
    }
  ],
  "bytecode": "0x608060405234801561001057600080fd5b50600080546001600160a01b03191633179055611262806100326000396000f3fe608060405234801561001057600080fd5b506004361061007d5760003560e01c80637a9e5e4b1161005b5780637a9e5e4b146100db5780638da5cb5b146100ee578063bf7e214f14610119578063c0e793c21461012c57600080fd5b80630186a4231461008257806355a53f06146100b357806368111cce146100c8575b600080fd5b610095610090366004610de8565b61013f565b6040516100aa99989796959493929190610e75565b60405180910390f35b6100c66100c1366004610f1a565b6104cd565b005b6100956100d6366004610de8565b6106fd565b6100c66100e936600461102b565b610b60565b600054610101906001600160a01b031681565b6040516001600160a01b0390911681526020016100aa565b600154610101906001600160a01b031681565b6100c661013a36600461104d565b610bfa565b80516020818301810180516002825292820191909301209152805481906101659061109b565b80601f01602080910402602001604051908101604052809291908181526020018280546101919061109b565b80156101de5780601f106101b3576101008083540402835291602001916101de565b820191906000526020600020905b8154815290600101906020018083116101c157829003601f168201915b5050505050908060010180546101f39061109b565b80601f016020809104026020016040519081016040528092919081815260200182805461021f9061109b565b801561026c5780601f106102415761010080835404028352916020019161026c565b820191906000526020600020905b81548152906001019060200180831161024f57829003601f168201915b5050505050908060020180546102819061109b565b80601f01602080910402602001604051908101604052809291908181526020018280546102ad9061109b565b80156102fa5780601f106102cf576101008083540402835291602001916102fa565b820191906000526020600020905b8154815290600101906020018083116102dd57829003601f168201915b50505050509080600301805461030f9061109b565b80601f016020809104026020016040519081016040528092919081815260200182805461033b9061109b565b80156103885780601f1061035d57610100808354040283529160200191610388565b820191906000526020600020905b81548152906001019060200180831161036b57829003601f168201915b50505050509080600401805461039d9061109b565b80601f01602080910402602001604051908101604052809291908181526020018280546103c99061109b565b80156104165780601f106103eb57610100808354040283529160200191610416565b820191906000526020600020905b8154815290600101906020018083116103f957829003601f168201915b50505050509080600501805461042b9061109b565b80601f01602080910402602001604051908101604052809291908181526020018280546104579061109b565b80156104a45780601f10610479576101008083540402835291602001916104a4565b820191906000526020600020905b81548152906001019060200180831161048757829003601f168201915b5050505060068301546007840154600890940154929390926001600160a01b0391821692501689565b6001546001600160a01b03163314806104f057506000546001600160a01b031633145b6105325760405162461bcd60e51b815260206004820152600e60248201526d1393d517d055551213d49256915160921b60448201526064015b60405180910390fd5b60028660405161054291906110d5565b90815260200160405180910390206006015460001461058c5760405162461bcd60e51b815260206004820152600660248201526545584953545360d01b6044820152606401610529565b604051806101200160405280878152602001868152602001858152602001848152602001838152602001828152602001428152602001336001600160a01b03168152602001336001600160a01b03168152506002876040516105ee91906110d5565b9081526040519081900360200190208151819061060b9082611142565b50602082015160018201906106209082611142565b50604082015160028201906106359082611142565b506060820151600382019061064a9082611142565b506080820151600482019061065f9082611142565b5060a082015160058201906106749082611142565b5060c0820151600682015560e08201516007820180546001600160a01b03199081166001600160a01b0393841617909155610100909301516008909201805490931691161790556040517f6276b46249f3ef9f8582903c6f0d43109febb82b3ec9f4dbd15662bb71ec9c7b906106ed9088903390611202565b60405180910390a1505050505050565b60608060608060608060008060008060028b60405161071c91906110d5565b9081526020016040518091039020604051806101200160405290816000820180546107469061109b565b80601f01602080910402602001604051908101604052809291908181526020018280546107729061109b565b80156107bf5780601f10610794576101008083540402835291602001916107bf565b820191906000526020600020905b8154815290600101906020018083116107a257829003601f168201915b505050505081526020016001820180546107d89061109b565b80601f01602080910402602001604051908101604052809291908181526020018280546108049061109b565b80156108515780601f1061082657610100808354040283529160200191610851565b820191906000526020600020905b81548152906001019060200180831161083457829003601f168201915b5050505050815260200160028201805461086a9061109b565b80601f01602080910402602001604051908101604052809291908181526020018280546108969061109b565b80156108e35780601f106108b8576101008083540402835291602001916108e3565b820191906000526020600020905b8154815290600101906020018083116108c657829003601f168201915b505050505081526020016003820180546108fc9061109b565b80601f01602080910402602001604051908101604052809291908181526020018280546109289061109b565b80156109755780601f1061094a57610100808354040283529160200191610975565b820191906000526020600020905b81548152906001019060200180831161095857829003601f168201915b5050505050815260200160048201805461098e9061109b565b80601f01602080910402602001604051908101604052809291908181526020018280546109ba9061109b565b8015610a075780601f106109dc57610100808354040283529160200191610a07565b820191906000526020600020905b8154815290600101906020018083116109ea57829003601f168201915b50505050508152602001600582018054610a209061109b565b80601f0160208091040260200160405190810160405280929190818152602001828054610a4c9061109b565b8015610a995780601f10610a6e57610100808354040283529160200191610a99565b820191906000526020600020905b815481529060010190602001808311610a7c57829003601f168201915b50505091835250506006820154602082015260078201546001600160a01b03908116604083015260089092015490911660609091015260c0810151909150600003610b125760405162461bcd60e51b81526020600482015260096024820152681393d517d193d5539160ba1b6044820152606401610529565b806000015181602001518260400151836060015184608001518560a001518660c001518760e00151886101000151995099509950995099509950995099509950509193959799909294969850565b6000546001600160a01b03163314610ba65760405162461bcd60e51b81526020600482015260096024820152682727aa2fa7aba722a960b91b6044820152606401610529565b600180546001600160a01b0319166001600160a01b0383169081179091556040519081527f17898fd7375ca5152626d6fdd4ceb2bce6cc033c9b61e254dd0087d5f8b474309060200160405180910390a150565b600282604051610c0a91906110d5565b908152602001604051809103902060060154600003610c575760405162461bcd60e51b81526020600482015260096024820152681393d517d193d5539160ba1b6044820152606401610529565b336001600160a01b0316600283604051610c7191906110d5565b908152604051908190036020019020600801546001600160a01b031614610cc65760405162461bcd60e51b81526020600482015260096024820152682727aa2fa7aba722a960b91b6044820152606401610529565b80600283604051610cd791906110d5565b90815260405190819003602001812060080180546001600160a01b03939093166001600160a01b0319909316929092179091557f6d82ace1ded9997251e5a150555aeb78d9d890a0d3170f41385af11b46c0973f90610d399084908490611202565b60405180910390a15050565b634e487b7160e01b600052604160045260246000fd5b600082601f830112610d6c57600080fd5b813567ffffffffffffffff80821115610d8757610d87610d45565b604051601f8301601f19908116603f01168101908282118183101715610daf57610daf610d45565b81604052838152866020858801011115610dc857600080fd5b836020870160208301376000602085830101528094505050505092915050565b600060208284031215610dfa57600080fd5b813567ffffffffffffffff811115610e1157600080fd5b610e1d84828501610d5b565b949350505050565b60005b83811015610e40578181015183820152602001610e28565b50506000910152565b60008151808452610e61816020860160208601610e25565b601f01601f19169290920160200192915050565b6000610120808352610e898184018d610e49565b90508281036020840152610e9d818c610e49565b90508281036040840152610eb1818b610e49565b90508281036060840152610ec5818a610e49565b90508281036080840152610ed98189610e49565b905082810360a0840152610eed8188610e49565b60c084019690965250506001600160a01b0392831660e08201529116610100909101529695505050505050565b60008060008060008060c08789031215610f3357600080fd5b863567ffffffffffffffff80821115610f4b57600080fd5b610f578a838b01610d5b565b97506020890135915080821115610f6d57600080fd5b610f798a838b01610d5b565b96506040890135915080821115610f8f57600080fd5b610f9b8a838b01610d5b565b95506060890135915080821115610fb157600080fd5b610fbd8a838b01610d5b565b94506080890135915080821115610fd357600080fd5b610fdf8a838b01610d5b565b935060a0890135915080821115610ff557600080fd5b5061100289828a01610d5b565b9150509295509295509295565b80356001600160a01b038116811461102657600080fd5b919050565b60006020828403121561103d57600080fd5b6110468261100f565b9392505050565b6000806040838503121561106057600080fd5b823567ffffffffffffffff81111561107757600080fd5b61108385828601610d5b565b9250506110926020840161100f565b90509250929050565b600181811c908216806110af57607f821691505b6020821081036110cf57634e487b7160e01b600052602260045260246000fd5b50919050565b600082516110e7818460208701610e25565b9190910192915050565b601f82111561113d576000816000526020600020601f850160051c8101602086101561111a5750805b601f850160051c820191505b8181101561113957828155600101611126565b5050505b505050565b815167ffffffffffffffff81111561115c5761115c610d45565b6111708161116a845461109b565b846110f1565b602080601f8311600181146111a5576000841561118d5750858301515b600019600386901b1c1916600185901b178555611139565b600085815260208120601f198616915b828110156111d4578886015182559484019460019091019084016111b5565b50858210156111f25787850151600019600388901b60f8161c191681555b5050505050600190811b01905550565b6040815260006112156040830185610e49565b905060018060a01b0383166020830152939250505056fea2646970667358221220b6e8764fac2f347714c3007deb47d4ac43f4ac1145fba2d395e076b170b2cab764736f6c63430008180033",
  "linkReferences": {},
  "deployedLinkReferences": {}
}