{
  "_format": "hh-sol-artifact-1",
  "contractName": "TaaSProductCore",
  "sourceName": "contracts/old/TaaSProductCore.sol",
  "abi": [
    {
      "inputs": [],
      "stateMutability": "nonpayable",
      "type": "constructor"
    },
    {
      "anonymous": false,
      "inputs": [
        {
          "indexed": false,
          "internalType": "address",
          "name": "authority",
          "type": "address"
        }
      ],
      "name": "AuthoritySet",
      "type": "event"
    },
    {
      "anonymous": false,
      "inputs": [
        {
          "indexed": false,
          "internalType": "string",
          "name": "gpid",
          "type": "string"
        },
        {
          "indexed": false,
          "internalType": "address",
          "name": "newOwner",
          "type": "address"
        }
      ],
      "name": "OwnershipTransferred",
      "type": "event"
    },
    {
      "anonymous": false,
      "inputs": [
        {
          "indexed": false,
          "internalType": "string",
          "name": "gpid",
          "type": "string"
        },
        {
          "indexed": false,
          "internalType": "address",
          "name": "owner",
          "type": "address"
        }
      ],
      "name": "ProductCreated",
      "type": "event"
    },
    {
      "inputs": [],
      "name": "authority",
      "outputs": [
        {
          "internalType": "address",
          "name": "",
          "type": "address"
        }
      ],
      "stateMutability": "view",
      "type": "function"
    },
    {
      "inputs": [
        {
          "internalType": "string",
          "name": "gpid",
          "type": "string"
        },
        {
          "internalType": "string",
          "name": "brand",
          "type": "string"
        },
        {
          "internalType": "string",
          "name": "model",
          "type": "string"
        },
        {
          "internalType": "string",
          "name": "category",
          "type": "string"
        },
        {
          "internalType": "string",
          "name": "factory",
          "type": "string"
        },
        {
          "internalType": "string",
          "name": "batch",
          "type": "string"
        }
      ],
      "name": "createProduct",
      "outputs": [],
      "stateMutability": "nonpayable",
      "type": "function"
    },
    {
      "inputs": [
        {
          "internalType": "string",
          "name": "gpid",
          "type": "string"
        }
      ],
      "name": "getProduct",
      "outputs": [
        {
          "internalType": "string",
          "name": "",
          "type": "string"
        },
        {
          "internalType": "string",
          "name": "",
          "type": "string"
        },
        {
          "internalType": "string",
          "name": "",
          "type": "string"
        },
        {
          "internalType": "string",
          "name": "",
          "type": "string"
        },
        {
          "internalType": "string",
          "name": "",
          "type": "string"
        },
        {
          "internalType": "string",
          "name": "",
          "type": "string"
        },
        {
          "internalType": "uint256",
          "name": "",
          "type": "uint256"
        },
        {
          "internalType": "address",
          "name": "",
          "type": "address"
        },
        {
          "internalType": "address",
          "name": "",
          "type": "address"
        }
      ],
      "stateMutability": "view",
      "type": "function"
    },
    {
      "inputs": [],
      "name": "owner",
      "outputs": [
        {
          "internalType": "address",
          "name": "",
          "type": "address"
        }
      ],
      "stateMutability": "view",
      "type": "function"
    },
    {
      "inputs": [
        {
          "internalType": "string",
          "name": "",
          "type": "string"
        }
      ],
      "name": "products",
      "outputs": [
        {
          "internalType": "string",
          "name": "gpid",
          "type": "string"
        },
        {
          "internalType": "string",
          "name": "brand",
          "type": "string"
        },
        {
          "internalType": "string",
          "name": "model",
          "type": "string"
        },
        {
          "internalType": "string",
          "name": "category",
          "type": "string"
        },
        {
          "internalType": "string",
          "name": "factory",
          "type": "string"
        },
        {
          "internalType": "string",
          "name": "batch",
          "type": "string"
        },
        {
          "internalType": "uint256",
          "name": "timestamp",
          "type": "uint256"
        },
        {
          "internalType": "address",
          "name": "issuer",
          "type": "address"
        },
        {
          "internalType": "address",
          "name": "currentOwner",
          "type": "address"
        }
      ],
      "stateMutability": "view",
      "type": "function"
    },
    {
      "inputs": [
        {
          "internalType": "address",
          "name": "_authority",
          "type": "address"
        }
      ],
      "name": "setAuthority",
      "outputs": [],
      "stateMutability": "nonpayable",
      "type": "function"
    },
    {
      "inputs": [
        {
          "internalType": "string",
          "name": "gpid",
          "type": "string"
        },
        {
          "internalType": "address",
          "name": "newOwner",
          "type": "address"
        }
      ],
      "name": "transferOwnership",
      "outputs": [],
      "stateMutability": "nonpayable",
      "type": "function"
    }
  ],
  "bytecode": "0x608060405234801561001057600080fd5b50336000806101000a81548173ffffffffffffffffffffffffffffffffffffffff021916908373ffffffffffffffffffffffffffffffffffffffff160217905550611aff806100606000396000f3fe608060405234801561001057600080fd5b506004361061007d5760003560e01c80637a9e5e4b1161005b5780637a9e5e4b1461010e5780638da5cb5b1461012a578063bf7e214f14610148578063c0e793c2146101665761007d565b80630186a4231461008257806355a53f06146100ba57806368111cce146100d6575b600080fd5b61009c600480360381019061009791906111da565b610182565b6040516100b1999897969594939291906112fc565b60405180910390f35b6100d460048036038101906100cf91906113b3565b610556565b005b6100f060048036038101906100eb91906111da565b61088b565b604051610105999897969594939291906112fc565b60405180910390f35b61012860048036038101906101239190611514565b610d7d565b005b610132610e86565b60405161013f9190611541565b60405180910390f35b610150610eaa565b60405161015d9190611541565b60405180910390f35b610180600480360381019061017b919061155c565b610ed0565b005b6002818051602081018201805184825260208301602085012081835280955050505050506000915090508060000180546101bb906115e7565b80601f01602080910402602001604051908101604052809291908181526020018280546101e7906115e7565b80156102345780601f1061020957610100808354040283529160200191610234565b820191906000526020600020905b81548152906001019060200180831161021757829003601f168201915b505050505090806001018054610249906115e7565b80601f0160208091040260200160405190810160405280929190818152602001828054610275906115e7565b80156102c25780601f10610297576101008083540402835291602001916102c2565b820191906000526020600020905b8154815290600101906020018083116102a557829003601f168201915b5050505050908060020180546102d7906115e7565b80601f0160208091040260200160405190810160405280929190818152602001828054610303906115e7565b80156103505780601f1061032557610100808354040283529160200191610350565b820191906000526020600020905b81548152906001019060200180831161033357829003601f168201915b505050505090806003018054610365906115e7565b80601f0160208091040260200160405190810160405280929190818152602001828054610391906115e7565b80156103de5780601f106103b3576101008083540402835291602001916103de565b820191906000526020600020905b8154815290600101906020018083116103c157829003601f168201915b5050505050908060040180546103f3906115e7565b80601f016020809104026020016040519081016040528092919081815260200182805461041f906115e7565b801561046c5780601f106104415761010080835404028352916020019161046c565b820191906000526020600020905b81548152906001019060200180831161044f57829003601f168201915b505050505090806005018054610481906115e7565b80601f01602080910402602001604051908101604052809291908181526020018280546104ad906115e7565b80156104fa5780601f106104cf576101008083540402835291602001916104fa565b820191906000526020600020905b8154815290600101906020018083116104dd57829003601f168201915b5050505050908060060154908060070160009054906101000a900473ffffffffffffffffffffffffffffffffffffffff16908060080160009054906101000a900473ffffffffffffffffffffffffffffffffffffffff16905089565b600160009054906101000a900473ffffffffffffffffffffffffffffffffffffffff1673ffffffffffffffffffffffffffffffffffffffff163373ffffffffffffffffffffffffffffffffffffffff1614806105fd575060008054906101000a900473ffffffffffffffffffffffffffffffffffffffff1673ffffffffffffffffffffffffffffffffffffffff163373ffffffffffffffffffffffffffffffffffffffff16145b61063c576040517f08c379a000000000000000000000000000000000000000000000000000000000815260040161063390611664565b60405180910390fd5b600060028760405161064e91906116c0565b908152602001604051809103902060060154146106a0576040517f08c379a000000000000000000000000000000000000000000000000000000000815260040161069790611723565b60405180910390fd5b6040518061012001604052808781526020018681526020018581526020018481526020018381526020018281526020014281526020013373ffffffffffffffffffffffffffffffffffffffff1681526020013373ffffffffffffffffffffffffffffffffffffffff1681525060028760405161071c91906116c0565b9081526020016040518091039020600082015181600001908161073f91906118ef565b50602082015181600101908161075591906118ef565b50604082015181600201908161076b91906118ef565b50606082015181600301908161078191906118ef565b50608082015181600401908161079791906118ef565b5060a08201518160050190816107ad91906118ef565b5060c0820151816006015560e08201518160070160006101000a81548173ffffffffffffffffffffffffffffffffffffffff021916908373ffffffffffffffffffffffffffffffffffffffff1602179055506101008201518160080160006101000a81548173ffffffffffffffffffffffffffffffffffffffff021916908373ffffffffffffffffffffffffffffffffffffffff1602179055509050507f6276b46249f3ef9f8582903c6f0d43109febb82b3ec9f4dbd15662bb71ec9c7b863360405161087b9291906119c1565b60405180910390a1505050505050565b60608060608060608060008060008060028b6040516108aa91906116c0565b9081526020016040518091039020604051806101200160405290816000820180546108d4906115e7565b80601f0160208091040260200160405190810160405280929190818152602001828054610900906115e7565b801561094d5780601f106109225761010080835404028352916020019161094d565b820191906000526020600020905b81548152906001019060200180831161093057829003601f168201915b50505050508152602001600182018054610966906115e7565b80601f0160208091040260200160405190810160405280929190818152602001828054610992906115e7565b80156109df5780601f106109b4576101008083540402835291602001916109df565b820191906000526020600020905b8154815290600101906020018083116109c257829003601f168201915b505050505081526020016002820180546109f8906115e7565b80601f0160208091040260200160405190810160405280929190818152602001828054610a24906115e7565b8015610a715780601f10610a4657610100808354040283529160200191610a71565b820191906000526020600020905b815481529060010190602001808311610a5457829003601f168201915b50505050508152602001600382018054610a8a906115e7565b80601f0160208091040260200160405190810160405280929190818152602001828054610ab6906115e7565b8015610b035780601f10610ad857610100808354040283529160200191610b03565b820191906000526020600020905b815481529060010190602001808311610ae657829003601f168201915b50505050508152602001600482018054610b1c906115e7565b80601f0160208091040260200160405190810160405280929190818152602001828054610b48906115e7565b8015610b955780601f10610b6a57610100808354040283529160200191610b95565b820191906000526020600020905b815481529060010190602001808311610b7857829003601f168201915b50505050508152602001600582018054610bae906115e7565b80601f0160208091040260200160405190810160405280929190818152602001828054610bda906115e7565b8015610c275780601f10610bfc57610100808354040283529160200191610c27565b820191906000526020600020905b815481529060010190602001808311610c0a57829003601f168201915b50505050508152602001600682015481526020016007820160009054906101000a900473ffffffffffffffffffffffffffffffffffffffff1673ffffffffffffffffffffffffffffffffffffffff1673ffffffffffffffffffffffffffffffffffffffff1681526020016008820160009054906101000a900473ffffffffffffffffffffffffffffffffffffffff1673ffffffffffffffffffffffffffffffffffffffff1673ffffffffffffffffffffffffffffffffffffffff1681525050905060008160c0015103610d2f576040517f08c379a0000000000000000000000000000000000000000000000000000000008152600401610d2690611a3d565b60405180910390fd5b806000015181602001518260400151836060015184608001518560a001518660c001518760e00151886101000151995099509950995099509950995099509950509193959799909294969850565b60008054906101000a900473ffffffffffffffffffffffffffffffffffffffff1673ffffffffffffffffffffffffffffffffffffffff163373ffffffffffffffffffffffffffffffffffffffff1614610e0b576040517f08c379a0000000000000000000000000000000000000000000000000000000008152600401610e0290611aa9565b60405180910390fd5b80600160006101000a81548173ffffffffffffffffffffffffffffffffffffffff021916908373ffffffffffffffffffffffffffffffffffffffff1602179055507f17898fd7375ca5152626d6fdd4ceb2bce6cc033c9b61e254dd0087d5f8b4743081604051610e7b9190611541565b60405180910390a150565b60008054906101000a900473ffffffffffffffffffffffffffffffffffffffff1681565b600160009054906101000a900473ffffffffffffffffffffffffffffffffffffffff1681565b6000600283604051610ee291906116c0565b90815260200160405180910390206006015403610f34576040517f08c379a0000000000000000000000000000000000000000000000000000000008152600401610f2b90611a3d565b60405180910390fd5b3373ffffffffffffffffffffffffffffffffffffffff16600283604051610f5b91906116c0565b908152602001604051809103902060080160009054906101000a900473ffffffffffffffffffffffffffffffffffffffff1673ffffffffffffffffffffffffffffffffffffffff1614610fe3576040517f08c379a0000000000000000000000000000000000000000000000000000000008152600401610fda90611aa9565b60405180910390fd5b80600283604051610ff491906116c0565b908152602001604051809103902060080160006101000a81548173ffffffffffffffffffffffffffffffffffffffff021916908373ffffffffffffffffffffffffffffffffffffffff1602179055507f6d82ace1ded9997251e5a150555aeb78d9d890a0d3170f41385af11b46c0973f82826040516110749291906119c1565b60405180910390a15050565b6000604051905090565b600080fd5b600080fd5b600080fd5b600080fd5b6000601f19601f8301169050919050565b7f4e487b7100000000000000000000000000000000000000000000000000000000600052604160045260246000fd5b6110e78261109e565b810181811067ffffffffffffffff82111715611106576111056110af565b5b80604052505050565b6000611119611080565b905061112582826110de565b919050565b600067ffffffffffffffff821115611145576111446110af565b5b61114e8261109e565b9050602081019050919050565b82818337600083830152505050565b600061117d6111788461112a565b61110f565b90508281526020810184848401111561119957611198611099565b5b6111a484828561115b565b509392505050565b600082601f8301126111c1576111c0611094565b5b81356111d184826020860161116a565b91505092915050565b6000602082840312156111f0576111ef61108a565b5b600082013567ffffffffffffffff81111561120e5761120d61108f565b5b61121a848285016111ac565b91505092915050565b600081519050919050565b600082825260208201905092915050565b60005b8381101561125d578082015181840152602081019050611242565b60008484015250505050565b600061127482611223565b61127e818561122e565b935061128e81856020860161123f565b6112978161109e565b840191505092915050565b6000819050919050565b6112b5816112a2565b82525050565b600073ffffffffffffffffffffffffffffffffffffffff82169050919050565b60006112e6826112bb565b9050919050565b6112f6816112db565b82525050565b6000610120820190508181036000830152611317818c611269565b9050818103602083015261132b818b611269565b9050818103604083015261133f818a611269565b905081810360608301526113538189611269565b905081810360808301526113678188611269565b905081810360a083015261137b8187611269565b905061138a60c08301866112ac565b61139760e08301856112ed565b6113a56101008301846112ed565b9a9950505050505050505050565b60008060008060008060c087890312156113d0576113cf61108a565b5b600087013567ffffffffffffffff8111156113ee576113ed61108f565b5b6113fa89828a016111ac565b965050602087013567ffffffffffffffff81111561141b5761141a61108f565b5b61142789828a016111ac565b955050604087013567ffffffffffffffff8111156114485761144761108f565b5b61145489828a016111ac565b945050606087013567ffffffffffffffff8111156114755761147461108f565b5b61148189828a016111ac565b935050608087013567ffffffffffffffff8111156114a2576114a161108f565b5b6114ae89828a016111ac565b92505060a087013567ffffffffffffffff8111156114cf576114ce61108f565b5b6114db89828a016111ac565b9150509295509295509295565b6114f1816112db565b81146114fc57600080fd5b50565b60008135905061150e816114e8565b92915050565b60006020828403121561152a5761152961108a565b5b6000611538848285016114ff565b91505092915050565b600060208201905061155660008301846112ed565b92915050565b600080604083850312156115735761157261108a565b5b600083013567ffffffffffffffff8111156115915761159061108f565b5b61159d858286016111ac565b92505060206115ae858286016114ff565b9150509250929050565b7f4e487b7100000000000000000000000000000000000000000000000000000000600052602260045260246000fd5b600060028204905060018216806115ff57607f821691505b602082108103611612576116116115b8565b5b50919050565b7f4e4f545f415554484f52495a4544000000000000000000000000000000000000600082015250565b600061164e600e8361122e565b915061165982611618565b602082019050919050565b6000602082019050818103600083015261167d81611641565b9050919050565b600081905092915050565b600061169a82611223565b6116a48185611684565b93506116b481856020860161123f565b80840191505092915050565b60006116cc828461168f565b915081905092915050565b7f4558495354530000000000000000000000000000000000000000000000000000600082015250565b600061170d60068361122e565b9150611718826116d7565b602082019050919050565b6000602082019050818103600083015261173c81611700565b9050919050565b60008190508160005260206000209050919050565b60006020601f8301049050919050565b600082821b905092915050565b6000600883026117a57fffffffffffffffffffffffffffffffffffffffffffffffffffffffffffffffff82611768565b6117af8683611768565b95508019841693508086168417925050509392505050565b6000819050919050565b60006117ec6117e76117e2846112a2565b6117c7565b6112a2565b9050919050565b6000819050919050565b611806836117d1565b61181a611812826117f3565b848454611775565b825550505050565b600090565b61182f611822565b61183a8184846117fd565b505050565b5b8181101561185e57611853600082611827565b600181019050611840565b5050565b601f8211156118a35761187481611743565b61187d84611758565b8101602085101561188c578190505b6118a061189885611758565b83018261183f565b50505b505050565b600082821c905092915050565b60006118c6600019846008026118a8565b1980831691505092915050565b60006118df83836118b5565b9150826002028217905092915050565b6118f882611223565b67ffffffffffffffff811115611911576119106110af565b5b61191b82546115e7565b611926828285611862565b600060209050601f8311600181146119595760008415611947578287015190505b61195185826118d3565b8655506119b9565b601f19841661196786611743565b60005b8281101561198f5784890151825560018201915060208501945060208101905061196a565b868310156119ac57848901516119a8601f8916826118b5565b8355505b6001600288020188555050505b505050505050565b600060408201905081810360008301526119db8185611269565b90506119ea60208301846112ed565b9392505050565b7f4e4f545f464f554e440000000000000000000000000000000000000000000000600082015250565b6000611a2760098361122e565b9150611a32826119f1565b602082019050919050565b60006020820190508181036000830152611a5681611a1a565b9050919050565b7f4e4f545f4f574e45520000000000000000000000000000000000000000000000600082015250565b6000611a9360098361122e565b9150611a9e82611a5d565b602082019050919050565b60006020820190508181036000830152611ac281611a86565b905091905056fea264697066735822122078774f15d74e9adede3b153527cf729c84fd991f7f2f16da1338ad557b583ffe64736f6c63430008140033",
  "linkReferences": {},
  "deployedLinkReferences": {}
}