{
  "_format": "hh-sol-artifact-1",
  "contractName": "TaaSCoreClean",
  "sourceName": "contracts/TaaSCoreClean.sol",
  "abi": [
    {
      "inputs": [],
      "stateMutability": "nonpayable",
      "type": "constructor"
    },
    {
      "anonymous": false,
      "inputs": [
        {
          "indexed": true,
          "internalType": "address",
          "name": "newAuthority",
          "type": "address"
        }
      ],
      "name": "AuthorityUpdated",
      "type": "event"
    },
    {
      "anonymous": false,
      "inputs": [
        {
          "indexed": true,
          "internalType": "address",
          "name": "oldOwner",
          "type": "address"
        },
        {
          "indexed": true,
          "internalType": "address",
          "name": "newOwner",
          "type": "address"
        }
      ],
      "name": "OwnershipTransferred",
      "type": "event"
    },
    {
      "inputs": [],
      "name": "authority",
      "outputs": [
        {
          "internalType": "address",
          "name": "",
          "type": "address"
        }
      ],
      "stateMutability": "view",
      "type": "function"
    },
    {
      "inputs": [],
      "name": "getAuthority",
      "outputs": [
        {
          "internalType": "address",
          "name": "",
          "type": "address"
        }
      ],
      "stateMutability": "view",
      "type": "function"
    },
    {
      "inputs": [],
      "name": "owner",
      "outputs": [
        {
          "internalType": "address",
          "name": "",
          "type": "address"
        }
      ],
      "stateMutability": "view",
      "type": "function"
    },
    {
      "inputs": [
        {
          "internalType": "address",
          "name": "_auth",
          "type": "address"
        }
      ],
      "name": "setAuthority",
      "outputs": [],
      "stateMutability": "nonpayable",
      "type": "function"
    },
    {
      "inputs": [
        {
          "internalType": "address",
          "name": "newOwner",
          "type": "address"
        }
      ],
      "name": "transferOwnership",
      "outputs": [],
      "stateMutability": "nonpayable",
      "type": "function"
    }
  ],
  "bytecode": "0x608060405234801561001057600080fd5b50336000806101000a81548173ffffffffffffffffffffffffffffffffffffffff021916908373ffffffffffffffffffffffffffffffffffffffff1602179055506106ec806100606000396000f3fe608060405234801561001057600080fd5b50600436106100575760003560e01c80637a9e5e4b1461005c5780638da5cb5b14610078578063bf7e214f14610096578063e2b178a0146100b4578063f2fde38b146100d2575b600080fd5b6100766004803603810190610071919061050a565b6100ee565b005b610080610272565b60405161008d9190610546565b60405180910390f35b61009e610296565b6040516100ab9190610546565b60405180910390f35b6100bc6102bc565b6040516100c99190610546565b60405180910390f35b6100ec60048036038101906100e7919061050a565b6102e6565b005b60008054906101000a900473ffffffffffffffffffffffffffffffffffffffff1673ffffffffffffffffffffffffffffffffffffffff163373ffffffffffffffffffffffffffffffffffffffff161461017c576040517f08c379a0000000000000000000000000000000000000000000000000000000008152600401610173906105be565b60405180910390fd5b600073ffffffffffffffffffffffffffffffffffffffff168173ffffffffffffffffffffffffffffffffffffffff16036101eb576040517f08c379a00000000000000000000000000000000000000000000000000000000081526004016101e29061062a565b60405180910390fd5b80600160006101000a81548173ffffffffffffffffffffffffffffffffffffffff021916908373ffffffffffffffffffffffffffffffffffffffff1602179055508073ffffffffffffffffffffffffffffffffffffffff167f2f658b440c35314f52658ea8a740e05b284cdc84dc9ae01e891f21b8933e7cad60405160405180910390a250565b60008054906101000a900473ffffffffffffffffffffffffffffffffffffffff1681565b600160009054906101000a900473ffffffffffffffffffffffffffffffffffffffff1681565b6000600160009054906101000a900473ffffffffffffffffffffffffffffffffffffffff16905090565b60008054906101000a900473ffffffffffffffffffffffffffffffffffffffff1673ffffffffffffffffffffffffffffffffffffffff163373ffffffffffffffffffffffffffffffffffffffff1614610374576040517f08c379a000000000000000000000000000000000000000000000000000000000815260040161036b906105be565b60405180910390fd5b600073ffffffffffffffffffffffffffffffffffffffff168173ffffffffffffffffffffffffffffffffffffffff16036103e3576040517f08c379a00000000000000000000000000000000000000000000000000000000081526004016103da90610696565b60405180910390fd5b60008060009054906101000a900473ffffffffffffffffffffffffffffffffffffffff169050816000806101000a81548173ffffffffffffffffffffffffffffffffffffffff021916908373ffffffffffffffffffffffffffffffffffffffff1602179055508173ffffffffffffffffffffffffffffffffffffffff168173ffffffffffffffffffffffffffffffffffffffff167f8be0079c531659141344cd1fd0a4f28419497f9722a3daafe3b4186f6b6457e060405160405180910390a35050565b600080fd5b600073ffffffffffffffffffffffffffffffffffffffff82169050919050565b60006104d7826104ac565b9050919050565b6104e7816104cc565b81146104f257600080fd5b50565b600081359050610504816104de565b92915050565b6000602082840312156105205761051f6104a7565b5b600061052e848285016104f5565b91505092915050565b610540816104cc565b82525050565b600060208201905061055b6000830184610537565b92915050565b600082825260208201905092915050565b7f4e4f545f4f574e45520000000000000000000000000000000000000000000000600082015250565b60006105a8600983610561565b91506105b382610572565b602082019050919050565b600060208201905081810360008301526105d78161059b565b9050919050565b7f494e56414c49445f415554484f52495459000000000000000000000000000000600082015250565b6000610614601183610561565b915061061f826105de565b602082019050919050565b6000602082019050818103600083015261064381610607565b9050919050565b7f5a45524f5f414444524553530000000000000000000000000000000000000000600082015250565b6000610680600c83610561565b915061068b8261064a565b602082019050919050565b600060208201905081810360008301526106af81610673565b905091905056fea2646970667358221220e043c927f7e0de2cb144f55903f3e406ca17bc9ee2102823e3c0e6f01fb1443564736f6c63430008180033",
  "linkReferences": {},
  "deployedLinkReferences": {}
}