{
  "_format": "hh-sol-artifact-1",
  "contractName": "TaaSCoreClean",
  "sourceName": "contracts/TaaSCoreClean.sol",
  "abi": [
    {
      "inputs": [],
      "stateMutability": "nonpayable",
      "type": "constructor"
    },
    {
      "anonymous": false,
      "inputs": [
        {
          "indexed": true,
          "internalType": "address",
          "name": "newAuthority",
          "type": "address"
        }
      ],
      "name": "AuthorityUpdated",
      "type": "event"
    },
    {
      "anonymous": false,
      "inputs": [
        {
          "indexed": true,
          "internalType": "address",
          "name": "oldOwner",
          "type": "address"
        },
        {
          "indexed": true,
          "internalType": "address",
          "name": "newOwner",
          "type": "address"
        }
      ],
      "name": "OwnershipTransferred",
      "type": "event"
    },
    {
      "inputs": [],
      "name": "authority",
      "outputs": [
        {
          "internalType": "address",
          "name": "",
          "type": "address"
        }
      ],
      "stateMutability": "view",
      "type": "function"
    },
    {
      "inputs": [],
      "name": "getAuthority",
      "outputs": [
        {
          "internalType": "address",
          "name": "",
          "type": "address"
        }
      ],
      "stateMutability": "view",
      "type": "function"
    },
    {
      "inputs": [],
      "name": "owner",
      "outputs": [
        {
          "internalType": "address",
          "name": "",
          "type": "address"
        }
      ],
      "stateMutability": "view",
      "type": "function"
    },
    {
      "inputs": [
        {
          "internalType": "address",
          "name": "_auth",
          "type": "address"
        }
      ],
      "name": "setAuthority",
      "outputs": [],
      "stateMutability": "nonpayable",
      "type": "function"
    },
    {
      "inputs": [
        {
          "internalType": "address",
          "name": "newOwner",
          "type": "address"
        }
      ],
      "name": "transferOwnership",
      "outputs": [],
      "stateMutability": "nonpayable",
      "type": "function"
    }
  ],
  "bytecode": "0x608060405234801561001057600080fd5b50600080546001600160a01b031916331790556102f7806100326000396000f3fe608060405234801561001057600080fd5b50600436106100575760003560e01c80637a9e5e4b1461005c5780638da5cb5b14610071578063bf7e214f146100a0578063e2b178a0146100b3578063f2fde38b146100c4575b600080fd5b61006f61006a366004610291565b6100d7565b005b600054610084906001600160a01b031681565b6040516001600160a01b03909116815260200160405180910390f35b600154610084906001600160a01b031681565b6001546001600160a01b0316610084565b61006f6100d2366004610291565b6101b6565b6000546001600160a01b031633146101225760405162461bcd60e51b81526020600482015260096024820152682727aa2fa7aba722a960b91b60448201526064015b60405180910390fd5b6001600160a01b03811661016c5760405162461bcd60e51b8152602060048201526011602482015270494e56414c49445f415554484f5249545960781b6044820152606401610119565b600180546001600160a01b0319166001600160a01b0383169081179091556040517f2f658b440c35314f52658ea8a740e05b284cdc84dc9ae01e891f21b8933e7cad90600090a250565b6000546001600160a01b031633146101fc5760405162461bcd60e51b81526020600482015260096024820152682727aa2fa7aba722a960b91b6044820152606401610119565b6001600160a01b0381166102415760405162461bcd60e51b815260206004820152600c60248201526b5a45524f5f4144445245535360a01b6044820152606401610119565b600080546001600160a01b038381166001600160a01b0319831681178455604051919092169283917f8be0079c531659141344cd1fd0a4f28419497f9722a3daafe3b4186f6b6457e09190a35050565b6000602082840312156102a357600080fd5b81356001600160a01b03811681146102ba57600080fd5b939250505056fea2646970667358221220ce5ca1f3bbe3f86ce637f20def86a8bbac046f0ad8114b11340e75330847dd1e64736f6c63430008180033",
  "linkReferences": {},
  "deployedLinkReferences": {}
}